:10000000F02A00200507000001070000010700009A
:1000100000000000000000000000000000000000E0
:1000200000000000000000000000000001070000C8
:1000300000000000000000000107000001070000B0
:100040000107000001070000010700000107000090
:1000500001070000010700002D0500000107000056
:100060000107000001070000010700000107000070
:100070000107000001070000010700000107000060
:10008000CD03000001070000010700000107000088
:100090000107000001070000010700000107000040
:1000A0000107000001070000010700000107000030
:1000B000010700000107000001070000054B06488A
:1000C000033310B51B1A062B03D9044B002B00D0A9
:1000D000984710BD400B0000400B000000000000DE
:1000E0000648074910B5091A8910CB0F591849104D
:1000F00003D0044B002B00D0984710BD400B0000EC
:10010000400B00000000000010B5074C2378002BC6
:1001100009D1FFF7D3FF054B002B02D0044800E0C4
:1001200000BF0123237010BD480400200000000020
:10013000400B0000094B10B5002B03D008490948BB
:1001400000E000BF08480368002B02D1FFF7C8FF9A
:1001500010BD064B002BF9D09847F7E700000000D0
:100160004C040020400B0000400B00000000000089
:10017000C36910B5002B00D0984710BD036A10B5B5
:10018000002B00D0984710BD436A10B5002B00D05B
:10019000984710BD10B5064B04009847002805D1BC
:1001A000044B6360044BA360044BE36010BDC04686
:1001B000E1020000710100007D01000089010000E2
:1001C000044B10B51C68044B9847044B01002000F9
:1001D000984710BD640400202D040000490400006D
:1001E000436910B5002B00D0984710BD836910B546
:1001F000002B00D0984710BD10B5054B0400984760
:10020000002803D1034B2360034B636010BDC0463D
:10021000F9040000E1010000ED01000010B50368E1
:10022000984710BDF7B504000F000192250008356E
:1002300028000C4EB0470028F8D00024395D280073
:10024000094B98472800B0470028FBD0019B013498
:100250009C42F3D32800054B98470028FAD0200091
:10026000FEBDC046A506000095060000AF060000D2
:10027000F7B507000E00002401923D000835280064
:10028000064B98470028F8D0054B28009847019B5B
:10029000305501349C42F0D32000FEBDB906000069
:1002A0009D06000010B5054B040008309847002853
:1002B00003D1034B6360034B236010BD6D06000048
:1002C000710200002502000010B50830014B98476C
:1002D000002010BD7D06000008600020704700006F
:1002E000F0B5012401608B6923438B618B69234244
:1002F000FCD002238A6913438B612B4B994246D170
:100300002A4B2B4D1A00856101C28D69294E8D61E2
:1003100000258D60CE61284E284FCE608026BFB26A
:10032000F6033E430F00A0373E600E00BC3635603A
:10033000F5608026224FB605BFB23E430F00C0379E
:100340003E60802692B2B60232433A6328270A1DE5
:10035000D7671A000F00143292B232430837FA6797
:100360000A001C339BB233438832136080239031E0
:100370000D6014495B02144ACB67BFF34F8FBFF384
:100380006F8FC0214900535013600368DC65022160
:1003900003689A698A439A61012299699143996134
:1003A00098691040FCD1F0BD002000426804002094
:1003B00000000020070A0206330A00009806002009
:1003C0009804002004E100E000E100E0164B70B565
:1003D0001C6823681D6DEB0702D52000A3689847B1
:1003E000AB0502D5200063689847AB0103D5032114
:1003F0002000E3689847EB0103D500212000E36863
:1004000098472B0207D523682000596CE3688906BA
:10041000C90F013198472B0703D504212000E36859
:10042000984723681D6570BD680400200300E02024
:10043000FF30584310B5034B023003219847642323
:10044000584310BDA30400000139FDD870470000D7
:10045000042310B5084A51680B435360074B984773
:10046000074B9847074B9847074B9847FF20074B88
:100470009847074B984710BD004000415D050000BC
:100480007D050000ED04000081050000CD040000A2
:100490009504000090220221D20513788B4313703B
:1004A000704713B5EFF31083019372B690230124C4
:1004B000DB051A78A2431A709860D9601A79D207BE
:1004C000FCD41869019B83F3108816BDC30706D5B9
:1004D000034A044B1A62044A59681142FCD170471E
:1004E00007010100001C0040FD0700000122014B34
:1004F0001A717047000800409E2201614B6813404A
:100500004B60084B5E3A1860074B191DCA67BFF372
:100510004F8FBFF36F8FC02149005A5000201A60DF
:100520007047C0469404002000E100E001210A4B1E
:1005300010B5186803691A7D0A4204D00368002BBD
:1005400000D0984710BD1A7D52080A42FAD0022204
:100550001A754368F3E7C046940400208E22064BC8
:10056000F8219A8200229A75DA75DA6949010A40FF
:10057000DA6101221A6170470014004070470000E0
:10058000134830B501000E24124B134A1A62027848
:100590002240FCD111485A6202700E320878104293
:1005A000FCD102221A7708781042FCD101250220E2
:1005B0000B4A14782C4202D114780442F9D08020DE
:1005C0001A7F02431A770E230A781A42FCD130BDF3
:1005D0002C10004000100040B7050D00281000400E
:1005E00030100040C3691942FCD17047022210B597
:1005F0000368032193430360014B984710BDC04635
:10060000E505000070B5C3690400144DDB0710D484
:1006100002260321A8472368334205D02000104B4F
:10062000984731002000A8470523032123602000BC
:10063000A84720000121A8470A4B2000236003217E
:10064000A847C0239B02636020000721A847002021
:10065000054BA381A0733034207070BDE505000008
:10066000ED0500000400314055D5FFFF10B5024BE9
:1006700001600800984710BD05060000022310B570
:1006800000680321026813430360014B984710BDC3
:10069000E5050000036889B2198570470368188D65
:1006A000C0B270470368187E012318407047036882
:1006B000187E8007C00F70470368187E4007C00F80
:1006C00070470E22036899681142FCD11A78D2094A
:1006D00013D10E3299681142FCD11A7892070CD4CA
:1006E00004211A788A431A700E2298681040FCD1AF
:1006F0000F215A788A435A70704711204042FBE715
:10070000FEE700000F48104970B5884204D000236E
:100710000E4CCA18A2420ED300210D4B0D4A934233
:100720000DD3FF210C4B0D4A8B4393600C4B984724
:100730000C4B9847FEE7C55804331560E9E702C340
:10074000EDE7C046400B00000000002048040020F8
:1007500048040020F00A00200000000000ED00E046
:10076000D50900006907000070B50B4B98470B4D89
:100770000B4C280021000B4B984728000A4BFA2508
:100780009847AD00072209492068094B984728007F
:10079000084B9847F6E7C04685090000E40A0020A8
:1007A000980A0020D9020000C9020000080B0000CE
:1007B0001D020000C101000070B51F244209C0B233
:1007C0000440FF234D1C09D11A40D201144BA2183A
:1007D000D218137802318B43137070BD13408222FC
:1007E0000125D205DB019B181E1940363278AA4339
:1007F0002A4332706208284209D00F209A183032FA
:100800001378090103401943C9B21170E5E70F20BD
:100810009B1830331A780140824311431970DCE78A
:10082000400000412023024A11690B4313617047C5
:100830000008004010B5034B984703490348044B98
:10084000984710BD25080000004000419C0A002088
:10085000F901000010B50449044C2A20A0470449BE
:100860002B20A04710BDC04603002A00B907000096
:1008700003002B00064B40211A00DC32116043229A
:10088000C8331A602023034AD1690B43D3617047F0
:10089000001C00400008004010B5054B984700229E
:1008A0000449054B05489847054B984710BDC0467D
:1008B0007508000000140042A5020000E40A0020B0
:1008C000550800008023034A5B0051690B435361C4
:1008D0007047C0460008004010B5044B98470448D4
:1008E000044B0360044B984710BDC046C508000088
:1008F000E00A002000200040C306000010B50449B3
:10090000044C2F20A04704492E20A04710BDC0460C
:1009100006002F00B907000006002E00802310B546
:10092000074A9B00116907480B4313614022064B9D
:1009300006491A60064B9847064B984710BDC046BB
:1009400000080040B80A0020EC1C004000200042D3
:1009500095010000FD08000010B5054B9847054BB8
:100960009847054B9847054B9847054B984710BD4E
:10097000510400003508000099080000D908000063
:100980001D09000010B5014B984710BD5909000022
:1009900010B5010000230022002000F03FF810BD38
:1009A00070B5094B094CE41AA41009D0084AA518DF
:1009B000AD00ED182B68013C9847043D002CF9D19F
:1009C00000F0B6F870BDC0463C0B0000400B0000C4
:1009D000FFFFFF3F70B50D4E0D4D0024AD1BAD1058
:1009E00005D0A300F35801349847A542F9D100F08F
:1009F00095F8084E084D0024AD1BAD1005D0A3009E
:100A0000F35801349847A542F9D170BD280B000076
:100A1000280B0000280B0000300B0000F8B5DE4664
:100A20009B46314B45461C68A4234E4657465B0007
:100A3000E0B50500E0580E00904600284BD0436812
:100A40001F2B0DDC5C1C002D21D102339B00446068
:100A50001E5000203CBC90469946A246AB46F8BDCD
:100A6000224B002B3CD0C820400000E000BF0028F3
:100A700036D0A42200235200A15843600160A05048
:100A800040328350043283500124002DDDD09A007F
:100A900091468144424688214F467A50C4225200F2
:100AA0009046804442468739994012688A460A43F4
:100AB0009446424661461160842249465F46520090
:100AC0008F50022DC1D1020055468D32FF32116880
:100AD0000D431560B9E720004D30FF30E050AEE720
:100AE00001204042B6E7C046140B000000000000A1
:100AF000034B10B5002B02D00248FFF749FF10BD91
:100B000000000000A109000048454C4C4F0A0D218F
:100B1000000000002000002043000000F8B5C0469F
:100B2000F8BC08BC9E467047F10A00003501000081
:100B3000F8B5C046F8BC08BC9E46704709010000E5
:100B400098060020980400206C0400207C040020FB
:100B500084040020000000002000002000000000AD
:100B6000000000000C03002074030020DC030020C0
:100B70000000000000000000000000000000000075
:100B80000000000000000000000000000000000065
:100B900000000000180B0000000000000000000032
:100BA0000000000000000000000000000000000045
:100BB0000000000000000000000000000000000035
:100BC0000000000000000000000000000000000025
:100BD0000000000000000000000000000000000015
:100BE0000000000000000000000000000000000005
:100BF00000000000000000000000000000000000F5
:100C000000000000000000000100000000000000E3
:100C10000E33CDAB34126DE6ECDE05000B000000A8
:100C200000000000000000000000000000000000C4
:100C300000000000000000000000000000000000B4
:100C400000000000000000000000000000000000A4
:100C50000000000000000000000000000000000094
:00000001FF
