:10000000F02A0020AD060000AB060000AB060000A1
:1000100000000000000000000000000000000000E0
:10002000000000000000000000000000AB0600001F
:100030000000000000000000AB060000AB0600005E
:10004000AB060000AB060000AB060000AB060000EC
:10005000AB060000AB060000D1040000AB060000B8
:10006000AB060000AB060000AB060000AB060000CC
:10007000AB060000AB060000AB060000AB060000BC
:10008000BD030000AB060000AB060000AB0600009D
:10009000AB060000AB060000AB060000AB0600009C
:1000A000AB060000AB060000AB060000AB0600008C
:1000B000AB060000AB060000AB0600000448054B91
:1000C00010B5834203D0044B002B00D0984710BDDD
:1000D000780A0000780A000000000000064807497E
:1000E000091A8B10C90FC91810B5491003D0044B59
:1000F000002B00D0984710BD780A0000780A000055
:100100000000000010B5074C2378002B09D1FFF741
:10011000D5FF054B002B02D0044800E000BF0123AF
:10012000237010BD4804002000000000780A000081
:10013000054B10B5002B03D00449054800E000BF73
:10014000FFF7CCFF10BDC046000000004C040020AB
:10015000780A0000C36910B5002B00D0984710BD85
:10016000036A10B5002B00D0984710BD436A10B544
:10017000002B00D0984710BD10B5064B04009847DF
:10018000002805D1044B6360044BA360044BE3607B
:1001900010BDC046CD020000550100006101000005
:1001A0006D010000436910B5002B00D0984710BDC9
:1001B000836910B5002B00D0984710BD10B5054BD2
:1001C00004009847002803D1034B2360034B63606E
:1001D00010BDC0469D040000A5010000B101000053
:1001E00010B50368984710BD10B54368984710BD17
:1001F000F7B50600140001913500083528000E4FB0
:10020000B8470028F8D00026019B2800995D0B4BC9
:1002100098472800B8470028FBD00136B442F3D8ED
:100220000126002C00D026002800054B9847002806
:10023000FAD03000FEBDC0464B0600003D0600006F
:1002400055060000F7B5060014000025019137009F
:1002500008373800084B98470028F8D0074B38007B
:100260009847019B58550135AC42F0D80120002C2D
:1002700000D02000FEBDC0465F060000430600001F
:1002800010B5054B040008309847002803D1034BF4
:100290006360034B236010BD15060000450200009B
:1002A000F101000010B50830014B9847002010BD47
:1002B00025060000086000207047000010B5024BC2
:1002C0000830984710BDC0465F060000F0B5012415
:1002D0008B69016023438B618B692342FCD002232D
:1002E0008A6913438B612C4B994246D12B4B2C4D81
:1002F0001A0085618D6901C28D610025294E8D60CE
:10030000CE61294E294FCE608026BFB2F6033E4310
:100310000F00A0373E600E00BC363560F5608026C9
:10032000234FB605BFB23E430F00C0373E60802664
:1003300092B2B60232433A6328270A1DD7671A00E1
:100340000F00143292B232430837FA670A001C33A6
:100350009BB2334388321360802390310D6015497E
:100360005B02154ACB67BFF34F8FBFF36F8FC0217E
:100370004900535013600368DC65022102689369E9
:100380008B439361012391699943916191690800BD
:1003900018401942FAD1F0BD002000426404002048
:1003A00000000020070A0206330A0000940600201D
:1003B0009404002004E100E000E100E0164B70B579
:1003C0001C6823681D6DEB0702D52000A3689847C1
:1003D000AB0502D5200063689847AB0103D5032124
:1003E0002000E3689847EB0103D500212000E36873
:1003F00098472B0207D523682000596CE3688906CB
:10040000C90F013198472B0703D504212000E36869
:10041000984723681D6570BD640400200423094AC1
:1004200010B551680B435360074B9847074B9847EB
:10043000074B9847074B9847FF20074B9847074BB8
:10044000984710BD00400041010500002105000053
:100450009104000025050000710400006104000003
:1004600090220221D20513788B431370704700004D
:10047000C30706D5034A044B1A62044A596811425D
:10048000FCD1704707010100001C0040FD0700007F
:100490000122014B1A717047000800409E224B68F0
:1004A000016113404B60084B5E3A1860074B191D01
:1004B000CA67BFF34F8FBFF36F8FC0214900002081
:1004C0005A501A607047C0469004002000E100E0D6
:1004D00001210A4B10B5186803691A7D0A4204D03D
:1004E0000368002B00D0984710BD1A7D52080A42BD
:1004F000FAD002221A754368F3E7C0469004002040
:100500008E22064BF8219A8200229A75DA75DA69F2
:1005100049010A40DA6101221A6170470014004063
:100520007047000030B5144D0E202900134B144ABB
:100530001A622C78220002400442FAD111485A6211
:1005400002700E2208781042FCD102221A77087835
:100550001042FCD101200C4C2278024203D12278B7
:1005600052080242F8D080201A7F02431A770E23E5
:100570000A781A42FCD130BD2C1000400010004017
:10058000B7050D002810004030100040C369194223
:10059000FCD17047022210B5036803219343036026
:1005A000014B984710BDC0468D050000C36970B56A
:1005B0000400144DDB0710D402260321A84723684A
:1005C000334205D02000104B984731002000A84747
:1005D0000523032120002360A84720000121A8470C
:1005E0000A4B200023600321A847C0239B02200060
:1005F00063600721A8470020054BA381A073303416
:10060000207070BD8D05000095050000040031408C
:1006100055D5FFFF10B5024B01600800984710BD8B
:10062000AD0500000223006810B5026803211343E2
:100630000360014B984710BD8D05000003681985C4
:1006400070470368188DC0B270470368187E012395
:10065000184070470368187E8007C00F7047036812
:10066000187E4007C00F70470E2203689968114238
:10067000FCD11A78D20915D10E3299681142FCD1F9
:100680001A7892070ED404211A788A431A700E221F
:100690009968080010401142FAD10F215A788A4314
:1006A0005A70704711204042FBE7FEE70D4A0E4B9F
:1006B00010B50E499A4210D100210D4B0D4A9342BC
:1006C0000ED3FF220C4B93430C4A93600C4B98477C
:1006D0000C4B9847FEE701CA01C38B42FBD3EBE703
:1006E00002C3ECE7780A0000000000204804002064
:1006F00048040020F00A00200000000000ED00E0A7
:10070000650900000907000070B5134B9847134EA8
:10071000134D144B2900300098473000124B984776
:100720003000124B9847124C002809D001222100BA
:10073000104B286898470122210028680E4B9847E3
:1007400023780D2BECD10C4B07220C4928689847D5
:1007500000232370E4E7C04621090000E40A0020DA
:10076000940A0020B5020000A5020000BD020000AE
:10077000980A0020E9010000E1010000480A000099
:100780001F2330B501240C4A03409D18E3402A780A
:10079000C9B2A24322432A70084A9B181A78204201
:1007A00006D00F20090102401143C9B2197030BDB3
:1007B0000F2082431143F9E7C0000041B00000411F
:1007C0002023024A11690B4313617047000800405F
:1007D00010B5034B984703490348044B984710BD95
:1007E000C1070000004000419C0A0020BD0100003C
:1007F00010B52A20034C0449A0472B200349A047E9
:1008000010BDC0468107000003002A0003002B0032
:10081000064B40211A00DC3211604322C8331A60B3
:100820002023034AD1690B43D3617047001C004069
:100830000008004010B5054B984700220449054BBD
:1008400005489847054B984710BDC0461108000061
:100850000014004281020000E40A0020F1070000B9
:100860008023034A5B0051690B4353617047C046C4
:100870000008004010B5044B98470448044B03603F
:10088000044B984710BDC04661080000E00A0020F4
:10089000002000406906000010B52F20034C0449D9
:1008A000A0472E200349A04710BDC0468107000085
:1008B00006002F0006002E008023084A9B001169C5
:1008C00010B50B4313614022054B06491A600648D8
:1008D000064B9847064B984710BDC046000800409D
:1008E000EC1C004000200042B80A00207901000002
:1008F0009908000010B5054B9847054B9847054BE4
:100900009847054B9847054B984710BD1D040000BC
:10091000D10700003508000075080000B908000084
:1009200010B5014B984710BDF508000010B5010047
:1009300000230022002000F037F810BD70B5074DED
:10094000074C641BA41005D0013CA300EB5898474A
:10095000002CF9D100F088F870BDC046740A000080
:10096000780A000070B50C4D0C4E761BB61005D001
:10097000002408CD01349847A642FAD100F06AF865
:10098000074D084E761BB61005D0002408CD013463
:100990009847A642FAD170BD600A0000600A0000C4
:1009A000600A0000680A0000F0B5C64600B51F4C9A
:1009B00082B024680194A424019D64002D59002D67
:1009C0002BD06C681F2C2EDC002809D10020631C62
:1009D0000234A4006B60615102B004BC9046F0BDCB
:1009E0008827A600AE19F2510137FF37BC46012215
:1009F000AC446746A2403F68904617436246176082
:100A000084277F00F3510228E0D12B0040468D332C
:100A1000FF331A6810431860D8E7019D019E4D35D9
:100A2000FF353551CDE701204042D5E7500A00009F
:100A3000034B10B5002B02D00248FFF777FF10BD23
:100A4000000000003D09000048656C6C6F0A0D0055
:100A500020000020F8B5C046F8BC08BC9E46704790
:100A6000310A000031010000F8B5C046F8BC08BCEE
:080A70009E46704705010000DD
:100A780094060020940400206804002078040020D4
:100A8800800400200000000020000020000000007A
:100A9800000000000C03002074030020DC03002089
:100AA800000000000000000000000000000000003E
:100AB800000000000000000000000000000000002E
:100AC800000000000000000000000000000000001E
:100AD800000000000000000000000000000000000E
:100AE80000000000000000000000000000000000FE
:100AF80000000000000000000000000000000000EE
:100B080000000000000000000000000000000000DD
:100B180000000000000000000000000000000000CD
:100B280000000000000000000000000000000000BD
:100B380000000000000000000100000000000000AC
:100B48000E33CDAB34126DE6ECDE05000B00000071
:100B5800000000000000000000000000000000008D
:100B6800000000000000000000000000000000007D
:100B7800000000000000000000000000000000006D
:100B8800000000000000000000000000000000005D
:00000001FF
