:10000000402B0020410A00003D0A00003D0A00008C
:1000100000000000000000000000000000000000E0
:100020000000000000000000000000003D0A000089
:1000300000000000000000003D0A00003D0A000032
:100040003D0A00003D0A00003D0A00003D0A000094
:100050003D0A00003D0A0000E50600003D0A0000E0
:100060003D0A00003D0A00003D0A00003D0A000074
:100070003D0A00003D0A00003D0A00001505000091
:100080003D0A00003D0A00003D0A00003D0A000054
:10009000210A00003D0A00003D0A00003D0A000060
:1000A0003D0A00003D0A00003D0A00003D0A000034
:1000B0003D0A00003D0A00003D0A00000448054BCF
:1000C00010B5834203D0044B002B00D0984710BDDD
:1000D00044990000449900000000000006480749C8
:1000E000091A8B10C90FC91810B5491003D0044B59
:1000F000002B00D0984710BD44990000449900009F
:100100000000000010B5074C2378002B09D1FFF741
:10011000D5FF054B002B02D0044800E000BF0123AF
:10012000237010BDC40900200000000044990000A5
:10013000054B10B5002B03D00449054800E000BF73
:10014000FFF7CCFF10BDC04600000000C80900202A
:1001500044990000C36910B5002B00D0984710BD2A
:10016000036A10B5002B00D0984710BD436A10B544
:10017000002B00D0984710BD10B5064B04009847DF
:10018000002805D1044B6360044BA360044BE3607B
:1001900010BDC046150400005501000061010000BB
:1001A0006D010000436910B5002B00D0984710BDC9
:1001B000836910B5002B00D0984710BD10B5054BD2
:1001C00004009847002803D1034B2360034B63606E
:1001D00010BDC046B1060000A5010000B10100003D
:1001E00010B50368984710BD10B54368984710BD17
:1001F000F7B50568002D02D1114B9847F7BD0126D0
:100200002C0000278B680093B31A0193A6686368DB
:10021000B44693420DD863449B1A009E9E420CD96B
:1002200023682700002B02D13800064BE5E71C00AD
:10023000ECE7019EF3186344EFE7A542DCD0F3E757
:10024000A1030000A9030000F8B5036904005E1CC7
:10025000037E45690661DB0702D4037E9B0717D541
:100260000223227E13432376F8BD270014370C4B5C
:10027000380098472B7C012B05D13200290038002B
:10028000084B6E60984767692800EB6898473D0007
:10029000002DE9D06B68AA68F31A9342E5D2E3E730
:1002A000B1030000F101000010B5044B04009847B1
:1002B0000020034B2061236010BDC046C908000028
:1002C00049020000F7B50600140001913500083519
:1002D00028000E4FB8470028F8D00026019B2800C0
:1002E000995D0B4B98472800B8470028FBD0013692
:1002F000B442F3D80126002C00D026002800054B7C
:1003000098470028FAD03000FEBDC0465F080000C4
:100310005108000069080000F7B506001400002528
:100320000191370008373800084B98470028F8D06B
:10033000074B38009847019B58550135AC42F0D81F
:100340000120002C00D02000FEBDC0467308000034
:100350005708000010B5054B0400083098470028E6
:1003600003D1034B6360034B236010BD29080000D9
:1003700019030000C502000010B50830014B984772
:10038000002010BD39080000086000207047000000
:1003900010B5024B0830984710BDC04673080000E6
:1003A00003680B600160704703680B600160704771
:1003B00003000068002801D002681A60704700003E
:1003C000054A03001168002901D104491160106831
:1003D000C31813607047C046E0090020402B00207E
:1003E00001204042704780239B0100204B607047F2
:1003F0000120704700207047010010B50148024BF2
:100400009847FEE7509100004928000070470120FE
:1004100040427047F7B501248B69016023438B612B
:1004200001948B69019A1342FBD002238A6913431A
:100430008B612F4B99424BD12E4BA0241A002E4D8D
:1004400001C285618D69A4468D6100252B4E8D60AA
:10045000CE612B4E8C44CE6080266446294FB60276
:10046000BFB2374327600F00BC373D60FD60264FA9
:1004700092B2BCB28027BF042743C024A4468C4458
:10048000644627600F003243F0373A6028270A1D80
:10049000D7671A000F00143292B232430837FA6756
:1004A0000A001C339BB2334388321360802390319F
:1004B0000D6016491B02164ACB67BFF34F8FBFF37F
:1004C0006F8FC0214900535013600368019ADA65A9
:1004D0000221026893698B439361012391699943D7
:1004E00091619169080018401942FAD1FEBDC046D9
:1004F000001C0042E409002000000020070A020658
:10050000330A0000580A0020780A002004E100E0C5
:1005100000E100E0164B70B51C6823681D6DEB0709
:1005200002D52000A3689847AB0502D52000636878
:100530009847AB0103D503212000E3689847EB01FE
:1005400003D500212000E36898472B0207D52368D4
:100550002000596CE3688906C90F013198472B07C1
:1005600003D504212000E368984723681D6570BD0A
:10057000E40900200423094A10B551680B43536075
:10058000074B9847074B9847074B9847074B9847A7
:10059000FF20074B9847074B984710BD004000418C
:1005A0001507000035070000A50600003907000008
:1005B00085060000B905000090220221D2051378BB
:1005C0008B431370704713B5EFF31083019372B62A
:1005D00090230122DB051C7822431A709860D960B1
:1005E0001A79D207FCD41869019B83F3108816BDD1
:1005F00013B5EFF31083019372B690230124DB054A
:100600001A78A2431A709860D9601A79D207FCD47C
:100610001869019B83F3108816BD000013B5EFF332
:100620001083019372B690230122DB051C782243CC
:100630001A709860D9601A79D207FCD4034B1868F5
:100640005968019B83F310881CBDC0461000004808
:1006500013B5EFF31083019372B690230124DB05E9
:100660001A78A2431A709860D9601A79D207FCD41C
:10067000034B18685968019B83F310881CBDC04662
:1006800010000048C30706D5034A044B1A62044A07
:1006900059681142FCD1704707010100001C00405D
:1006A000FD0700000122014B1A717047000800404D
:1006B0009E224B68016113404B60084B5E3A186004
:1006C000074B191DCA67BFF34F8FBFF36F8FC02150
:1006D000490000205A501A607047C046100A002096
:1006E00000E100E001210A4B10B5186803691A7D8A
:1006F0000A4204D00368002B00D0984710BD1A7D31
:1007000052080A42FAD002221A754368F3E7C0463B
:10071000100A00208E22064BF8219A8200229A7538
:10072000DA75DA6949010A40DA6101221A61704713
:10073000001400407047000030B5144D0E20290011
:10074000134B144A1A622C78220002400442FAD158
:1007500011485A6202700E2208781042FCD102221F
:100760001A7708781042FCD101200C4C2278024202
:1007700003D1227852080242F8D080201A7F024327
:100780001A770E230A781A42FCD130BD2C10004093
:1007900000100040B7050D00281000403010004048
:1007A000C3691942FCD17047022210B503680321C6
:1007B00093430360014B984710BDC046A10700005A
:1007C000C36970B50400144DDB0710D40226032161
:1007D000A8472368334205D02000104B98473100CA
:1007E0002000A8470523032120002360A8472000FC
:1007F0000121A8470A4B200023600321A847C023FA
:100800009B02200063600721A8470020054BA381BD
:10081000A0733034207070BDA1070000A90700004C
:100820000400314055D5FFFF10B5024B01600800B0
:10083000984710BDC10700000223006810B5026888
:10084000032113430360014B984710BDA10700002B
:100850000368198570470368188DC0B27047036834
:10086000187E0123184070470368187E8007C00F68
:1008700070470368187E4007C00F7047036919422C
:10088000FCD1704770B588B069460A000C4B70CB3C
:1008900070C270CB70C230CB30C200239A008A582D
:1008A000824205D1D8B2431E9841404208B070BD83
:1008B0000133082BF2D1034BC018800AC0B2F2E713
:1008C0006C91000000D0FFBDF0B50C0085B04C4B22
:1008D000039008009847039B4A4DDC602369019010
:1008E000DB0714D4022603212000A84723683342E3
:1008F00008D023680321B34320002360A8473100B8
:100900002000A8470123032120002360A8470121DC
:100910002000A8471423019A03215A433A4B200090
:100920009F187E6A02922660A847374B029A9B184E
:100930000B33DB7FE3733B8DE380012323730B33A6
:100940001E40082E3CD1FB6AC021E3612000A8476D
:1009500000232362C0212000A847012363722B4B90
:100960009C4202D12A4B039A1A6014220199264B09
:100970004A4302339B18DB7F5BB2002B0ADB1F224A
:1009800013401E3A9A401300224AD367BFF34F8F99
:10099000BFF36F8F1C4B019A981C14235343C0184C
:1009A0001F23C356002B08DB1F221A400123C0213E
:1009B0009340194A490053501360002005B0F0BD20
:1009C000002E07D1FB6AC0219BB22000A383A84759
:1009D000E683BFE7042EC0D1FB6AC021DBB2200052
:1009E0002377A8470023C02163772000A847064A41
:1009F000029B944663440C33DB7F2021E376AAE715
:100A0000850800007D0800006C9100000030004265
:100A1000140A002004E100E000E100E0002070473B
:100A20000122054B10B51868C368997A114202D0AB
:100A30009A720368984710BD140A0020FEE7000070
:100A40000D4A0E4B10B50E499A4210D100210D4BA4
:100A50000D4A93420ED3FF220C4B93430C4A9360F2
:100A60000C4B98470C4B9847FEE701CA01C38B42D9
:100A7000FBD3EBE702C3ECE7449900000000002041
:100A8000C4090020C4090020400B00200000000021
:100A900000ED00E09D260000D90C0000030010B519
:100AA00008001100002B03D1034B9847002801DAFE
:100AB0000120404210BDC046090B000001380B0068
:100AC00010B51100022804D81800034B98470028DD
:100AD00001DA0120404210BD290B000070B504006E
:100AE000064E074D336800219868A84733680021F7
:100AF0005868A847034B1C6070BDC0461800002012
:100B00006D280000180A0020054B10B51B68040072
:100B1000181E03D08AB2034B2100984710BDC0466F
:100B2000180A0020E9010000054B10B51B680400FD
:100B3000181E03D08AB2034B2100984710BDC0464F
:100B4000180A0020E101000070B50E4B0400984720
:100B50000121421E0020531C00D170BDA35C1D006A
:100B6000303DEEB2092E04D84D4340190901013A37
:100B7000F1E71D00413D052DF9D8373B4B43C01827
:100B8000F4E7C0467D2A0000F0B54048404B87B0EE
:100B90009847404F00280BD03F4C404B012218682B
:100BA00021003F4B98472378742B06D100233B70DC
:100BB0007B78002B07D107B0F0BD0A2B01D00D2B9D
:100BC0004AD101237B70374E374A3378BC1CBB7047
:100BD0007378364DFB70B37820003B71032313808C
:100BE000A847334B1880F37832480370A847324B3C
:100BF00021001870314C3248A04739783148A0475D
:100C00000423294A304C13802B4B02921B78059504
:100C100002335B0003933B7804932C4B0193029BBC
:100C20001D88039B9D4202DA049B9D421AD3002437
:100C3000264D2748295D214B01349847082CF7D1D0
:100C4000192200213000234EB04722000021280045
:100C5000B04700237B70AEE73A78511C39701149D8
:100C60008B54A5E70F4B20005B5D23700D4B5B1988
:100C70005B7802356370059B9847019B1870029B57
:100C80001D80019B01330193C9E7C046140B00206E
:100C9000910300001C0A0020B10A0020AC0A0020C9
:100CA000E9010000B40A0020AA0A0020490B000054
:100CB000B20A0020980A0020B00A0020492800004B
:100CC0000192000012920000A10A0020990A00205F
:100CD0001E920000852700001FB5084B9847084C5E
:100CE000084B210008489847162208492068084BFD
:100CF00098476846074B9847FBE7C046850E0000BB
:100D0000AC0A002089030000140B0020229200008E
:100D1000E1010000890B00002023024A11690B4306
:100D2000136170470008004010B5034B9847034912
:100D30000348044B984710BD190D000000400041C6
:100D4000F80A0020BD0100008223DB051800012203
:100D500030B5CA3001780F24914311430170190056
:100D60000320B5310D78CB33A5432843087018789C
:100D7000904302431A700B781C40302323430B70BE
:100D800030BD0000064B40211A00DC3211604322C6
:100D9000C8331A602023034AD1690B43D3617047DB
:100DA000001C00400008004010B5054B9847002289
:100DB0000449054B05489847054B984710BDC04668
:100DC000850D00000014004255030000140B0020A4
:100DD000490D00008023074A5B00116910B50B43E1
:100DE00013614022044B05491A600548054B98479A
:100DF00010BDC04600080040E81C0040001C004236
:100E0000D00A00207901000010B50C4B98470C4B1C
:100E100098470C4B984780230B4A5B01D1690B43E1
:100E2000D3614022094B1A60094B984709490200D7
:100E3000094B0A4898470A4B984710BD75050000B2
:100E4000290D0000A90D000000080040F81C00401A
:100E50001D0A000000300042A9020000200B002003
:100E6000D50D000010B5044C044B2000984720001D
:100E7000034B984710BDC046140B002079030000B7
:100E8000DD0A000010B5024B9847024B984710BD91
:100E9000090E0000650E0000002B11D1002A0FD1B1
:100EA000002900D1002802D00021C943081C07B442
:100EB000024802A14018029003BDC04699140000E8
:100EC00003B4684601B5029800F006F8019B9E46FF
:100ED00002B00CBC7047C046F0B557464E4645467A
:100EE000DE46E0B504000D009246994683B08B4281
:100EF00030D82DD04946504601F08AFA2900060024
:100F0000200001F085FA331A9846203B9B4633D4E3
:100F10005A465346934042461F00534693401E0094
:100F2000AF423AD8AF4200D178E05B46A41BBD4146
:100F3000002B00DA75E000220023009201930123C8
:100F40005A4693400193012342469340009328E080
:100F50008242CFD900220023009201930C9B002BE8
:100F600001D01C605D600098019903B03CBC9046C4
:100F70009946A246AB46F0BD424620239B1A5246F4
:100F8000DA40414613004A468A40170042461F4352
:100F9000534693401E00AF42C4D900220023009262
:100FA00001934346002BD9D0FB0772081A434646EB
:100FB0007B080EE0AB4201D1A2420CD8A41A9D419D
:100FC000012024196D410021013E24184D41002EBD
:100FD00006D0AB42EED9013E24196D41002EF8D166
:100FE000009801995B4600196941002B24DB2B0016
:100FF0005A464446D3402A00E2401C005B46150096
:10100000002B2ADB26009E40330026004746BE40C8
:101010003200801A9941009001919FE7A342BCD809
:1010200083E74246202300219B1A0022009101926F
:101030000122DA40019286E7424620239B1A2A00C9
:1010400046469A402300F340444613432A00E240B8
:101050001C005B461500002BD4DA42462F002023EB
:10106000260097409B1ADE403B003343CDE7C04645
:10107000F0B557464E464546DE46E0B5814605008A
:101080000C03480092461F0085B0240B400DCE0F84
:10109000002859D0874B984200D198E06B0FE400AC
:1010A0001C4380231B0423439846834BED009B463F
:1010B00000239946834400933C037B005046240B55
:1010C0005B0DFF0F002B67D07A4A934218D07A4904
:1010D000420F8C46E40059461443802263441204B4
:1010E000CB1A14439B46C200002033007B409A4633
:1010F0004B460F2B00D9EFE070499B00CB589F4621
:101100006F4B52469C462243E344002A00D095E0B0
:10111000494602231943894600240220E5E70023BB
:101120000024002552461B052343D2071343280001
:10113000190005B03CBC90469946A246AB46F0BDAE
:10114000002400255B4BEDE74B462343984600D136
:1011500089E0002C00D1E0E1200001F03BF9010022
:1011600002000B391D235B1A49461000D94008388C
:1011700084400B004D4623439846854051483C032C
:10118000831A9B460023994600937B005046240B0C
:101190005B0DFF0F002B97D15246224355D0002CF8
:1011A00000D1CAE1200001F015F902000B3A1D231D
:1011B00001009B1A52460839DA408C4014435246CB
:1011C0008A40414B58449B46834400208DE74B4660
:1011D0002343984640D108239946063B0025834681
:1011E000009369E7B246009B022BA9D0032B00D1E4
:1011F00011E2012B93D0354A5A44002A00DC3CE12D
:101200006B0700D0A7E1ED084346DB0106D5424657
:101210002F4B1A4090468022D2005A442D4B9A42BE
:101220008EDC4346520558075C020543240B530DE0
:1012300078E7BA46A04615000090D4E74A46032353
:101240001A439146032052464FE74946012319436A
:1012500089460024012048E70C239946093BA04613
:101260008346009328E70423994600239B460133D5
:101270000025009320E7002380249A4600250D4B8B
:1012800024034FE7802341461B03194208D01C4228
:1012900006D11C432403BA461500064B240B41E734
:1012A0008024434624031C432403B246014B240BF1
:1012B00038E7C046FF07000001FCFFFF3C9200003A
:1012C00001F8FFFF0DFCFFFFF3030000FF03000028
:1012D000FFFFFFFEFE070000444500D216E100D1EB
:1012E00011E101235B429C462E0040460025E34469
:1012F0002302140E1C431B0C994623041F0C1202DC
:10130000494600920197FFF7A3F902007A430B04C4
:10131000310C804619438A420BD901235B429C461B
:101320000919E0448C4204D88A4202D9831E9846A7
:101330000919881A4946FFF78BF909048C463104CC
:101340006646019A090C4243030031438A4204D99C
:101350000919013B8C4200D811E1891A4246009ECE
:1013600012041A43330C1F00100C9046029313040E
:101370003204160C32001B0C5A4303967B4346433F
:101380007843170CBC469B1963449E4203D98026C0
:101390007602B44660441E0C301816041B04360C4A
:1013A0009E19814200D29CE000D197E0AE1B091A41
:1013B000B54280414042081A844200D111E14946B9
:1013C000FFF746F9019A0B044243310C050019431B
:1013D0008A4207D90919013D8C4203D88A4201D9B2
:1013E000851E0919881A4946FFF732F909048C4607
:1013F00031046646019A090C4243030031438A4294
:1014000007D90919013B8C4203D88A4201D9831EAE
:101410000919039E891A32002D041D43029F2B04D3
:101420001B0C5A437B439C46280C4643130CB44484
:10143000634478439E4203D980267602B4466044D2
:101440001E0C12041B04120C30189B18814206D388
:1014500002D001231D43CEE6002B00D1CBE661185C
:101460006E1EA14200D2A4E0814200D2C9E000D1A8
:10147000D9E03500EDE701256D420121891A3829AF
:1014800000DD4CE61F2900DC7FE01F235B429A1A37
:101490004346D340202904D04446654A5A449440E8
:1014A00025436A1E954107222B43150000241D4049
:1014B0001A4200D1A1E00F2200241A40042A00D1D0
:1014C00098E01A1D9A429B415B42E41813002202E5
:1014D00000D48FE001230024002523E6B54200D389
:1014E00064E743465A1E009B9C4665441F009D428C
:1014F0009B415B421B19C9188C423AD2884263D87F
:1015000060D0904652E7AA4200D9EAE64346DE0799
:1015100058086B081E43ED07EAE6484600F05AFFFC
:1015200001000200153120321C2900DC1AE64B466E
:10153000083883400025984620E600F04BFF030062
:101540001A00153220301C2A00DC30E65446083BD5
:1015500000229C4035E60F232B40042B00D152E69D
:1015600005235B42AB429B4104355B42ED08984446
:101570004AE68C42C5D1AF42C0D9904616E78A42AE
:1015800000D8EAE6831E0919E7E62A4A28005A44E9
:10159000434695409340C8406A1E954144460343E4
:1015A0002B43CC405A0792D00F221A40042A88D1EC
:1015B0008DE73500814200D04BE7009A934200D07E
:1015C00047E718E6AE429CD902235B429C46009B4B
:1015D000E0449C4665449D429B415B421B19C918EF
:1015E000E4E6154A5A44002A00DC44E701230025BA
:1015F000984409E665076402240BDB081D430023B9
:1016000090E5009E023D7200B242BF417F423C190C
:1016100009190092CEE78024434624031C43240387
:10162000064B240B7EE5009A9A42EAD33500C4E7C4
:101630003E0400001E040000FF030000FF0700003E
:10164000F0B557464E464546DE46E0B598460C0393
:101650004B000600924687B0240B5B0DCF0F002B8A
:101660006CD0DD4A934200D186E0420FE40014437F
:10167000802212041443D94AC5009446634400935F
:10168000002399469B46434642461E03D20F5B0009
:1016900050469046360B5B0D00D178E0CE4A93421F
:1016A0001DD0CE49420F8C4600996344F6008C460B
:1016B000164380229C44120463461643C200002055
:1016C00000930099434601318C4649467B40019383
:1016D0000F2900D97EE0C24B890059588F465246E7
:1016E000009B324300D056E1BB4900268C46634440
:1016F000494600930223194389460220E1E7434605
:1017000001933400150083465B46022B5ED0032B09
:1017100000D1F3E1012B00D018E1002200240025C4
:10172000019B12052243DB071A432800110007B072
:101730003CBC90469946A246AB46F0BD2500054309
:1017400000D141E1002C00D1ADE1200000F042FECB
:10175000010002000B391D2310005B1A3100350017
:1017600008388440D94085400C439E48831A009332
:10177000002399469B4686E70500254300D01CE1DF
:10178000082200930223002491469B467BE75246A1
:10179000324300D10AE1002E00D176E1300000F0A2
:1017A00019FE02000B3A1D2301009B1A524608390C
:1017B000DA408E40164352468A40009B8949181AE7
:1017C00003008C466344002000937AE70024002540
:1017D000814AA5E72F0C2D042D0C2B00110C1204AF
:1017E000120C53439846130028007B439946484304
:1017F0004844834640460B00000C824658467B43D3
:1018000050440293814506D99A4680235B0299464B
:10181000CA4453460293030C9B4643461B040004F0
:101820001B0C9846030043440493330C99462B0049
:101830003604360C7343984633007B439A464B4636
:101840005D435F4343465544180C4019824503D914
:1018500080235B029A465744050CEB1905934346D7
:101860001D042D0C00044019250C2404240C270011
:1018700057436A4390462A003B0C9A464A436143C9
:10188000414451448344884503D980235B029846F0
:1018900042443F040B0C3F0C0904C9192700984629
:1018A0004B4677435C436E435D433B0C9946A4191A
:1018B0004C4442440395A64204D980235B029846D7
:1018C00045440395029B3F045B441E0083428041D4
:1018D00023049846059B3F0C4744984676188E4251
:1018E0008941474440423D18A846934649428A46AA
:1018F000C3449F42BF4180458041039BDA449846E0
:10190000534640427F420743240C934592418A4507
:1019100089413F19DC0D049B75021D43681E8541FA
:101920005346524249420A43BF184744F60D7F02CC
:1019300035435A023C431543FB0100D4C1E0012169
:101940006A080D401543E2071543640826496144BF
:10195000002956DD6B0709D00F222A40042A05D042
:101960002A1DAA42AD416D4264191500E30104D558
:1019700080211E4AC900144061441D4A914200DD85
:1019800024E76207ED08640249051543240B4A0D5C
:10199000C6E60197B8E6104A0320944663444A46D7
:1019A000009303231A43914652468AE6494601238F
:1019B000194389460026012083E60C220093032365
:1019C000050091469B465EE604239946002300935A
:1019D000013300249B4656E6FF07000001FCFFFF91
:1019E0007C9200000DFCFFFFFF030000FFFFFFFEE5
:1019F000FE070000002380240025444A01932403AD
:101A00008EE60120401A382800DD86E61F285BDDBF
:101A10001F2223005242511ACB401900202803D024
:101A20003B4A6244944025436A1E95412A000A437A
:101A300007210D000024154011425BD00F21002426
:101A40001140042953D0111D914292415242A418D1
:101A50000A0023024BD501220024002560E68023E2
:101A60001B031C4209D01E4207D133431C034346CB
:101A70001500240B254A019352E6802212031443D9
:101A80002403224A240B01974AE600F0A3FC03003A
:101A90001A00153220301C2A00DC84E65646083B2A
:101AA00000229E4089E600F095FC010002001531FD
:101AB00020321C2900DC4EE6340008380025844022
:101AC00053E6009B9C4641E71249220061442E00E8
:101AD0008D408A40C640691E8D4132432A43C4402E
:101AE0005307B6D00F2111400429ACD1B1E76507E7
:101AF0006402240BD2081543002211E6802212034F
:101B000014432403014A240B0AE6C046FF070000E1
:101B10003E0400001E040000F8B557464E464546F8
:101B2000DE460400E0B51F0010000B03620F4E00FC
:101B3000CD0F5B0A39031343490AE200440F2143E6
:101B4000C24C91469246C0007A008046760D520DF6
:101B5000FF0FA24200D1B4E001246740BB46BD4262
:101B600000D188E0B41AA446002C00DCB2E0002AC0
:101B700000D1C5E0B54A964200D18BE28022120422
:101B800011436246382A00DDA1E11F2A00DD16E27A
:101B900020270C00BF1ABC400200A0466446B84093
:101BA000E240444614430200501E82416046C14058
:101BB00022435B1A49468C1AA145924152429B1A14
:101BC000984643461B0200D417E143465B025B0A7A
:101BD00098464346002B00D16CE1404600F0FAFBEA
:101BE0000200083A202120004346891A9340C84049
:101BF00094400343964200DD57E1961B711C1F2958
:101C000000DDCBE1202218002600521A94409040BB
:101C1000CE40CB40621E9441304398460026044398
:101C2000630709D00F232340042B05D0231DA342B3
:101C3000A4416442A0441C0043461B0200D4DFE0E0
:101C4000824B01369E4200D1FBE04246804BE408C5
:101C50001A401300710552075B0222431B0B490D0A
:101C60000905ED071943294310003CBC90469946ED
:101C7000A246AB46F8BDB41AA446002C58DD002A93
:101C800000D19EE0714A964200D13BE180221204CD
:101C900011436246382A00DDC1E01F2A00DCBBE1A7
:101CA0000C00203AD44022006446202C04D0402767
:101CB0003F1BB940084380464446611E8C41144393
:101CC000B1E00C0004432AD0BB46BD422DD0614C8C
:101CD000A446B4446446002C5CD0941BA446002E59
:101CE00000D015E14D461D4300D1C3E1651E012C16
:101CF00000D10CE2554EB44200D1F8E1AC460EE101
:101D00000A00024300D136E12200013A012C00D141
:101D1000C6E14E4CA44500D1F4E0944631E70124DD
:101D20006740BB46BD4200D01CE74A4CA446B444C1
:101D30006446002C00D1CFE0941BA446002E00D1B5
:101D40005CE1424EB24200D1ECE1802636043343DE
:101D50006446382C00DDB3E11F2C00DD38E220267C
:101D6000361B1C00B4404F46A0466446E74044463C
:101D70003C434F46B7403E00771EBE413443664663
:101D8000F340C918241884429B415B4298461600D0
:101D900088444EE0304A741C144200D0D6E04A46D3
:101DA0001A43002E00D05BE1002A00D1A5E10A0011
:101DB000024300D0BBE14A465907D2080A43DB0878
:101DC00027E00A00024300D174E12200013A012C0D
:101DD00005D01E4CA44500D194E0944659E74844F0
:101DE000484592415B18984604005242904443464D
:101DF00002261B0200D5C4E0013E630700D011E7B4
:101E00004346B4465907E2080A43DB080F498C45AC
:101E100040D061461B0349051B0B490D20E70143D8
:101E20000C00611E8C414C444C45924152429046FC
:101E3000984443461B02E0D5044B01369E4200D035
:101E40009FE03100002300220AE7C046FF070000A0
:101E5000FFFF7FFF01F8FFFFFE070000002A00D10F
:101E600060E10A0002434DD04A465C07D208224393
:101E70008024DB082403234207D0CE08264204D165
:101E80005D463300C20849070A43510FD200D20809
:101E900049070A431100194300D1C8E18021090311
:101EA0000B431B03D5491B0BDAE6D549B61A0B4089
:101EB0009846B5E6200000F08DFA020018321F2A7D
:101EC00000DC8FE6230008388340002492E60843B4
:101ED0000200501E82416DE6CA4C721C224200D0A4
:101EE000ADE04A461A43002EB8D1002A00D158E18D
:101EF0000A00024300D059E14A465907D2080A4372
:101F0000DB0886E74A465907D2080A43DB08C1E7DF
:101F1000BA4DAA4200D11EE180252D042B43644610
:101F2000382C5DDC1F2C00DDD0E0202567462D1B02
:101F30004E461C00FE40AC4034434E46AE40350099
:101F4000FB406E1EB541C91A2C434EE04A46141A96
:101F5000A1459241524290465F1A3A004746D21B31
:101F60009046120200D58BE04246224300D030E674
:101F7000002300254DE74A465907D2080A43DB08EB
:101F800044E742469E4B61081A4013000122144068
:101F90000C43DA075B089846144341E61A001F3EDB
:101FA000F2401600202903D04022511A8B401C43D6
:101FB000621E944100233443984600261DE70C001E
:101FC000203AD44022006446202C04D040273F1BF6
:101FD000B940084380464446611E8C412243E9E5EE
:101FE0004C4623431C00631E9C41041BA0429B41A2
:101FF0005B42CB1A98465D461600E2E54E461E430C
:1020000000D1AEE0661E012C00D1FDE07B4FBC424A
:1020100000D107E1B4469BE664462022121B0C0067
:10202000944007009040A0466446421E904162469C
:10203000E7404446D1403C4304435B18F3E66F4C11
:10204000A24200D1D5E048445B1848458941494245
:102050005B18DC0740085B08984616000443CCE692
:10206000002A00D082E00A00024340D180230025EC
:102070001B0313E74B07C2081A435D46CB08C5E6AE
:102080004A46841AA0429241CB1A52429B1A984661
:102090005D469EE54A465907D2080A43DB08F9E641
:1020A0004A46141AA14592415B1A52429B1A98461D
:1020B000012686E54A465907D2080A43DB08A5E609
:1020C0004C4623431C00631E9C415BE665461E0094
:1020D000203DEE40202C05D040252D1BAB404C462A
:1020E0001C43A2465446631E9C4134437DE74B0784
:1020F000C2081A435D46CB08CCE60A00024300D171
:1021000036E74B07C2081A435D46CB0881E64A46CC
:10211000841AA0429241CB1A52429B1A98465D46BD
:1021200001264EE54B07C2081A43CB08B2E64A46E1
:10213000141AA14592415F1A5242BA1A90461202ED
:102140006BD54A46841AA0429241CB1A52429B1A3E
:1021500098465D4664E54B07C2081A435D46CB08C6
:1021600098E64B07C2081A43CB084FE60A00024321
:1021700090D04A465C07D20814438022DB08120341
:10218000134208D0CE08164205D1C00849070843BB
:1021900004005D463300610FE2004907D2080A439C
:1021A00078E64B07C2081A43CB0832E648445B186E
:1021B00048459241984652429044434604001B02CF
:1021C00000D41AE642460E4B01261A40904614E609
:1021D00066461F00203EF740202C05D04026361BC7
:1021E000B3404C461C43A2465446631E9C413C43AC
:1021F000C8E511000023002232E5C046FF070000B9
:10220000FFFF7FFFFE0700004A46141884429241F8
:102210005B18984652429044E9E54246224300D179
:10222000A6E6EAE54B07C2081A43CB0832E60022CD
:102230000149130014E5C046FF0700000A0030B54D
:10224000134C530009030500090B00205B0DD20F4E
:10225000A34204DD0F48834202DD0F4BD01830BD8E
:102260008020400301430D48C01A1F2808DD0C4898
:10227000C31AD9400B005842002AF0D11800EEE7EB
:10228000084CC540A446634499400B002B43F2E739
:10229000FE0300001D040000FFFFFF7F3304000069
:1022A00013040000EDFBFFFF70B5002816D0C31724
:1022B000C5185D40C40F280000F08CF8114A121AAE
:1022C0000A2816DC03002E0015339E400B23181A33
:1022D000C54053052D032D0B5B0D03E000240023A7
:1022E000002500261B052B43E4072343300019007B
:1022F00070BD0B38854053052D0300262D0B5B0D5B
:10230000F0E7C0461E04000010B5041E10D000F017
:1023100061F80F4B1B1A0A2811DC0B222100121A3C
:10232000D14015300A035B058440120B5B0D01E0C0
:10233000002300221B0513432000190010BD2200BA
:102340000B3882405B0512030024120B5B0DF1E792
:102350001E0400007047C0468446101C62468C462E
:10236000191C634600E0C0461FB500F00BF90028B9
:1023700001D40021C8421FBD10B500F055F84042FD
:10238000013010BD10B500F0FDF8002801DB002081
:1023900010BD012010BDC04610B500F0F3F80028B4
:1023A00001DD002010BD012010BDC04610B500F0B9
:1023B00077F8002801DC002010BD012010BDC046C8
:1023C00010B500F06DF8002801DA002010BD0120E2
:1023D00010BDC0461C2101231B04984201D3000CF0
:1023E00010391B0A984201D3000A08391B09984288
:1023F00001D30009043902A2105C40187047C0469E
:1024000004030202010101010000000000000000BD
:1024100010B5002903D1FFF7DDFF203002E0081CD2
:10242000FFF7D8FF10BDC046F0B54F464646D6462A
:10243000944691461A03120B184DC0B54C000F0379
:1024400092465A00060080463F0B0120640DC90FDA
:10245000520DDB0FAC420AD0AA4203D0944201D104
:1024600057450DD01CBC90469946A246F0BD3D0094
:102470003543F7D1A242F5D1524665462A43F1D100
:102480000120C845EED1994206D0002CEAD13E4346
:102490003000461EB041E5E70020E3E7FF070000FB
:1024A000F0B54E4645465746DE4604001800E0B5F6
:1024B00016001B031B0B324D0F034A0099464300C5
:1024C000A446B0463F0B520DC90F5B0DC00FAA4288
:1024D00029D0AB4218D0002A2AD13C43A3466542FA
:1024E0006541002B02D14C46264327D0002D15D143
:1024F000814228D002200139084001383CBC904676
:102500009946A246AB46F0BD4D462E432FD1002A38
:10251000EED13C4365426541002DE9D00028EDD164
:1025200001204042EAE73D00254320D19342EBD011
:10253000002BDDD14C462643DAD1DBE75B46002099
:10254000002BDBD0D6E79A420ADCE7DB4F45D1D837
:1025500010D000204F45D1D20029E1D00800CDE7AE
:10256000434258410223404218400138C6E7022046
:102570004042C3E7C445BDD80020C445BED2EBE706
:10258000FF070000F0B54E4645465746DE460400BC
:102590001800E0B516001B031B0B314D0F034A005A
:1025A00099464300A446B0463F0B520DC90F5B0D40
:1025B000C00FAA4211D0AB4214D0002A2FD13C4305
:1025C000A34665426541002B14D14C46264311D1E8
:1025D0005B460020002B17D010E03D00254312D1B0
:1025E00093421CD14D462E430DD1002A04D13C43C9
:1025F00065426541002D0DD1814216D0022001397E
:102600000840013800E002203CBC90469946A246B2
:10261000AB46F0BD0028F7D101204042F4E7002B83
:10262000EAD14C462643E7D1E8E79A4206DD434229
:1026300058410223404218400138E5E79A42E9DB5D
:102640004F45DBD806D000204F45DDD20029E3D02E
:102650000800D9E7C445D1D80020C445D4D2F5E755
:10266000FF07000010B5010000230022002001F048
:1026700025FE10BD70B5074D074C641BA41005D096
:10268000013CA300EB589847002CF9D107F04EF914
:1026900070BDC046389900003C99000070B50C4DE3
:1026A0000C4E761BB61005D0002408CD0134984797
:1026B000A642FAD107F030F9074D084E761BB61046
:1026C00005D0002408CD01349847A642FAD170BD48
:1026D0002499000024990000249900002C990000FE
:1026E000F0B5C64600B50F2A41D903270D003E00BC
:1026F00005430C0003002E402F423DD11500103D34
:102700002D09AC462D01A8468044256867681D60E8
:102710005F60A568E7689D60DF6010341F001033BC
:102720004745F2D165460F230C2401352D01491987
:1027300013404519144222D08C59AC5104369C1BCD
:10274000032CF9D80324043B9B0801339B0022404F
:10275000ED18C918561E002A06D00023CC5C1A00BA
:10276000EC5401339642F9D104BC9046F0BD05000B
:10277000561E002AF1D1F7E70500561EEDE71A00B4
:10278000F6E7C046F0B5050083074AD0541E002A7C
:1027900044D003000322CEB202E00135013C3DD318
:1027A00001332E701342F8D1032C2FD9FF220A4097
:1027B000150215432A0415430F2C35D92700103F65
:1027C0003F093E01B4461E001A00103666441560EB
:1027D00055609560D5601032B242F8D10F260C22B8
:1027E00001373F012640DB193700224217D03E1F38
:1027F000B608B400A4461A001C1D644420C2A242BC
:10280000FCD103240136B6009B193C40002C05D0B6
:10281000C9B21C19197001339C42FBD1F0BD3400C0
:10282000F4E714000300BFE72700E0E70EB400B5AB
:1028300082B003AB04CB8168019300F04DF902B084
:1028400008BC03B01847C0460FB400B5064983B0B2
:1028500004AB086804CB8168019300F03DF903B034
:1028600008BC04B01847C046180000204A424A413C
:10287000802310B55200DB0000F002F810BDC04606
:10288000F0B54746CE4680B51D00584B04001E6883
:102890008846170083B0002E02D0B36B002B6BD09C
:1028A000022F05D0012F00D98CE0002D00DA89E03D
:1028B0002100300002F086FE216B002908D02300A1
:1028C0004033994202D0300003F006F8002323631E
:1028D0000023A36163600C22A35E1A0657D4444A06
:1028E0001340A381022F5DD001AB6A462100300066
:1028F00003F09AFAA3890343A381002D25D0434610
:10290000002B23D0B36B002B2DD0009BAB4230D0DB
:102910008023A2891B0113431BB2A381012F02D183
:1029200001221343A381424619002260226108223A
:10293000656198B21140134222D0C3073FD50023EE
:102940006D420020A360A5611CE0009D280003F0FB
:10295000E3FA8046002838D08022A3891343A3815C
:10296000B36B002BD1D1300002F040FF009BAB4293
:10297000CED10C22A35ED1E7300002F037FF8FE703
:102980000020A16003B00CBC90469946F0BD300019
:10299000216902F0A1FF0C22A35E154A1340A38116
:1029A000022FA1D1002002221343A3810023A360A0
:1029B000230043332360236101236361E2E70020A6
:1029C000A560DFE701204042DCE7009B9946AB426F
:1029D00005D0180003F0A0FA8046002804D1012099
:1029E0000C22A35E4042DEE74D46B5E7180000200A
:1029F0005CF3FFFF024670B50A4392072AD11E4DD1
:102A0000EE0104C808C9541B9443344017D0D0B217
:102A1000D9B2401A2106014310D190B299B2401A9E
:102A2000210401430AD110021902000A090A401ABE
:102A30002102014302D1100E190E401A70BD9A42B4
:102A4000DFD010BA19BA884201D9012070BD002028
:102A5000C04370BD02780B7801300131002A09D0E3
:102A60009A4207D102780B7801300131002A01D057
:102A70009A42EFD0D01A70BD0101010110B5830751
:102A80000AD00300032102E001330B4205D01A787B
:102A9000002AF9D1181A10BD030019680C4A0D4C10
:102AA0008A188A4322420FD15968094A04338A1886
:102AB0008A43224208D15968054A04338A188A4356
:102AC0002242F1D000E001331A78002AFBD1E1E77D
:102AD000FFFEFEFE80808080F0B5DE4657464E4603
:102AE0004546E0B5C1B083468A4691461C000E9328
:102AF00003F092F9036818001893FFF7BFFF5B46D5
:102B00001690002B03D09B6B002B00D137E253466D
:102B10000C21595E534680229B899201134209D1B0
:102B20000A43534651469A81496EC54B0B40514664
:102B30004B6693B21A0749D552461269002A45D00E
:102B40001A2213400A2B4FD030AB239300230024CA
:102B50002593249313930023149315940023C846BC
:102B6000D946D34630AF179319930A9343461B783F
:102B7000002B00D1FEE0444603E063780134002BD3
:102B80003FD0252BF9D14346E51A44453ED1237861
:102B9000002B00D1EEE0631C98460023012014AA0C
:102BA000D37700224042089000204546002140266D
:102BB0009046637882460990203001351A00203A09
:102BC000582A41D89F4C9200A258974651465846E1
:102BD00001F00AFB002801D001F031FA53461A2215
:102BE0009B8913400A2BAFD153460E229B5E002BCC
:102BF000AADB23004A465146584601F0BBFA0A9028
:102C0000C5E04346E51A444500D1B3E043463B6086
:102C1000259B7D605B192593249B069301332493A8
:102C2000072B06DC08370A9B9C46AC4463460A9394
:102C3000ADE75946484623AA04F08AFC002801D093
:102C400000F0C7FC30AFEEE742461093A846002ADA
:102C500001D001F097F9109B002B00D18AE026AE3D
:102C60003370002314AAD377013306930B93534692
:102C70000793002308931293079A02231100194027
:102C80008A46134202D0069B02330693079A842396
:102C9000110019400F91134205D1099B069A9C1A05
:102CA000002C00DD94E0259C14ABDB7F002B11D0C1
:102CB00014AA1F23944663443B6001237B60249B3A
:102CC00001341193013325942493072B01DD00F087
:102CD00086FC08375346002B0ED01CAB3B6002230A
:102CE0007B60249B02341193013325942493072B9A
:102CF00001DD00F07FFC08370F9B802B01D100F035
:102D0000DFFB089B0B9A9D1A002D01DD00F01EFCD5
:102D1000079BDB0500D555E30B9B3E609C467B6023
:102D2000249B64440893013325942493072B00DDEE
:102D3000D1E00837079B5B0706D5099B069A9D1AC9
:102D4000002D01DD00F061FC099B069A934200DA38
:102D500013000A9A94469C4463460A93002C01D0BF
:102D600000F02EFC0023249343461B7830AF002B49
:102D700000D000E7259BDA460693002B01D001F036
:102D80000DF953469B895B0601D501F058F90A9865
:102D900041B03CBC90469946A246AB46F0BD0024EB
:102DA0001A00069123002900BC46303A9D00EB181A
:102DB0005B00D3180A00157801312A00303A0F0061
:102DC000092AF3D9099306992B003D006746F5E6D9
:102DD000259A249B102C01DC01F0D0F81A48390008
:102DE00010254F461190B146060003E0103C083113
:102DF000102C15DD103201330E604D6025922493A6
:102E0000072BF3DD5946380023AA04F0A1FB002864
:102E100000D0DEE3103C259A249B30A9102CE9DC7D
:102E20004E46B9460F0011997C600133A4183960F1
:102E300025942493072B01DD00F008FF083733E7C2
:102E4000FFDFFFFF0493000068940000139B012B39
:102E500001DC00F09DFC01237B60249B01345D1CA0
:102E60003E60259408932495072D01DD00F0B9FEFE
:102E70000837189B01353B60169B24959C4664449B
:102E80007B602594072D01DD00F09EFE08370022AF
:102E9000149815990023FFF76FFA002801D000F06D
:102EA0009FFC139B0136013BE41801353E607B60BB
:102EB00025942495072D01DD00F07CFC08371FAB1D
:102EC0003B60199B01359C4664447B6025942495A6
:102ED000072D00DC2DE75946484623AA04F038FBAD
:102EE000002800D075E3259C30AF23E742461093BD
:102EF000A846002A01D001F074F807230E9C07347D
:102F00009C43220018CA14931594149B159C0E928E
:102F10001D0001226400640828002100E34B524296
:102F200006F0F8F8002801D000F0C0FC01222800CB
:102F30002100DE4B5242FFF72FFA002801D000F0AB
:102F4000B5FC1498159900220023FFF71BFA0028FE
:102F500001D000F04EFF14ABDB7F0F93109B472B8B
:102F600001DC00F0E6FED24E802352469A437D3BC0
:102F700006930B93002307920893129352E058464E
:102F800002F034FCC3E542461093A846002A01D063
:102F900001F02BF853469B0600D4DBE007230E9C80
:102FA00007349C4301339C46A444634622680E9335
:102FB00063680C920D93002B00DAD8E0089B013374
:102FC00001D100F06BFD14ABDB7F52460F938023E1
:102FD0009A4307920C9A0D9B1100194301D100F0FE
:102FE000F6FB079B9A460C9B0D9C002C01D000F031
:102FF0005EFD092B01D900F05AFD27220C9B26A962
:1030000030338B545346079301230B9314AB6F2635
:103010009C466644089B0B9A0693934200DA0692FC
:10302000002312930F9B002B00D125E6069B013352
:10303000069321E60E9A08CA0993002B01DB00F0E3
:1030400028FC099B0E925B420993042352461A43C3
:1030500092462B78B1E52B786C1C06942A2B01D173
:1030600001F05DF81A00A4460024303A6546089441
:10307000092A00D9A2E50C0000236146BC469D0048
:10308000EB185B009B180A00157801312A00303AD2
:103090000F00092AF3D9089321002B003D00674651
:1030A0008CE542461093A846002A01D000F072FF3A
:1030B000804B179353469B0600D429E107230E9CAF
:1030C00007349C43220018CA0C930D940E9252466A
:1030D0000223D20705D50C990D9A0800104300D0A1
:1030E000DBE30022089814A9CA770F92421C4DD046
:1030F00080225146914307910C990D9A0C0014437C
:1031000000D069E2002801D000F0D4FD002B00D0EF
:1031100061E3524601331A400B92524630AE1342DD
:1031200000D177E73021263326AAD15414AB6F267D
:103130009C4666446EE742461093A846002A01D09A
:1031400000F024FF102352461A43924653469B0632
:1031500000D523E75346DB0601D400F085FC0E9C26
:1031600008CC0C93DB170D930E9400D426E70C9932
:103170000D9A00244B4294410C930D942D230898F2
:1031800014AAD3770F932C3B421CB1D1012B00D151
:1031900029E7022B00D176E153460725BA4630AE27
:1031A00006930C9A0D9B5F07D4082900D808274383
:1031B000030038001140B4463031013E3A0031700E
:1031C0001843F0D10C920D93069A574664469246E6
:1031D000D20700D46EE1302900D16BE13023013EEB
:1031E000023C337030AB1B1B0B93534626000793F6
:1031F00010E7109300230E9C14AA40CCA846D37766
:10320000002E01D100F0A0FC089A531C01D100F05F
:1032100069FD0021300003F04DF9821B002801D127
:1032200000F0A3FE14ABDB7F0B920F93D343DB17AD
:103230001A4006920E945346079300230893129364
:10324000F0E6534603439A462B78B6E40E9C52466A
:1032500008CCA8460C9300230D9302331A439246E0
:10326000154A1CAB1A807822124B0E9417931092B9
:10327000022336E74246A846002A01D000F095FE18
:1032800053469B0601D500F0FDFB5346DB0601D5F6
:1032900000F093FC53465B0601D400F08EFC0E9CBC
:1032A0000A9A08CC1A800E9460E4C046FFFFEF7FB4
:1032B000C4920000E4920000307800002B786C2B60
:1032C00001D100F036FC524610242243924674E4A9
:1032D000534633439A462B786FE40E9C109308CCE8
:1032E00026AE3370002314AAD3770133A8460E9478
:1032F00006930B93BBE442461093A846002A01D0E4
:1033000000F05BFEDD4B179353469B0600D5D5E6D8
:103310005346DB0600D48DE30E9C08CC0C930023AF
:103320000E940D93D3E65246109310231A43A846E9
:10333000924653469B0600D494E207230E9C073422
:103340009C43220018CA0C930D940E920123C8E6E8
:103350005246109310231A43A846924653469B06A2
:1033600000D474E207230E9C07349C43220018CA41
:103370000C930D940E920023B3E601222B2190466C
:103380002B78FFF71AFC5346082213439A462B78F2
:10339000FFF713FC802352461A4392462B78FFF71F
:1033A0000CFC012352461A4392462B78FFF705FC8A
:1033B0002B78002901D0FFF700FC01222031904634
:1033C000FFF7FBFB109B652B00DC3FE5149815997C
:1033D00000220023FEF7D0FF002800D159E1A84BBE
:1033E00001343B6001237B60249B259408930133C7
:1033F0002493072B01DD00F045FC08371D9B139A31
:10340000934200DB3FE2189B3B60169B9C467B602F
:10341000249B64440893013325942493072B00DDF7
:103420007CE30837139B5D1E002D00DC82E4954A87
:10343000249B1192102D01DC00F016FC9446102103
:10344000614422008A4610264C4605E00837103DAC
:10345000102D01DC00F006FC5146103201333960BA
:103460007E6025922493072BF0DD5946200023AA85
:1034700004F06EF8002800D0ABE0259A249B30AF12
:10348000E5E7079B9A460C9A0D9B0F20BC46179DBB
:1034900030AE01001140695C1F071409013E27434B
:1034A000317019090B0039003A001943F1D1674610
:1034B0000C920D9330AB9B1B0B9353460793A9E5DE
:1034C000099B069A9D1A002D01DCFFF71AFC6D4A34
:1034D000249B1192102D26DD1022924622004C468C
:1034E000B1465E4603E0103D0837102D17DD6649F2
:1034F0001032396051460133796025922493072BAD
:10350000F1DD3100200023AA04F022F8002800D0C9
:10351000BCE0103D259A249B30AF102DE7DCB3466C
:103520004E46A1461400119A6419103201333A60D4
:103530007D6025942493072B00DDAFE3089B0B9A55
:1035400008379D1A002D01DCFFF7E2FB4D4A249B52
:103550001192102D26DD1022924622004C46B146D3
:103560005E4603E0103D0837102D17DD4649103246
:10357000396051460133796025922493072BF1DDA0
:103580003100200023AA03F0E3FF002800D07DE0F3
:10359000103D259A249B30AF102DE7DCB3464E46F4
:1035A000A1461400119A6419103201333A607D600B
:1035B00025942493072B00DD3DE10837FFF7A8FB96
:1035C0005946484623AA03F0C3FF002801D1FFF75C
:1035D000C9FBDA46FFF7D5FB079A9246D6E559466E
:1035E000484623AA03F0B4FF0028F2D1259C30AF4F
:1035F000FFF770FB5946484623AA03F0A9FF0028AD
:10360000E7D1259C30AFFFF777FB249B102D01DC21
:1036100000F0CFFC1B49220010260C00119103E0A2
:10362000103D0837102D14DD103201333C607E60F0
:1036300025922493072BF3DD5946484623AA03F02D
:1036400087FF0028C5D1103D259A249B30AF102D4F
:10365000EADC1400119A6419013324C725942493D9
:10366000072B01DCFFF770FB5946484623AA03F0FD
:103670006FFF0028ADD1259CFFF766FBD0920000BC
:10368000009300006894000078940000B246FFF7B1
:1036900078FB1D98002800DCB0E2139B1D00129BF4
:1036A0009D4200DD28E2002D0CDD249B6419089367
:1036B00001333E607D6025942493072B01DD00F0EB
:1036C00030FC0837EB43DB171D40129B5D1B002DC0
:1036D00000DD48E21D9B139A934200DB10E2189A2A
:1036E0003A60169A94467A60249A644408920132A9
:1036F00025942492072A00DD81E308371399129A52
:10370000CB1A1D008A1A934200DD1500002D0FDD33
:10371000129A64199446249A6644089201323E60D3
:103720007D6025942492072A01DD00F007FC08370C
:10373000EA43D21715405D1B002D01DCFFF7FAFAB2
:10374000D54A249B1192102D00DC8DE29446102165
:10375000614422008A4610264C4604E00837103D9A
:10376000102D00DC7EE251461032013339607E605C
:1037700025922493072BF1DD5946200023AA03F05C
:10378000E7FE002800D024E7259A249B30AFE6E727
:103790000123079A134201D0FFF75DFB7B60249B56
:1037A00001345D1C3E60259408932495072D01DCAF
:1037B000FFF784FB5946484623AA03F0C9FE0028B8
:1037C00000D006E7259C249D30AFFFF778FB089BCF
:1037D000002B00D068E3002330AE08930B9319E46C
:1037E000139B5E1E002E01DCFFF769FBAA4B1193B1
:1037F000102E00DC69E210229C466244924604E0EE
:103800000837103E102E00DC5FE253463B60102369
:10381000103401357B6025942495072DF0DD594641
:10382000484623AA03F094FE002800D0D1E6259C48
:10383000249D30AFE5E75946484623AA03F088FEA9
:10384000002800D0C5E6259C30AFFFF761FA53464B
:10385000DB0600D4FBE00E9C08CC0C9300230E94F6
:103860000D933EE45346DB0600D5E0E053460E9C44
:103870005B0600D4DCE008CC9BB20C9300230E94D2
:103880000D9301332DE4079BDB0701D4FFF752FAB8
:10389000B9E52B780E92FFF790F930211CAA117030
:1038A0001099517052461A4392461AE41498159989
:1038B00002000B0005F02EFC002800D0F2E3089B6C
:1038C000013300D14AE32023109A9A430B92472AEE
:1038D00000D1C8E2802352465B001A430792149B32
:1038E000159C251E00DAA4E2149B069300230F9377
:1038F000109A662A00D11FE2462A00D11CE220233A
:103900009A43452A00D1D3E221AB04931EAB039323
:103910001DAB02930223089C009348462B00069A95
:10392000019400F0BFFD109B0600672B01D000F052
:1039300009FC53463419DB0700D513E2219B9B1B7E
:1039400013930B9B472B01D000F0FEFB1D9B1293A2
:10395000DA1C03DB089A934200DCD0E2109B023BA6
:1039600010932C21129A14AB5B181099541E1970E5
:103970001D942B23002C02DA01240233A41A2D21DA
:1039800014AA52181370092C00DC78E314AA3B2304
:103990009446634408961E0020000A210696FCF710
:1039A0003DFE013E3031200031700A21FCF70BFE54
:1039B00025000400632DEFDC14A93B228C46069BF6
:1039C0003034023BE4B26244089E1C70934200D340
:1039D000B2E32E22624400E01C7814A83B21844606
:1039E00001336144147001328B42F5D13D23069AB4
:1039F00063449B1A2E22624494461FAA63449B1A76
:103A00001993139919980B00844663441A000B9379
:103A1000012900DC52E3169B0B9A9C466244D34377
:103A2000DB170B921A40002306921293C6E10E9CFC
:103A300008CC22E753460E9C5B0600D46DE408CC0C
:103A40009BB20C9300230E940D93FFF740FB53465B
:103A50000E9C5B0600D4FFE608CC9BB20C930023BF
:103A60000E940D93FFF73DFB53460E9C5B0601D46D
:103A7000FFF776FB08CC1BB20C93DB170D930E946B
:103A8000FFF799FA0E9C0A9A08CC1A60D2175A606E
:103A90000E94FFF76BF8C0466894000014ABDB7F10
:103AA0000F930C9B0D9C002C01D1FFF7A2FA0C9CEC
:103AB0000D9D30AE200029000A220023FDF7ECF90D
:103AC000013E303200232000290032700A22079480
:103AD0000695FDF7E1F9069B04000D00002BE9D1E6
:103AE000079B092BE6D830AB9B1B0B9353460C94DA
:103AF0000D950793FFF78EFA1D1E00DDD5E5E1E574
:103B0000079AD20700D5EAE5139A1299D31A1D0035
:103B1000561AB34200DC0BE6350009E65946484622
:103B200023AA03F015FD002800D052E5259C30AFF4
:103B300078E4534603439A4601352B78FFF73DF866
:103B4000A8461093FFF7F5FB089B0B93062B00D9B3
:103B500079E10B9BE24E06930E94FFF788F8A84696
:103B60001093FFF7FBFBDF4A249B1192102D00DC22
:103B700033E194461021614422008A464C46B14606
:103B80005E4604E00837103D102D00DC21E151466F
:103B90003960102110320133796025922493072B6C
:103BA000F0DD3100200023AA03F0D2FC002800D071
:103BB0006CE5259A249B30AFE5E70E9C0A9A08CC69
:103BC0001A600E94FEF7D2FF5946484623AA03F026
:103BD000BFFC002800D0FCE4259C249D30AFFFF7FB
:103BE00056F95946484623AA03F0B2FC002800D0F3
:103BF000EFE4259C249D30AFFFF73BF9BA4B01342D
:103C00003B6001237B60249B25940893013324931C
:103C1000072B00DD00E10837002869D10123079A4E
:103C20001340139A134301D1FFF784F8189B3B60AC
:103C3000169B19197B60249B2591089301332493CB
:103C4000072B00DD16E13A00083263E0594648468A
:103C500023AA03F07DFC002800D0BAE4259C30AFF5
:103C6000FFF722F8A1461400119A641910320133AB
:103C70003A607D6025942493072B01DCFFF759F807
:103C8000FFF729F95946484623AA03F061FC0028AA
:103C900000D09EE4259C30AFFFF7B0FB5946484664
:103CA00023AA03F055FC002800D092E4259C30AFF5
:103CB000FFF727F8012B00D1F6E0022B01D1FFF727
:103CC000E0FB079B9A46FFF767FA119BA419103394
:103CD00001353B607E6025942495072D01DCFFF7BC
:103CE000EDF867E53000FEF7C9FE0200FFF79AFA2B
:103CF000189B3B60169B19197B60249B25910893A8
:103D000001332493072B00DDB4E03A000832002889
:103D100000DA6EE113980133441816605060259460
:103D20002493072B01DDFFF7D6F808321700FFF7C1
:103D300001F86E4EFFF718F921AB04931EAB039305
:103D40001DAB02930323089C009301942B0048466B
:103D5000069A00F0A7FB060033780419302B75D0C3
:103D60001D9BE4180023002229000698FEF704FB9F
:103D70002300002809D1219BA34206D230215A1CDE
:103D800021921970219B9C42F9D89B1B13930B9B8A
:103D9000472B00D1DAE5109B662B00D0D4E11D9AA9
:103DA00001231292002A00DCA4E151460B4008993D
:103DB0000B4300D08FE1129B06930B930F9B002BBC
:103DC00000D195E02D2314AAD37700230893FFF7A1
:103DD0002DF9B3464E46A1461400119A64191032CB
:103DE00001333A607D6025942493072B50DC08371B
:103DF00070E42D2314AAD3770F93FFF7AFF8594639
:103E0000484623AA03F0A4FB002801D0FFF7E1FBFA
:103E10001D9B259C30AF71E45946484623AA03F008
:103E200097FB002801D0FFF7D4FB1D98259C30AFED
:103E3000F2E68022120694460693230063441D0096
:103E40002D230F9354E506230B9382E600220023D3
:103E500029000698FEF790FA002881D10123089ADC
:103E60009B1A1D937DE7089B002B00D032E50133A0
:103E700008932FE55946484623AA03F069FB00281A
:103E800001D0FFF7A6FB1D982599249B30AA3EE799
:103E90005946484623AA03F05BFB002801D0FFF7F0
:103EA00098FB259C30AF15E4079B9A46FFF7A5F8D1
:103EB000089B48465C1C21AB04931EAB03931DABCF
:103EC00002930223069A009301942B0000F0EAFA71
:103ED0000600109B472B00D12BE5341942E7C04662
:103EE000F89200006894000000930000C092000067
:103EF00014ABDB7F0F9300230893FFF793F8129B1B
:103F000013998B425DDB5246D20700D5C4E01A00FC
:103F1000DB431100DB171940672306910B921093C6
:103F20004CE75946484623AA03F012FB002801D06B
:103F3000FFF74FFB259C30AFFFF7C4FB59464846BF
:103F400023AA03F005FB002801D0FFF742FB139BD7
:103F50001D9A259C9B1A30AFFFF7EAFB2023109A8D
:103F60009A431A3B0B920893B4E414ABDB7F0E9494
:103F70000F93089B06930B93FFF75DF9744911911A
:103F8000FEF751FF14ABD977FEF765FE14ABD97776
:103F9000FFF7D8F814ABD977FFF78AF851464846AF
:103FA00023AA03F0D5FAFEF7ECFE14ABD977FFF79E
:103FB00067F9674A1192FFF74DFB14ABD977FFF70A
:103FC000A1F9169B139A9C46129B62440B92002BFC
:103FD00000DC89E0D343DB171A4067230692109375
:103FE000ECE614ABD977FEF788FF14ABD977FEF770
:103FF000D1FF4542103000DBA1E05548102411905C
:10400000103007004846B146060003E00832103D74
:10401000102D19DD10310133176054602591249360
:10402000072BF3DD5946300023AA03F091FA00284C
:1040300001D0FFF7CEFA2599249B30AAE7E70123A8
:104040005B420A93FEF7A3FE30004E46814611986C
:104050004919103001331060556025912493072BC6
:1040600000DCF1E55946484623AA03F071FA00281E
:1040700001D0FFF7AEFA2599249B30AA4AE62E21FB
:10408000302314AA521813702F2214AB9B1830340B
:104090001C7004231993B4E4169B129A9C46624444
:1040A0000B9297E7159B002B34DB14ABDB7F0F9350
:1040B000109B472B2BDD274EFEF756FF0123514661
:1040C0001940129151460B4200D0A4E4D343DB17B0
:1040D0001A40069272E6169B9C46624410008C467B
:1040E000844462460B92F1E70B9B129A981A421C89
:1040F0000B926FE752461340089A134303D10123F2
:1041000006930B935AE6169B9446581CE8E7124E0A
:10411000FEF72AFF2D2314AAD3770F93C8E70E9A30
:1041200008CA0893002B02DA01235B4208936B78DC
:104130000E92069DFEF741FD0223199361E40448A7
:10414000119084E7089CC4E61D9B1293FFF709FCBD
:1041500068940000CC920000C892000010B50400E2
:104160001300034A10680A002100FEF7B5FC10BDD9
:104170001800002070B5060002201A4CA5440C005F
:104180008989814368468181616E1991E189C18184
:10419000E16930000791616A09911AA900910491BF
:1041A0008021C90002910591002106916946FEF720
:1041B00093FC051E0CDA6B469B895B0603D54022F7
:1041C000A3891343A38128008D23DB009D4470BD88
:1041D0006946300001F0F6F90028ECD001256D4267
:1041E000E9E7C04698FBFFFF334B70B50500186840
:1041F0000C00002802D0836B002B3DD00C23E25E24
:10420000A38919070DD52169002915D0D80724D510
:104210000020A06060694042A0610020002924D0F5
:1042200070BDD90640D55B0729D4216908231A43FC
:10423000A28193B20029E9D1A02080268000B60097
:104240001840B042E2D02100280001F01DFE0C23EE
:10425000E25EA3892169D807DAD400209D0700D443
:104260006069A06000200029DAD11B06D8D5402360
:104270001A43A2810138D3E701F0B8FABEE7216BF7
:1042800000290AD023004033994204D0280001F0CD
:1042900023FB0C23E25E0023236324239A430023A1
:1042A000216963602160C1E709232B60402301205D
:1042B0001A43A2814042B3E718000020F0B5C64679
:1042C00000B51F4C82B024680194A424019D6400B1
:1042D0002D59002D2BD06C681F2C2EDC002809D105
:1042E0000020631C0234A4006B60615102B004BC66
:1042F0009046F0BD8827A600AE19F2510137FF376E
:10430000BC460122AC446746A2403F689046174332
:104310006246176084277F00F3510228E0D12B000A
:1043200040468D33FF331A6810431860D8E7019D6B
:10433000019E4D35FF353551CDE701204042D5E78F
:10434000BC920000034B10B5002B02D00248FEF7D0
:1043500089F910BD0000000075260000F0B5454643
:10436000DE4657464E46E0B503690D6985B0804686
:104370000A000191AB4200DA91E0142141448C46DD
:10438000013D1432AB00D618634403931B680091BF
:104390009A46336850465F1C39000292FCF728F9B0
:1043A0000400BA453CD30023002118008C46A946DE
:1043B000009F029A08CA1904090C61431B0C63434D
:1043C00009180D0C5D193B6809041B041B0C6344A0
:1043D000090C591A3B68280C2D042D0C1B0C5B1B77
:1043E0000D145B1909041D14090C1B040B43AC4686
:1043F00008C79642DED2039B4D461A680392002AF4
:104400000ED1009A043B934208D9009A03E0043B82
:10441000013D934202D919680029F8D043461D6135
:104420004046019902F0D0FB002830DB0023013424
:104430001F00A446009902980B6810C81A04120CB9
:10444000D7192204120CBA1A1B0C270CDB1B1714E9
:10445000DB1912041F14120C1B04134308C18642FB
:10446000EAD2009A64469446AB0063441968002976
:104470000DD1043B934208D9009A03E0043B013D6F
:10448000934202D919680029F8D043461D612000E3
:1044900005B03CBC90469946A246AB46F0BD002014
:1044A000F6E7C046F0B557464E464546DE46140090
:1044B000E0B51D00016C9BB0824604940595279ED3
:1044C000002909D00123426C93404A608B6002F0BE
:1044D000B3F80023524613642F1E00DA09E20023CA
:1044E0003A003360C34B1A409A4200D10CE2049A5E
:1044F000059B10001900002200230A900B91FDF784
:104500003BFF002812D00123269A1360289B002B22
:1045100000D138E3B8481860431E039303981BB0DA
:104520003CBC90469946A246AB46F0BD18AB019301
:1045300019AB009350460A9A0B9B02F0B3FC3E0D58
:10454000834600D0F2E1189B9846199B43441E0015
:10455000AA4BF318202B01DC00F025FC4022380088
:10456000D31A9840A64BF218D4402043FDF7CCFE56
:104570000123A44C013E09190F930022A24BFDF721
:10458000CBFAA24AA24BFDF75BF8A24AA24B04F079
:1045900057FA040030000D00FDF786FE9F4AA04B3D
:1045A000FDF74EF802000B002000290004F048FA45
:1045B00004000D00FDF742FE0022070006900023D4
:1045C00020002900FDF7DEFE00280AD03800FDF7A4
:1045D0006BFE2B002200FDF7CFFE434258413B1AF1
:1045E0000693069C162C00D9AAE20A980B998D4BCB
:1045F000E2009B181A685B68FDF7C4FE002800D132
:1046000078E200230E9343469E1B00230C93330055
:10461000013C0694013B089300D59CE2069B002BCD
:1046200000DB71E2069B0C9A0993D21A0C925A4253
:1046300000230693249B91460124092B00D971E2A3
:10464000052B02DD0024043B2493249B042B01D181
:1046500000F0E8FC052B01D100F082FC022B00D019
:104660007FE200230D93259B002B01DC00F085FCED
:104670001D0014930793002352465364172D01DC49
:1046800000F0EAFE012204335B0018001430110030
:104690000132A842F8D953465964504601F0A4FFAC
:1046A0000390002801D100F0C9FE5346039A1A6412
:1046B000079B0E2B00D966E1002C00D163E109981D
:1046C000002801DC00F00FFD0F210200554B0A40CD
:1046D000D2009B1806111C685D68C30501D500F067
:1046E00093FC0A9A0B9B1092119302239846002E7A
:1046F00011D04D4F0123334209D09C463A687B6864
:1047000020002900E044FCF79BFF04000D00761018
:104710000837002EEED11098119922002B00FCF7DB
:10472000A7FC06000F000E9B002B09D000223000D2
:1047300039003E4BFDF726FE002801D000F0F8FDC1
:104740004046FDF7B1FD32003B00FCF779FF002247
:10475000374B04F075F9374A0B00944663441290C6
:1047600013911393079B002B01D100F071FC099B5F
:104770001593079B10930D9B002B01D100F052FD68
:10478000109B00205A1E274BD2009B181A685B68AA
:104790002949FCF76DFC129A139BFDF7BDF91290A5
:1047A000139130003900FDF749FD1690FDF77CFDAF
:1047B00002000B0030003900FDF7AEF9039B169E96
:1047C0005A1C303604000D0090461E7002000B008B
:1047D00012981399FDF7EAFD002801D000F007FEBA
:1047E0004B46002717935B46BB46129E139F1693BA
:1047F0005AE0C0460000F07F019300003204000040
:1048000012040000000010FE0000F83F61436F63D7
:10481000A787D23FB3C8608B288AC63FFB799F50D9
:104820001344D33F78950000509500000000F03FFE
:1048300000001C400000C0FC0000E03F01239C463B
:10484000109BE3449B4501DB00F0D6FD00223000C5
:104850003900CE4BFCF7F4FE0022CC4B06000F00D3
:1048600020002900FCF7ECFE0D000400FDF7E6FC3B
:104870008146FDF719FD02000B0020002900FDF71D
:104880004BF90123040048465A469C46039B3030AE
:10489000985432003B0020000D00E044FDF772FD0B
:1048A000002801D000F0A1FD22002B000020B84913
:1048B000FDF732F932003B00FDF764FD0028BDD062
:1048C000169B42469B46159B0399099303E08A4237
:1048D00001D100F05DFD1400013A1378392BF6D0B8
:1048E00090460133DBB242461370099B01330993B2
:1048F0003BE201236F007F083A003360A54B059728
:104900001A409A4200D0F2E5269AA34B13603A036C
:10491000120B14431AD1289B002B01D100F08AFD01
:104920009E4B03930833289A1360F7E50A9B0B9C70
:10493000974A180023031B0B1A43994B11009C46FE
:10494000189B6644984600230F9316E6289B002B7D
:1049500000D001E3934B0393E0E553460D9A002109
:1049600050465A6401F040FE0390002801D100F047
:1049700065FD5346039A1A64002301222593013BE7
:1049800014930D920793199B002B00DA89E0099A82
:104990000E2A00DD85E0844BD2009B181E685F68FC
:1049A000259B002B1CDA079B002B19DC079B002B97
:1049B00000D06CE3002239007C4B3000FCF740FE55
:1049C0000B0002000A980B99FDF7E6FC0023002774
:1049D0009946002800D1E8E2259B039DDC43ECE2E8
:1049E00032000A9C0B9D3B0020002900FCF740FB95
:1049F000FDF724FC8146FDF757FC32003B00FCF735
:104A00001FFE02000B0020002900FDF785F8039A25
:104A1000531C98464B4630331370079B012B00D133
:104A2000BDE3013A012304925246C24606929846DB
:104A300023E001239C4632003B0020002900E04493
:104A4000FCF716FBFDF7FAFB8146FDF72DFC320063
:104A50003B00FCF7F5FD02000B0020002900FDF7EC
:104A60005BF801239C464B464446049A3033135569
:104A7000079BE244984500D18EE30022434BFCF7AC
:104A8000DFFD0022002304000D00FDF775FC002867
:104A9000CFD0069BD0469A46099B444601330993E2
:104AA00063E10D9A002A00D184E0249A012A00DCF7
:104AB000F1E2079B5D1E4B46A94500DBA2E2069A88
:104AC000EB1A94469C446346A946002506930C992C
:104AD000079BCC1A002B07DB089A9C4610000C00A1
:104AE0006044614408900C910121504601F0A4FEFD
:104AF000070062E043469E1B3300013B089300D54C
:104B000025E300230E930C93069B089A9C46099379
:104B1000002311009946249B614401240891092B2C
:104B200000D88DE5012200230D92023A24930792CA
:104B30002593002352465364079B00211493ACE550
:104B400001230E9343469E1B00230C933300013B2D
:104B5000089300D462E501239B1B0C930023089368
:104B60005CE500230D93249B032B00D0F5E6099A06
:104B7000259B94466344149301331D1E079300DD67
:104B800079E5012577E50A4B0393C7E4000024404B
:104B90000000F03F0000F07F0F2700008C94000021
:104BA00001FCFFFF8894000078950000000014408D
:104BB000009300004D4600270C9C002C0DDD089A48
:104BC000002A0ADD2300944200DD02E20C9AE41A76
:104BD000D21A0C92089AD31A08934B46002B1BD07A
:104BE0000D9B002B00D1B0E1002D10DD39002A0013
:104BF000504601F00FFF5A4601000700504601F0F1
:104C000031FE06005946504601F016FDB3464B46AC
:104C10005A1BA94500D099E10121504601F00CFE34
:104C2000069A8146002A00DDC3E0249B0025012B63
:104C300000DC98E1069B0120002B00D0C3E01F237D
:104C400008991A008C4660440240034200D19DE05E
:104C500001339B1A042B01DC00F0F7FB1C239B1A89
:104C60000C9AE41894469C4462468C469C446346E5
:104C70000C9208930C9B002B05DD59461A005046F8
:104C800001F024FF8346089B002B05DD49461A00EE
:104C9000504601F01BFF81460E9B002B00D03AE1ED
:104CA000079B002B00DC20E10D9B002B00D0A2E035
:104CB000099B01330993039B079A5D1E4B46A84647
:104CC000B946554601245E4692461F0007E0310072
:104CD00000230A22280001F0B9FC06000134390043
:104CE0003000FFF73BFB4346303018555445EEDBB0
:104CF0003B004F469946079BB346AA4601240690BF
:104D0000002B00DD1C00039B00269C466444594692
:104D10000122504601F0DAFE4946834601F054FF75
:104D2000002800DCD2E1651E2A782B00039906E0FA
:104D3000013BA94200D1C2E11A782C00013D392A79
:104D4000F6D001322A704946504601F075FC002F1A
:104D50000BD0002E05D0BE4203D03100504601F0EA
:104D60006BFC3900504601F067FC5946504601F093
:104D700063FC0023099A2370269B1A60289B002B52
:104D800001D1FFF7CBFB1C60FFF7C8FB1C230C9A7B
:104D9000E41894469C4462460C92089A94469C44BB
:104DA0006346089366E720222000D31A9840FFF755
:104DB000DDFB0100504601F02DFE249B8146012BB6
:104DC00000DC08E100254B461B6903339B004B4484
:104DD000586801F0E7FC2023181A30E70023390057
:104DE0000A22504601F032FC149B0700002B00DC25
:104DF0000EE309960793002C05DD3900220050468A
:104E000001F064FE0700B846002D00D0E4E1079AE7
:104E1000039B94461D00013B9C4463460893012379
:104E20002E005D46CB46049A1A4007925946280048
:104E3000FFF794FA0300390030330C9028000693F2
:104E400001F0C2FE594604004246504601F0D8FE29
:104E5000C36881460100002B3BD1280001F0B4FE5D
:104E600049460490504601F0E7FB049A249B134303
:104E7000079A134300D1A0E2002C00DA6AE1249BD8
:104E80001C43079B1C4300D164E1049B002B00DD05
:104E90003CE2069A741C3270089A964200D13FE2B6
:104EA000290000230A22504601F0D0FB0023050010
:104EB0000A2239005046474511D001F0C7FB414650
:104EC000070000230A22504601F0C0FB260080465E
:104ED000ACE7504601F0B0FB01230493CCE701F0AE
:104EE000B5FB260007008046A0E7249B022B4BDC85
:104EF0000D9B002B00D07EE749465846FFF72EFA5F
:104F00000300039A303306931370099B0026013384
:104F1000541C0993FBE64946584601F055FE00280B
:104F200000DBBDE6099B59460A2250465E1E00235F
:104F300001F08CFB0D9B8346002B00D04EE7149BA9
:104F4000002B00DC5EE20793B5E64A465946504620
:104F500001F060FD83465FE6AA4B03930333E2E46E
:104F600001230D9303E60499059A002900D061E618
:104F70001300120300D05DE637E001230793259369
:104F8000D7E5149B09960793079B002B00D023E5D8
:104F900049460522504601F059FB8146010058461A
:104FA00001F012FE002800DC16E5039A31231500FB
:104FB000099C1370531C013403934946504601F079
:104FC0003BFB631C0993039C0395002F00D0C8E6AC
:104FD000CBE61300FAE5049B002B00D0F2E604991F
:104FE000059A1300120300D0ECE6874A002513420D
:104FF00000D11FE60C9B013501330C93089B013354
:10500000089317E65D1B62E5804B0E401A6A5B6AE7
:105010000A980B99FCF72CF80323109011919846ED
:10502000FFF765FB01230D93FFF71DFB4046FDF7DE
:105030003BF932003B00FCF703FB0022744B03F00A
:10504000FFFC744A0B00944663441290139113932F
:10505000002230003900704BFCF75EFD129E139F5A
:1050600032003B0004000D00FDF7A0F9002800D03D
:105070009FE1802000068446390061440B00320025
:1050800020002900FDF77EF9002800D17BE40023F1
:1050900000279946A0E40F9A002A00D132E15F4A26
:1050A00094466344089A4D4694469C44624608924E
:1050B0000C9A94469C44634614000C9314E53123E7
:1050C000039A1370099B013309933CE6002803D12E
:1050D000069BDB0700D526E623001C00013B1A785F
:1050E000302AFAD02FE6099B002B00D14AE10A981A
:1050F0000B995C420F234A4A2340DB00D3181A68FD
:105100005B68FCF79DFA241106000F00002C00D10B
:1051100086E1022210961197002317003B4D0122D1
:10512000224205D02A686B68FCF78AFA012301370E
:1051300064100835002CF2D1B846109E119F002B48
:1051400001D1FFF7F0FA06000F00FFF7ECFA002399
:105150000E9300E5049BD946AB463500002B12DDCB
:1051600059460122504601F0B1FC4946834601F000
:105170002BFD002800DC2AE1069B392B00D10EE133
:105180000C9B31330693069B6C1C2B70099B3E00D5
:10519000013347460993D6E5069BD0469A4602005E
:1051A0000B0003F04DFC32003B0004000D00FDF746
:1051B000FDF800280CD132003B0020002900FDF74B
:1051C000DBF8002800D167E44B46DB0700D463E43A
:1051D00042460399FFF77FFB5046796801F004FAD5
:1051E000041E00D120E139003B690C319A1C920069
:1051F0000C30FDF775FA01222100504601F066FCE3
:10520000804604E6889400000000F07F509500007E
:1052100000001C400000C0FC0000144033040000EB
:1052200078950000109B8E49013BDB00C918086887
:105230004968129A139BFCF703FA129013913000FD
:105240003900FCF7FBFF1690FDF72EF802000B006B
:1052500030003900FCF760FC039A0D00511C8846B1
:105260001100169E109B303616708C461A00624450
:10527000040046461092012B1DD0109B9846002238
:10528000784B20002900FCF7DBF90D000400FCF747
:10529000D5FF0700FDF708F802000B0020002900E9
:1052A000FCF73AFC30373770013604000D00B0458A
:1052B000E5D1109B9846129E139F00226A4B300046
:1052C000390003F0BDFB22002B00FDF75BF800283E
:1052D00000D084E032003B0000206349FCF71CFC56
:1052E00022002B00FDF762F8002801D1FFF74BFBED
:1052F00043461C00013B1A78302AFAD0159B013333
:10530000099332E53623189A9B1ACBE6069BD946B9
:10531000AB463500392B42D0069B741C013334E771
:10532000099BD94601333E00AB4647460993EEE45C
:10533000079B002B00D179E6149C002C01DCFFF7C1
:1053400022FB099B0022013B300039001593454B9D
:10535000FCF776F9060040460F000130FCF7A4FF89
:1053600032003B00FCF76CF90022404B03F068FB75
:105370003F4A0B0094466344129013911094139388
:10538000FFF7F9F902230A9E0B9F9846FFF7CBF926
:10539000099B9046013309933123FFF7A4FA39237F
:1053A0002B70099B3E000133474639226C1C099340
:1053B000BBE4002300279946F7E5069BD946AB4698
:1053C0003500392BEBD0002C00DDD9E6DBE60028D8
:1053D00000D0D8E6069BDB0700D5CDE6D3E6159BCB
:1053E000424603990993FFF776FA169B9B46159B55
:1053F000444601330993B8E4179B9946169B9B4694
:10540000FFF7C1FA249B022B00DDBAE5099673E58C
:10541000249B022B00DDB4E5149B09960793EAE474
:1054200002239846FFF77FF90022124B12491348D6
:1054300002F058FF124B0393FFF770F8D5210022BA
:105440000C4B0E48490002F04DFF042B01D1FFF731
:1054500011FC3C239B1A9AE40021FFF71EF9C04679
:1054600078950000000024400000E03F00001C4050
:105470000000C0FC98940000EA020000AC94000018
:105480008C940000F0B5C6460C0000B5A289804699
:105490000C23C95E13074CD4802362681B010B43A5
:1054A000A381002A66DDA66A002E3ED04246414610
:1054B000156800220A609AB2DB0460D4012300223E
:1054C0004046E169B047431C68D0A289A66A5307E9
:1054D00006D56368C01A236B002B01D0E36BC01A9A
:1054E00000230200E1694046B047431C49D14346CE
:1054F0001B68002B45D01D2B01D0162B57D1A3893B
:105500002F4A1340A381002363602369236043462D
:10551000216B1D60002908D023004033994202D03E
:10552000404600F0D9F900232363002004BC9046D4
:10553000F0BD2669002EF8D0236826609D1B00234D
:10554000920700D16369A360002D04DCEDE73618F3
:105550002D1A002DE9DD2B0032004046E169676A13
:10556000B8470028F3DC40220120A38940421343BE
:10557000A381DBE7E26B002A00DD94E7D5E7206D2D
:10558000A5E7A3890E4A13400022626022691BB27C
:10559000A3812260DB04BAD52065B8E743461B68C7
:1055A000002B00D191E71D2B06D0162B04D04022F2
:1055B000A3891343A381B9E7434600201D60B5E7E3
:1055C000FFF7FFFF70B504000D00002802D0836BC9
:1055D000002B09D00C22AB5E0020002B03D0290049
:1055E0002000FFF74FFF70BD00F000F9F2E7C04662
:1055F000010010B5002804D0054B1868FFF7E2FF42
:1056000010BD044B0449186800F0E0FBF8E7C04601
:1056100018000020BC920000C55500000020704713
:1056200010B5024900F0D2FB10BDC046B1830000A6
:10563000F0B5D6464F464646304BC0B5C363B82397
:10564000002403229B00C45004334568C250083331
:10565000C218043BC2500600042328006C662C606C
:105660006C60AC60EB602C616C61AC610822002165
:105670005C30FDF787F8224B224F9A462B62224B73
:10568000EF6299466B62214BED61AB62B56898465B
:1056900028001F4B6C662C606C60AC60EB602C616A
:1056A0006C61AC61082200215C30FDF76BF8534659
:1056B0002B624B466B624346EF62AB62ED61F5686D
:1056C000144B2800EB606C662C606C60AC602C6145
:1056D0006C61AC61082200215C30FDF753F8534641
:1056E0002B624B466B624346AB620123EF62ED6176
:1056F000B3631CBC90469946A246F0BD21560000FB
:1057000025740000BD740000517400009174000005
:1057100009000100120002000020704770B56825E2
:105720004A1E55430E002900743100F009FC041E86
:1057300009D000232A00036046600C300021A060DD
:105740006832FDF71FF8200070BDC046F8B51F4B4A
:1057500007001E68B36B002B29D0B8239B009C4622
:1057600066447368B468013B03D51BE06834013BB1
:1057700018D30C22A55E002DF8D12000144B08226E
:105780000021656625606560A560E360256165614F
:10579000A5615C30FCF7F6FF256365636564A5646D
:1057A0002000F8BD3468002C05D02600D9E7300071
:1057B000FFF73EFFD1E704213800FFF7AFFF041EDB
:1057C0003060F2D10C233B60EAE7C046BC92000097
:1057D0000100FFFF10B5034B0349186800F0F6FA0B
:1057E00010BDC046BC920000B1830000836B10B5B1
:1057F000002B01D1FFF71CFF10BDC0467047C0460B
:105800007047C0467047C0467047C04610B5034B4E
:105810000349186800F0BAFA10BDC046180000200D
:105820001D56000010B5034B0349186800F0AEFA8E
:1058300010BDC0461800002019570000F8B50C0034
:10584000050000F0CDFE204FBB685E6803239E4339
:105850001E4B341B9C466444240B013C113324032F
:105860009C4207DB0021280001F0CAFDBB689B19A0
:10587000984204D0280000F0B5FE0020F8BD2800B2
:10588000614201F0BDFD431C0DD00122BB68361BF7
:1058900016435E600E4B28001A68141B1C6000F053
:1058A000A1FE0120EAE70021280001F0A9FDBA6865
:1058B000831A0F2BDEDD07490968401A0449086086
:1058C00001210B435360D5E750040020EF0F000087
:1058D000280A002048040020F0B5C64605000C0048
:1058E00000B500294FD000F07BFE210008394C683C
:1058F000012622000320B2438F187B68834362484D
:1059000098468368BB426BD043467B6026421ED1DB
:1059100008239C460C688444091B12198C68644552
:105920004FD0CB68E3609C604346FC186468344207
:1059300011D1BB68554C4244A34200D17FE0FC68C2
:10594000DC60A360012313434B608A5006E0FC181F
:1059500064683442EDD016434E603A6080239B0069
:105960009A4213D25409D3080122A2404468DB00B2
:105970002243426018188368C8608B608160D960D8
:10598000280000F02FFE04BC9046F0BD530A042B03
:105990003FD89409260039343836E40004192368C6
:1059A000083C03279C4243D05868B843904202D930
:1059B0009B689C42F8D1DC68CC608B60A160D960A8
:1059C000DEE74346F8184068304258D11300B86803
:1059D000FA6843441E43C26090604E60CB50CFE7EC
:1059E00013004344264206D10A68891A8C689B1822
:1059F000CA68E260946001221A434A60244A8160C6
:105A000012689A42BCD8234B28001968FFF716FF8A
:105A1000B6E7142B07D9542B1AD8140B26006F3471
:105A20006E36E400BAE71E005C335B36DC00B5E797
:105A30000122B610B240466832434260BCE7D960EA
:105A40009960CB608B60012313434B608A5097E7CA
:105A5000AA246400A34205D8D40B260078347736F4
:105A6000E4009BE70C4CA34205D8940C26007D343F
:105A70007C36E40092E7FE247E26A4008EE7330005
:105A800013434B603A607BE7500400205804002029
:105A90004C040020240A002054050000F0B54546BF
:105AA000DE4657464E46E0B5936883B00C009046FC
:105AB0000090002B23D08B891A0728D50A69002A69
:105AC00025D0424616689A072DD50027AB4B0025F6
:105AD0009946BA46002D5AD02B004D4500D9A74B08
