:10000000802B0020510A00004D0A00004D0A00001C
:1000100000000000000000000000000000000000E0
:100020000000000000000000000000004D0A000079
:1000300000000000000000004D0A00004D0A000012
:100040004D0A00004D0A00004D0A00004D0A000054
:100050004D0A00004D0A0000F50600004D0A0000A0
:100060004D0A00004D0A00004D0A00004D0A000034
:100070004D0A00004D0A00004D0A00002105000055
:100080004D0A00004D0A00004D0A00004D0A000014
:10009000310A00004D0A00004D0A00004D0A000020
:1000A0004D0A00004D0A00004D0A00004D0A0000F4
:1000B0004D0A00004D0A00004D0A00000448054B9F
:1000C00010B5834203D0044B002B00D0984710BDDD
:1000D000A4C10000A4C100000000000006480749B8
:1000E000091A8B10C90FC91810B5491003D0044B59
:1000F000002B00D0984710BDA4C10000A4C100008F
:100100000000000010B5074C2378002B09D1FFF741
:10011000D5FF054B002B02D0044800E000BF0123AF
:10012000237010BDC409002000000000A4C100001D
:10013000054B10B5002B03D00449054800E000BF73
:10014000FFF7CCFF10BDC04600000000C80900202A
:10015000A4C10000C36910B5002B00D0984710BDA2
:10016000036A10B5002B00D0984710BD436A10B544
:10017000002B00D0984710BD10B5064B04009847DF
:10018000002805D1044B6360044BA360044BE3607B
:1001900010BDC046210400005501000061010000AF
:1001A0006D010000436910B5002B00D0984710BDC9
:1001B000836910B5002B00D0984710BD10B5054BD2
:1001C00004009847002803D1034B2360034B63606E
:1001D00010BDC046BD060000A5010000B101000031
:1001E00010B5014B984710BDF106000010B503682B
:1001F000984710BD10B54368984710BDF7B505681E
:10020000002D02D1114B9847F7BD01262C00002785
:100210008B680093B31A0193A6686368B44693424F
:100220000DD863449B1A009E9E420CD92368270078
:10023000002B02D13800064BE5E71C00ECE7019EDD
:10024000F3186344EFE7A542DCD0F3E7AD03000009
:10025000B5030000F8B5036904005E1C037E456920
:100260000661DB0702D4037E9B0717D50223227E9B
:1002700013432376F8BD270014370C4B38009847FA
:100280002B7C012B05D1320029003800084B6E6011
:10029000984767692800EB6898473D00002DE9D032
:1002A0006B68AA68F31A9342E5D2E3E7BD03000046
:1002B000FD01000010B5044B040098470020034BDB
:1002C0002061236010BDC046D9080000550200001F
:1002D000F7B50600140001913500083528000E4FCF
:1002E000B8470028F8D00026019B2800995D0B4BE9
:1002F00098472800B8470028FBD00136B442F3D80D
:100300000126002C00D026002800054B9847002825
:10031000FAD03000FEBDC0466F0800006108000042
:1003200079080000F7B50600140000250191370098
:1003300008373800084B98470028F8D0074B38009A
:100340009847019B58550135AC42F0D80120002C4C
:1003500000D02000FEBDC0468308000067080000F2
:1003600010B5054B040008309847002803D1034B13
:100370006360034B236010BD3908000025030000B3
:10038000D102000010B50830014B9847002010BD85
:1003900049080000086000207047000010B5024BBB
:1003A0000830984710BDC0468308000003680B6002
:1003B0000160704703680B600160704703000068CC
:1003C000002801D002681A6070470000054A030047
:1003D0001168002901D1044911601068C318136025
:1003E0007047C046E0090020802B002001204042D9
:1003F000704780239B0100204B60704701207047AD
:1004000000207047010010B50148024B9847FEE7F5
:1004100010B700007D2A000070470120404270475D
:10042000F7B501248B69016023438B6101948B69CB
:10043000019A1342FBD002238A6913438B612F4B2D
:1004400099424BD12E4BA0241A002E4D01C285613A
:100450008D69A4468D6100252B4E8D60CE612B4E9B
:100460008C44CE6080266446294FB602BFB2374323
:1004700027600F00BC373D60FD60264F92B2BCB2D2
:100480008027BF042743C024A4468C4464462760C9
:100490000F003243F0373A6028270A1DD7671A0049
:1004A0000F00143292B232430837FA670A001C3345
:1004B0009BB2334388321360802390310D6016491C
:1004C0001B02164ACB67BFF34F8FBFF36F8FC0215C
:1004D0004900535013600368019ADA6502210268EB
:1004E00093698B4393610123916999439161916968
:1004F000080018401942FAD1FEBDC046001C004257
:10050000E409002000000020070A0206330A000068
:10051000580A0020780A002004E100E000E100E031
:10052000164B70B51C6823681D6DEB0702D52000C3
:10053000A3689847AB0502D5200063689847AB01D4
:1005400003D503212000E3689847EB0103D5002180
:100550002000E36898472B0207D523682000596CD8
:10056000E3688906C90F013198472B0703D5042199
:100570002000E368984723681D6570BDE4090020EA
:100580000423094A10B551680B435360074B984741
:10059000074B9847074B9847074B9847FF20074B57
:1005A0009847074B984710BD0040004125070000C1
:1005B00045070000B1060000490700009106000051
:1005C000C505000090220221D20513788B431370D9
:1005D000704713B5EFF31083019372B69023012295
:1005E000DB051C7822431A709860D9601A79D2070B
:1005F000FCD41869019B83F3108816BD13B5EFF383
:100600001083019372B690230124DB051A78A2436C
:100610001A709860D9601A79D207FCD41869019BC6
:1006200083F3108816BD000013B5EFF31083019318
:1006300072B690230122DB051C7822431A70986061
:10064000D9601A79D207FCD4034B18685968019B0A
:1006500083F310881CBDC0461000004813B5EFF3AB
:100660001083019372B690230124DB051A78A2430C
:100670001A709860D9601A79D207FCD4034B1868B5
:100680005968019B83F310881CBDC04610000048C8
:10069000C30706D5034A044B1A62044A596811423B
:1006A000FCD1704707010100001C0040FD0700005D
:1006B0000122014B1A717047000800409E224B68CE
:1006C000016113404B60084B5E3A1860074B191DDF
:1006D000CA67BFF34F8FBFF36F8FC021490000205F
:1006E0005A501A607047C046100A002000E100E02E
:1006F0004020704701210A4B10B5186803691A7D24
:100700000A4204D00368002B00D0984710BD1A7D20
:1007100052080A42FAD002221A754368F3E7C0462B
:10072000100A00208E22064BF8219A8200229A7528
:10073000DA75DA6949010A40DA6101221A61704703
:10074000001400407047000030B5144D0E20290001
:10075000134B144A1A622C78220002400442FAD148
:1007600011485A6202700E2208781042FCD102220F
:100770001A7708781042FCD101200C4C22780242F2
:1007800003D1227852080242F8D080201A7F024317
:100790001A770E230A781A42FCD130BD2C10004083
:1007A00000100040B7050D00281000403010004038
:1007B000C3691942FCD17047022210B503680321B6
:1007C00093430360014B984710BDC046B10700003A
:1007D000C36970B50400144DDB0710D40226032151
:1007E000A8472368334205D02000104B98473100BA
:1007F0002000A8470523032120002360A8472000EC
:100800000121A8470A4B200023600321A847C023E9
:100810009B02200063600721A8470020054BA381AD
:10082000A0733034207070BDB1070000B90700001C
:10083000040031402BF6FFFF10B5024B01600800A9
:10084000984710BDD10700000223006810B5026868
:10085000032113430360014B984710BDB10700000B
:100860000368198570470368188DC0B27047036824
:10087000187E0123184070470368187E8007C00F58
:1008800070470368187E4007C00F7047036919421C
:10089000FCD1704770B588B069460A000C4B70CB2C
:1008A00070C270CB70C230CB30C200239A008A581D
:1008B000824205D1D8B2431E9841404208B070BD73
:1008C0000133082BF2D1034BC018800AC0B2F2E703
:1008D0002CB7000000D0FFBDF0B50C0085B04C4B2C
:1008E000039008009847039B4A4DDC602369019000
:1008F000DB0714D4022603212000A84723683342D3
:1009000008D023680321B34320002360A8473100A7
:100910002000A8470123032120002360A8470121CC
:100920002000A8471423019A03215A433A4B200080
:100930009F187E6A02922660A847374B029A9B183E
:100940000B33DB7FE3733B8DE380012323730B3396
:100950001E40082E3CD1FB6AC021E3612000A8475D
:1009600000232362C0212000A847012363722B4B80
:100970009C4202D12A4B039A1A6014220199264BF9
:100980004A4302339B18DB7F5BB2002B0ADB1F223A
:1009900013401E3A9A401300224AD367BFF34F8F89
:1009A000BFF36F8F1C4B019A981C14235343C0183C
:1009B0001F23C356002B08DB1F221A400123C0212E
:1009C0009340194A490053501360002005B0F0BD10
:1009D000002E07D1FB6AC0219BB22000A383A84749
:1009E000E683BFE7042EC0D1FB6AC021DBB2200042
:1009F0002377A8470023C02163772000A847064A31
:100A0000029B944663440C33DB7F2021E376AAE704
:100A1000950800008D0800002CB70000003000424F
:100A2000140A002004E100E000E100E0002070472B
:100A30000122054B10B51868C368997A114202D09B
:100A40009A720368984710BD140A0020FEE7000060
:100A50000D4A0E4B10B50E499A4210D100210D4B94
:100A60000D4A93420ED3FF220C4B93430C4A9360E2
:100A70000C4B98470C4B9847FEE701CA01C38B42C9
:100A8000FBD3EBE702C3ECE7A4C1000000000020A9
:100A9000C4090020C40900207C0B002000000000D5
:100AA00000ED00E099280000490E0000030010B599
:100AB00008001100002B03D1034B9847002801DAEE
:100AC0000120404210BDC046190B000001380B0048
:100AD00010B51100022804D81800034B98470028CD
:100AE00001DA0120404210BD390B000070B504004E
:100AF000064E074D336800219868A84733680021E7
:100B00005868A847034B1C6070BDC0461800002001
:100B1000A12A0000180A0020054B10B51B6804002C
:100B2000181E03D08AB2034B2100984710BDC0465F
:100B3000180A0020F5010000054B10B51B680400E1
:100B4000181E03D08AB2034B2100984710BDC0463F
:100B5000180A0020ED01000070B50E4B0400984704
:100B60000121421E0020531C00D170BDA35C1D005A
:100B7000303DEEB2092E04D84D4340190901013A27
:100B8000F1E71D00413D052DF9D8373B4B43C01817
:100B9000F4E7C046892D000010B50248024B984783
:100BA00010BDC046340B0020E1010000F0B587B055
:100BB00001903D4B3D48049198473D4C00280BD097
:100BC0003C4D3D4B0122186829003C4B98472B783F
:100BD000742B06D1002323706378002B07D107B054
:100BE000F0BD0A2B01D00D2B47D101236370344D8A
:100BF000A01C2B78334FA3706B78334E4370AB78C7
:100C0000837003233B80B047304B1880019B80B238
:100C10001860EB782E480370B0472E4B059618707D
:100C2000019BC0B25860042302303B804300029312
:100C30002378294C0393294B00933E88029B9E42C4
:100C400002DA039B9E421ED300240198234E0830F3
:100C5000335D03550134082CFAD1192200212800F4
:100C60001F4DA847220000213000A8470022104B4A
:100C70005A700323049A1370B1E72278511C217033
:100C80000F498B54A8E70E4B20009B5D23700C4B43
:100C90009B195B7802366370059B9847009B3E80EA
:100CA000187001330093C8E79D030000500B00202B
:100CB0001C0A0020E50A0020AC0A0020F501000013
:100CC000F30A0020AA0A0020590B0000F00A0020B5
:100CD000980A0020E40A0020A10A0020990A0020B6
:100CE000B9290000F0B58BB0050003224A494B4BEF
:100CF00002A898476A460D200026494B00211B7820
:100D0000484F137368440222B84701AC13223100E4
:100D100005A826800496B84774236A462868137489
:100D200002A9414B10229847404B02A8984701283E
:100D300031D0022835D0302300269C4603203C4980
:100D400003AA13781F00613F052F30D8CF5C0740FE
:100D5000022F00D1203B137001360132032EF0D157
:100D6000344B03A904A898476A462F006B683033B8
:100D700013756B687A1B93421DDC0D21520004AB86
:100D80009B1859712C4B0632186892B22B4B04A950
:100D900098470BB0F0BD6B466A465E731B7A93733F
:100DA000C9E76B466A461B7A5373537AF7E7002B01
:100DB000D2D16346CFE7224B20003A7A21499847A7
:100DC0003B7A0F2B02D823885BBA238023781A0042
:100DD000613A052A18D8164AD25C3240022A00D15C
:100DE000203B237063781A00613A052A10D8104A14
:100DF000D25C3240022A00D1203B637021000D4BAF
:100E000004A898470137B4E7002BEBD13033E8E76B
:100E1000002BF3D13033F0E763B700001529000051
:100E200067B70000B92900000D290000892D0000D6
:100E3000EDB70000A12C0000AC0A0020ED0100007D
:100E4000612C000060B70000F8B5204B9847204B9C
:100E5000204921489847214B214E224D33600123E0
:100E60002B702B78022B05D0032B08D0012BF9D146
:100E70000223F5E729001C481C4B9847F1E71A4C60
:100E80002368581E0728F3D800F0FAF804F2EBEBB9
:100E9000EBEB0DEB164B98470123207263602000AB
:100EA000144B9847E4E7144F0822144B00213800F4
:100EB0009847238932683B803B681B041343072211
:100EC0002260033A33606260A360E8E76D100000BF
:100ED00095030000AC0A0020500B002001800000A8
:100EE000B00A0020F20A0020D40A0020AD0B000056
:100EF000990B0000E50C0000E80A0020B929000069
:100F00002023024A11690B43136170470008004017
:100F100010B5034B984703490348044B984710BD4D
:100F2000010F000000400041340B0020BD01000013
:100F30008223DB051800012230B5CA3001780F2466
:100F400091431143017019000320B5310D78CB3363
:100F5000A543284308701878904302431A700B7811
:100F60001C40302323430B7030BD0000064B402152
:100F70001A00DC3211604322C8331A602023034A6E
:100F8000D1690B43D3617047001C0040000800404A
:100F900010B5054B984700220449054B0548984772
:100FA000054B984710BDC0466D0F0000001400426D
:100FB00061030000500B0020310F00008023074A1E
:100FC0005B00116910B50B4313614022044B0549C6
:100FD0001A600548054B984710BDC0460008004000
:100FE000E81C0040001C00420C0B002079010000AE
:100FF00010B50C4B98470C4B98470C4B98478023E7
:101000000B4A5B01D1690B43D3614022094B1A6043
:10101000094B984709490200094B0A4898470A4B6F
:10102000984710BD81050000110F0000910F0000CE
:1010300000080040F81C00402D0A0000003000426B
:10104000B50200005C0B0020BD0F000010B5044C81
:10105000044B200098472000034B984710BDC04622
:10106000500B002085030000ED0A000010B5024B74
:101070009847024B984710BDF10F00004D1000003B
:1010800002B4714649084900095649008E4402BC21
:101090007047C046002B11D1002A0FD1002900D182
:1010A000002802D00021C943081C07B4024802A14D
:1010B0004018029003BDC0469914000003B468466E
:1010C00001B5029800F006F8019B9E4602B00CBCE8
:1010D0007047C046F0B557464E464546DE46E0B539
:1010E00004000D009246994683B08B4230D82DD033
:1010F0004946504601F08AFA29000600200001F016
:1011000085FA331A9846203B9B4633D45A465346B9
:10111000934042461F00534693401E00AF423AD8C8
:10112000AF4200D178E05B46A41BBD41002B00DA42
:1011300075E0002200230092019301235A46934058
:101140000193012342469340009328E08242CFD985
:1011500000220023009201930C9B002B01D01C6005
:101160005D600098019903B03CBC90469946A24648
:10117000AB46F0BD424620239B1A5246DA40414618
:1011800013004A468A40170042461F435346934085
:101190001E00AF42C4D900220023009201934346AF
:1011A000002BD9D0FB0772081A4346467B080EE095
:1011B000AB4201D1A2420CD8A41A9D4101202419AE
:1011C0006D410021013E24184D41002E06D0AB4256
:1011D000EED9013E24196D41002EF8D100980199F5
:1011E0005B4600196941002B24DB2B005A4644461C
:1011F000D3402A00E2401C005B461500002B2ADB8E
:1012000026009E40330026004746BE403200801A2A
:101210009941009001919FE7A342BCD883E74246E1
:10122000202300219B1A0022009101920122DA4022
:10123000019286E7424620239B1A2A0046469A409E
:101240002300F340444613432A00E2401C005B465F
:101250001500002BD4DA42462F00202326009740A9
:101260009B1ADE403B003343CDE7C046F0B55746FE
:101270004E464546DE46E0B5814605000C03480073
:1012800092461F0085B0240B400DCE0F002859D088
:10129000874B984200D198E06B0FE4001C438023F9
:1012A0001B0423439846834BED009B46002399463D
:1012B000834400933C037B005046240B5B0DFF0FDF
:1012C000002B67D07A4A934218D07A49420F8C4655
:1012D000E40059461443802263441204CB1A144399
:1012E0009B46C200002033007B409A464B460F2BA2
:1012F00000D9EFE070499B00CB589F466F4B524698
:101300009C462243E344002A00D095E0494602234C
:101310001943894600240220E5E700230024002524
:1013200052461B052343D20713432800190005B07A
:101330003CBC90469946A246AB46F0BD0024002531
:101340005B4BEDE74B462343984600D189E0002CE8
:1013500000D1E0E1200001F03BF9010002000B396F
:101360001D235B1A49461000D940083884400B0001
:101370004D4623439846854051483C03831A9B467B
:101380000023994600937B005046240B5B0DFF0F12
:10139000002B97D15246224355D0002C00D1CAE1F0
:1013A000200001F015F902000B3A1D2301009B1AE1
:1013B00052460839DA408C40144352468A40414B29
:1013C00058449B46834400208DE74B462343984670
:1013D00040D108239946063B00258346009369E7E0
:1013E000B246009B022BA9D0032B00D111E2012BA6
:1013F00093D0354A5A44002A00DC3CE16B0700D008
:10140000A7E1ED084346DB0106D542462F4B1A40C3
:1014100090468022D2005A442D4B9A428EDC43469D
:10142000520558075C020543240B530D78E7BA4672
:10143000A04615000090D4E74A4603231A4391467C
:10144000032052464FE749460123194389460024A9
:10145000012048E70C239946093BA04683460093A8
:1014600028E70423994600239B4601330025009377
:1014700020E7002380249A4600250D4B24034FE7E4
:10148000802341461B03194208D01C4206D11C434D
:101490002403BA461500064B240B41E7802443463B
:1014A00024031C432403B246014B240B38E7C046F7
:1014B000FF07000001FCFFFF6CB7000001F8FFFF11
:1014C0000DFCFFFFF3030000FF030000FFFFFFFE22
:1014D000FE070000444500D216E100D111E10123CE
:1014E0005B429C462E0040460025E3442302140E36
:1014F0001C431B0C994623041F0C12024946009200
:101500000197FFF7ABF802007A430B04310C8046D9
:1015100019438A420BD901235B429C460919E044D6
:101520008C4204D88A4202D9831E98460919881A27
:101530004946FFF793F809048C4631046646019A40
:10154000090C4243030031438A4204D90919013B83
:101550008C4200D811E1891A4246009E12041A43B7
:10156000330C1F00100C9046029313043204160C27
:1015700032001B0C5A4303967B4346437843170CB7
:10158000BC469B1963449E4203D980267602B4462A
:1015900060441E0C301816041B04360C9E19814240
:1015A00000D29CE000D197E0AE1B091AB542804101
:1015B0004042081A844200D111E14946FFF74EF833
:1015C000019A0B044243310C050019438A4207D9A2
:1015D0000919013D8C4203D88A4201D9851E091997
:1015E000881A4946FFF73AF809048C4631046646E2
:1015F000019A090C4243030031438A4207D9091971
:10160000013B8C4203D88A4201D9831E0919039EEB
:10161000891A32002D041D43029F2B041B0C5A43D0
:101620007B439C46280C4643130CB44463447843E4
:101630009E4203D980267602B44660441E0C1204F2
:101640001B04120C30189B18814206D302D00123D0
:101650001D43CEE6002B00D1CBE661186E1EA142E1
:1016600000D2A4E0814200D2C9E000D1D9E0350027
:10167000EDE701256D420121891A382900DD4CE68C
:101680001F2900DC7FE01F235B429A1A4346D340A8
:10169000202904D04446654A5A44944025436A1E92
:1016A000954107222B43150000241D401A4200D10A
:1016B000A1E00F2200241A40042A00D198E01A1D4C
:1016C0009A429B415B42E4181300220200D48FE04F
:1016D00001230024002523E6B54200D364E74346F6
:1016E0005A1E009B9C4665441F009D429B415B42E5
:1016F0001B19C9188C423AD2884263D860D09046F0
:1017000052E7AA4200D9EAE64346DE0758086B08CA
:101710001E43ED07EAE6484600F05AFF01000200CA
:10172000153120321C2900DC1AE64B46083883406C
:101730000025984620E600F04BFF03001A00153202
:1017400020301C2A00DC30E65446083B00229C4036
:1017500035E60F232B40042B00D152E605235B42D4
:10176000AB429B4104355B42ED0898444AE68C420B
:10177000C5D1AF42C0D9904616E78A4200D8EAE602
:10178000831E0919E7E62A4A28005A444346954031
:101790009340C8406A1E9541444603432B43CC40C6
:1017A0005A0792D00F221A40042A88D18DE73500BB
:1017B000814200D04BE7009A934200D047E718E6F9
:1017C000AE429CD902235B429C46009BE0449C466F
:1017D00065449D429B415B421B19C918E4E6154ACA
:1017E0005A44002A00DC44E701230025984409E616
:1017F00065076402240BDB081D43002390E5009E6F
:10180000023D7200B242BF417F423C190919009269
:10181000CEE78024434624031C432403064B240BB9
:101820007EE5009A9A42EAD33500C4E73E04000000
:101830001E040000FF030000FF070000F0B557463C
:101840004E464546DE46E0B598460C034B00060082
:10185000924687B0240B5B0DCF0F002B6CD0DD4A76
:10186000934200D186E0420FE40014438022120428
:101870001443D94AC5009446634400930023994613
:101880009B46434642461E03D20F5B00504690469D
:10189000360B5B0D00D178E0CE4A93421DD0CE4985
:1018A000420F8C4600996344F6008C461643802212
:1018B0009C44120463461643C20000200093009922
:1018C000434601318C4649467B4001930F2900D99C
:1018D0007EE0C24B890059588F465246009B3243E6
:1018E00000D056E1BB4900268C466344494600932C
:1018F0000223194389460220E1E74346019334005D
:10190000150083465B46022B5ED0032B00D1F3E12A
:10191000012B00D018E1002200240025019B1205B4
:101920002243DB071A432800110007B03CBC904655
:101930009946A246AB46F0BD2500054300D141E1E2
:10194000002C00D1ADE1200000F042FE01000200B9
:101950000B391D2310005B1A310035000838844014
:10196000D94085400C439E48831A00930023994632
:101970009B4686E70500254300D01CE10822009322
:101980000223002491469B467BE75246324300D116
:101990000AE1002E00D176E1300000F019FE0200CD
:1019A0000B3A1D2301009B1A52460839DA408E403B
:1019B000164352468A40009B8949181A03008C46F8
:1019C0006344002000937AE700240025814AA5E7BC
:1019D0002F0C2D042D0C2B00110C1204120C534350
:1019E0009846130028007B43994648434844834661
:1019F00040460B00000C824658467B4350440293FD
:101A0000814506D99A4680235B029946CA445346CB
:101A10000293030C9B4643461B0400041B0C984690
:101A2000030043440493330C99462B003604360CD0
:101A30007343984633007B439A464B465D435F436E
:101A400043465544180C4019824503D980235B0254
:101A50009A465744050CEB19059343461D042D0C7B
:101A600000044019250C2404240C270057436A4322
:101A700090462A003B0C9A464A43614341445144F4
:101A80008344884503D980235B02984642443F043F
:101A90000B0C3F0C0904C919270098464B467743A5
:101AA0005C436E435D433B0C9946A4194C4442444D
:101AB0000395A64204D980235B02984645440395CA
:101AC000029B3F045B441E008342804123049846EE
:101AD000059B3F0C4744984676188E4289414744FF
:101AE00040423D18A846934649428A46C3449F4215
:101AF000BF4180458041039BDA44984653464042AB
:101B00007F420743240C934592418A4589413F19FE
:101B1000DC0D049B75021D43681E854153465242ED
:101B200049420A43BF184744F60D7F0235435A0223
:101B30003C431543FB0100D4C1E001216A080D407C
:101B40001543E2071543640826496144002956DD20
:101B50006B0709D00F222A40042A05D02A1DAA4269
:101B6000AD416D4264191500E30104D580211E4A80
:101B7000C900144061441D4A914200DD24E7620718
:101B8000ED08640249051543240B4A0DC6E601978A
:101B9000B8E6104A0320944663444A460093032360
:101BA0001A43914652468AE649460123194389461B
:101BB0000026012083E60C220093032305009146B2
:101BC0009B465EE6042399460023009301330024DC
:101BD0009B4656E6FF07000001FCFFFFACB7000084
:101BE0000DFCFFFFFF030000FFFFFFFEFE070000EC
:101BF000002380240025444A019324038EE601201B
:101C0000401A382800DD86E61F285BDD1F222300EE
:101C10005242511ACB401900202803D03B4A62445B
:101C2000944025436A1E95412A000A4307210D006E
:101C30000024154011425BD00F21002411400429DB
:101C400053D0111D914292415242A4180A0023021E
:101C50004BD501220024002560E680231B031C4293
:101C600009D01E4207D133431C0343461500240B01
:101C7000254A019352E68022120314432403224A88
:101C8000240B01974AE600F0A3FC03001A0015326A
:101C900020301C2A00DC84E65646083B00229E4089
:101CA00089E600F095FC01000200153120321C2964
:101CB00000DC4EE6340008380025844053E6009BE3
:101CC0009C4641E71249220061442E008D408A4023
:101CD000C640691E8D4132432A43C4405307B6D0E3
:101CE0000F2111400429ACD1B1E765076402240B30
:101CF000D2081543002211E6802212031443240364
:101D0000014A240B0AE6C046FF0700003E0400001B
:101D10001E040000F8B557464E464546DE46040010
:101D2000E0B51F0010000B03620F4E00CD0F5B0AE1
:101D300039031343490AE200440F2143C24C914640
:101D40009246C0007A008046760D520DFF0FA242E7
:101D500000D1B4E001246740BB46BD4200D188E019
:101D6000B41AA446002C00DCB2E0002A00D1C5E081
:101D7000B54A964200D18BE280221204114362469A
:101D8000382A00DDA1E11F2A00DD16E220270C0021
:101D9000BF1ABC400200A0466446B840E240444638
:101DA00014430200501E82416046C14022435B1A28
:101DB00049468C1AA145924152429B1A9846434685
:101DC0001B0200D417E143465B025B0A9846434678
:101DD000002B00D16CE1404600F0FAFB0200083A0B
:101DE000202120004346891A9340C8409440034371
:101DF000964200DD57E1961B711C1F2900DDCBE1E7
:101E0000202218002600521A94409040CE40CB4029
:101E1000621E94413043984600260443630709D06C
:101E20000F232340042B05D0231DA342A441644269
:101E3000A0441C0043461B0200D4DFE0824B013665
:101E40009E4200D1FBE04246804BE4081A4013005A
:101E5000710552075B0222431B0B490D0905ED0773
:101E60001943294310003CBC90469946A246AB4614
:101E7000F8BDB41AA446002C58DD002A00D19EE01B
:101E8000714A964200D13BE180221204114362461E
:101E9000382A00DDC1E01F2A00DCBBE10C00203A3B
:101EA000D44022006446202C04D040273F1BB94078
:101EB000084380464446611E8C411443B1E00C0047
:101EC00004432AD0BB46BD422DD0614CA446B44445
:101ED0006446002C5CD0941BA446002E00D015E173
:101EE0004D461D4300D1C3E1651E012C00D10CE21B
:101EF000554EB44200D1F8E1AC460EE10A0002436F
:101F000000D136E12200013A012C00D1C6E14E4C4D
:101F1000A44500D1F4E0944631E701246740BB4674
:101F2000BD4200D01CE74A4CA446B4446446002C91
:101F300000D1CFE0941BA446002E00D15CE1424EBC
:101F4000B24200D1ECE18026360433436446382C9B
:101F500000DDB3E11F2C00DD38E22026361B1C001B
:101F6000B4404F46A0466446E74044463C434F4693
:101F7000B7403E00771EBE4134436646F340C91861
:101F8000241884429B415B429846160088444EE0E8
:101F9000304A741C144200D0D6E04A461A43002E40
:101FA00000D05BE1002A00D1A5E10A00024300D085
:101FB000BBE14A465907D2080A43DB0827E00A007A
:101FC000024300D174E12200013A012C05D01E4CDD
:101FD000A44500D194E0944659E7484448459241CD
:101FE0005B189846040052429044434602261B0266
:101FF00000D5C4E0013E630700D011E74346B44674
:102000005907E2080A43DB080F498C4540D0614676
:102010001B0349051B0B490D20E701430C00611E02
:102020008C414C444C459241524290469844434620
:102030001B02E0D5044B01369E4200D09FE03100E8
:10204000002300220AE7C046FF070000FFFF7FFFD2
:1020500001F8FFFFFE070000002A00D160E10A003E
:1020600002434DD04A465C07D20822438024DB0855
:102070002403234207D0CE08264204D15D46330014
:10208000C20849070A43510FD200D20849070A4340
:102090001100194300D1C8E1802109030B431B0340
:1020A000D5491B0BDAE6D549B61A0B409846B5E67A
:1020B000200000F08DFA020018321F2A00DC8FE6A3
:1020C000230008388340002492E608430200501E93
:1020D00082416DE6CA4C721C224200D0ADE04A46F5
:1020E0001A43002EB8D1002A00D158E10A00024359
:1020F00000D059E14A465907D2080A43DB0886E76F
:102100004A465907D2080A43DB08C1E7BA4DAA423A
:1021100000D11EE180252D042B436446382C5DDC64
:102120001F2C00DDD0E0202567462D1B4E461C00ED
:10213000FE40AC4034434E46AE403500FB406E1E80
:10214000B541C91A2C434EE04A46141AA1459241A2
:10215000524290465F1A3A004746D21B90461202FE
:1021600000D58BE04246224300D030E60023002514
:102170004DE74A465907D2080A43DB0844E742467E
:102180009E4B61081A401300012214400C43DA07E9
:102190005B089846144341E61A001F3EF2401600C1
:1021A000202903D04022511A8B401C43621E9441C7
:1021B00000233443984600261DE70C00203AD44003
:1021C00022006446202C04D040273F1BB94008431E
:1021D00080464446611E8C412243E9E54C46234338
:1021E0001C00631E9C41041BA0429B415B42CB1A16
:1021F00098465D461600E2E54E461E4300D1AEE02D
:10220000661E012C00D1FDE07B4FBC4200D107E1EE
:10221000B4469BE664462022121B0C009440070043
:102220009040A0466446421E90416246E7404446C4
:10223000D1403C4304435B18F3E66F4CA24200D10B
:10224000D5E048445B184845894149425B18DC07A2
:1022500040085B08984616000443CCE6002A00D0EC
:1022600082E00A00024340D1802300251B0313E7CC
:102270004B07C2081A435D46CB08C5E64A46841A96
:10228000A0429241CB1A52429B1A98465D469EE567
:102290004A465907D2080A43DB08F9E64A46141AA7
:1022A000A14592415B1A52429B1A9846012686E547
:1022B0004A465907D2080A43DB08A5E64C462343A1
:1022C0001C00631E9C415BE665461E00203DEE40FF
:1022D000202C05D040252D1BAB404C461C43A2466C
:1022E0005446631E9C4134437DE74B07C2081A43A2
:1022F0005D46CB08CCE60A00024300D136E74B0727
:10230000C2081A435D46CB0881E64A46841AA042B9
:102310009241CB1A52429B1A98465D4601264EE5E1
:102320004B07C2081A43CB08B2E64A46141AA14525
:1023300092415F1A5242BA1A904612026BD54A462F
:10234000841AA0429241CB1A52429B1A98465D468B
:1023500064E54B07C2081A435D46CB0898E64B0775
:10236000C2081A43CB084FE60A00024390D04A46FF
:102370005C07D20814438022DB081203134208D002
:10238000CE08164205D1C0084907084304005D463F
:102390003300610FE2004907D2080A4378E64B0791
:1023A000C2081A43CB0832E648445B1848459241BC
:1023B000984652429044434604001B0200D41AE659
:1023C00042460E4B01261A40904614E666461F0010
:1023D000203EF740202C05D04026361BB3404C460B
:1023E0001C43A2465446631E9C413C43C8E5110071
:1023F0000023002232E5C046FF070000FFFF7FFFF9
:10240000FE0700004A461418844292415B18984621
:1024100052429044E9E54246224300D1A6E6EAE56D
:102420004B07C2081A43CB0832E6002201491300C9
:1024300014E5C046FF0700000A0030B5134C5300F6
:1024400009030500090B00205B0DD20FA34204DD38
:102450000F48834202DD0F4BD01830BD802040036F
:1024600001430D48C01A1F2808DD0C48C31AD94083
:102470000B005842002AF0D11800EEE7084CC54086
:10248000A446634499400B002B43F2E7FE0300008F
:102490001D040000FFFFFF7F330400001304000051
:1024A000EDFBFFFF70B5002816D0C317C5185D40BF
:1024B000C40F280000F08CF8114A121A0A2816DC02
:1024C00003002E0015339E400B23181AC5405305F8
:1024D0002D032D0B5B0D03E00024002300250026B7
:1024E0001B052B43E40723433000190070BD0B3854
:1024F000854053052D0300262D0B5B0DF0E7C046EC
:102500001E04000010B5041E10D000F061F80F4B3F
:102510001B1A0A2811DC0B222100121AD140153097
:102520000A035B058440120B5B0D01E000230022CF
:102530001B0513432000190010BD22000B388240F8
:102540005B0512030024120B5B0DF1E71E04000073
:102550007047C0468446101C62468C46191C634670
:1025600000E0C0461FB500F00BF9002801D400219F
:10257000C8421FBD10B500F055F84042013010BDF3
:1025800010B500F0FDF8002801DB002010BD01208F
:1025900010BDC04610B500F0F3F8002801DD0020A2
:1025A00010BD012010BDC04610B500F077F800281E
:1025B00001DC002010BD012010BDC04610B500F0A8
:1025C0006DF8002801DA002010BD012010BDC046C2
:1025D0001C2101231B04984201D3000C10391B0A53
:1025E000984201D3000A08391B09984201D3000917
:1025F000043902A2105C40187047C046040302026E
:1026000001010101000000000000000010B50029D8
:1026100003D1FFF7DDFF203002E0081CFFF7D8FFF1
:1026200010BDC046F0B54F464646D6469446914644
:102630001A03120B184DC0B54C000F0392465A00F6
:10264000060080463F0B0120640DC90F520DDB0FC1
:10265000AC420AD0AA4203D0944201D157450DD0D2
:102660001CBC90469946A246F0BD3D003543F7D1CB
:10267000A242F5D1524665462A43F1D10120C84510
:10268000EED1994206D0002CEAD13E433000461EDE
:10269000B041E5E70020E3E7FF070000F0B54E4654
:1026A00045465746DE4604001800E0B516001B03F9
:1026B0001B0B324D0F034A0099464300A446B04617
:1026C0003F0B520DC90F5B0DC00FAA4229D0AB4280
:1026D00018D0002A2AD13C43A34665426541002B0D
:1026E00002D14C46264327D0002D15D1814228D057
:1026F00002200139084001383CBC90469946A24668
:10270000AB46F0BD4D462E432FD1002AEED13C43BF
:1027100065426541002DE9D00028EDD101204042FD
:10272000EAE73D00254320D19342EBD0002BDDD1D9
:102730004C462643DAD1DBE75B460020002BDBD09A
:10274000D6E79A420ADCE7DB4F45D1D810D000200B
:102750004F45D1D20029E1D00800CDE7434258418E
:102760000223404218400138C6E702204042C3E736
:10277000C445BDD80020C445BED2EBE7FF0700002A
:10278000F0B54E4645465746DE4604001800E0B513
:1027900016001B031B0B314D0F034A0099464300E3
:1027A000A446B0463F0B520DC90F5B0DC00FAA42A5
:1027B00011D0AB4214D0002A2FD13C43A34665422E
:1027C0006541002B14D14C46264311D15B460020B5
:1027D000002B17D010E03D00254312D193421CD1AD
:1027E0004D462E430DD1002A04D13C43654265413C
:1027F000002D0DD1814216D0022001390840013848
:1028000000E002203CBC90469946A246AB46F0BD93
:102810000028F7D101204042F4E7002BEAD14C46D2
:102820002643E7D1E8E79A4206DD434258410223B6
:10283000404218400138E5E79A42E9DB4F45DBD8D2
:1028400006D000204F45DDD20029E3D00800D9E7AB
:10285000C445D1D80020C445D4D2F5E7FF07000015
:1028600010B5010000230022002003F005FA10BD7E
:1028700070B5074D074C641BA41005D0013CA300A4
:10288000EB589847002CF9D109F080FC70BDC04688
:1028900098C100009CC1000070B50C4D0C4E761B19
:1028A000B61005D0002408CD01349847A642FAD1CD
:1028B00009F062FC074D084E761BB61005D00024C7
:1028C00008CD01349847A642FAD170BD84C10000FA
:1028D00084C1000084C100008CC10000931E10B5AB
:1028E0000C00222B0DD80A2A04D0210001F08EFD05
:1028F000200010BD0028F8DA2D2340420B70013172
:10290000F4E7002300200B70F3E7C04610B5FFF793
:10291000E5FF10BDF0B5C64600B50F2A41D9032723
:102920000D003E0005430C0003002E402F423DD118
:102930001500103D2D09AC462D01A84680442568A0
:1029400067681D605F60A568E7689D60DF601034A0
:102950001F0010334745F2D165460F230C24013583
:102960002D01491913404519144222D08C59AC51FC
:1029700004369C1B032CF9D80324043B9B08013329
:102980009B002240ED18C918561E002A06D00023CD
:10299000CC5C1A00EC5401339642F9D104BC904649
:1029A000F0BD0500561E002AF1D1F7E70500561EBE
:1029B000EDE71A00F6E7C046F0B5050083074AD0F8
:1029C000541E002A44D003000322CEB202E0013597
:1029D000013C3DD301332E701342F8D1032C2FD983
:1029E000FF220A40150215432A0415430F2C35D93E
:1029F0002700103F3F093E01B4461E001A00103662
:102A00006644156055609560D5601032B242F8D1C9
:102A10000F260C2201373F012640DB1937002242E6
:102A200017D03E1FB608B400A4461A001C1D64440B
:102A300020C2A242FCD103240136B6009B193C40BF
:102A4000002C05D0C9B21C19197001339C42FBD16E
:102A5000F0BD3400F4E714000300BFE72700E0E70F
:102A60000EB400B582B003AB04CB8168019301F0D2
:102A700011FD02B008BC03B01847C0460FB400B542
:102A8000064983B004AB086804CB8168019301F068
:102A900001FD03B008BC04B01847C0461800002070
:102AA0004A424A41802310B55200DB0000F002F890
:102AB00010BDC046F0B54746CE4680B51D00584B08
:102AC00004001E688846170083B0002E02D0B36B46
:102AD000002B6BD0022F05D0012F00D98CE0002DE8
:102AE00000DA89E02100300004F04AFA216B002965
:102AF00008D023004033994202D0300004F0CAFBD2
:102B0000002323630023A36163600C22A35E1A06E3
:102B100057D4444A1340A381022F5DD001AB6A46CB
:102B20002100300004F05EFEA3890343A381002D41
:102B300025D04346002B23D0B36B002B2DD0009B18
:102B4000AB4230D08023A2891B0113431BB2A38167
:102B5000012F02D101221343A381424619002260B2
:102B600022610822656198B21140134222D0C30746
:102B70003FD500236D420020A360A5611CE0009DAD
:102B8000280004F0A7FE8046002838D08022A389C0
:102B90001343A381B36B002BD1D1300004F004FBAD
:102BA000009BAB42CED10C22A35ED1E7300004F0F3
:102BB000FBFA8FE70020A16003B00CBC9046994659
:102BC000F0BD3000216904F065FB0C22A35E154ABC
:102BD0001340A381022FA1D1002002221343A3811D
:102BE0000023A36023004333236023610123636137
:102BF000E2E70020A560DFE701204042DCE7009B20
:102C00009946AB4205D0180004F064FE80460028C7
:102C100004D101200C22A35E4042DEE74D46B5E719
:102C2000180000205CF3FFFF0CB400B59DB00291CA
:102C3000069109491EAB07910491084904CB0591FF
:102C400002A9019300F0CEF80023029A13701DB080
:102C500008BC02B01847C046FFFFFF7F0802FFFF15
:102C60000EB400B50B499CB0079104910A491DAB05
:102C700005910A4904CB02900690086802A90193C5
:102C800000F0B0F80023029A13701CB008BC03B027
:102C90001847C046FFFFFF7F0802FFFF1800002013
:102CA00070B50400830717D102680F4BD318934304
:102CB0000E4A150013420FD142680B4B0430D31853
:102CC00093432B4208D14268074B0430D3189343F7
:102CD0002B42F1D000E001300378002BFBD100F053
:102CE0004BF8200070BDC046FFFEFEFE8080808055
:102CF000024670B50A4392072AD11E4DEE0104C860
:102D000008C9541B9443344017D0D0B2D9B2401AEA
:102D10002106014310D190B299B2401A2104014317
:102D20000AD110021902000A090A401A21020143BD
:102D300002D1100E190E401A70BD9A42DFD010BA9F
:102D400019BA884201D9012070BD0020C04370BD6E
:102D500002780B7801300131002A09D09A4207D15C
:102D600002780B7801300131002A01D09A42EFD06D
:102D7000D01A70BD0101010103000A7801311A70F7
:102D80000133002AF9D1704710B583070AD0030038
:102D9000032102E001330B4205D01A78002AF9D151
:102DA000181A10BD030019680C4A0D4C8A188A4382
:102DB00022420FD15968094A04338A188A432242B1
:102DC00008D15968054A04338A188A432242F1D04F
:102DD00000E001331A78002AFBD1E1E7FFFEFEFE96
:102DE00080808080F0B5DE4657464E464546E0B5C9
:102DF000C1B08A4691460E93834604F0EBFC03680B
:102E000018001893FFF7C0FF534617909B891B06C5
:102E100005D553461B69002B01D101F00EF830ABEC
:102E200023930023002425932493139300231493C6
:102E300015940023C846D946D34630AF169319934C
:102E40000A9343461B78002B00D1E2E0444603E09E
:102E500063780134002B24D0252BF9D14346E51AA1
:102E6000444523D12378002B00D1D2E0631C98463F
:102E70000023012014AAD3770022404208900020AA
:102E800045460021402690466378824609902030CE
:102E900001351A00203A582A26D8DD4C9200A25853
:102EA00097464346E51A444500D1B2E043463B60AD
:102EB000259B7D605B192593249B06930133249306
:102EC000072B06DC08370A9B9C46AC4463460A93F2
:102ED000C8E75946484623AA05F0D4FF002801D088
:102EE00000F0B2FC30AFEEE742461093A846002A4D
:102EF00001D001F0B4F9109B002B00D189E026AE7F
:102F00003370002314AAD377013306930B935346EF
:102F10000793002308931293079A02231100194084
:102F20008A46134202D0069B02330693079A8423F3
:102F3000110019400F91134205D1099B069A9C1A62
:102F4000002C00DD93E0259C14ABDB7F002B11D01F
:102F500014AA1F23944663443B6001237B60249B97
:102F600001341193013325942493072B01DD00F0E4
:102F700089FC08375346002B0ED01CAB3B60022364
:102F80007B60249B02341193013325942493072BF7
:102F900001DD00F082FC08370F9B802B00D1C0E3DD
:102FA000089B0B9A9D1A002D01DD00F00AFC079B7F
:102FB000DB0500D533E30B9B3E609C467B60249B86
:102FC00064440893013325942493072B00DDCBE060
:102FD0000837079B5B0706D5099B069A9D1A002DAB
:102FE00001DD00F065FC099B069A934200DA1300AC
:102FF0000A9A94469C4463460A93002C01D000F040
:103000001AFC0023249343461B7830AF002B00D0DA
:103010001CE7259BDA460693002B01D001F033F91B
:1030200053469B895B0601D501F075F90A9841B0BA
:103030003CBC90469946A246AB46F0BD00241A001F
:10304000069123002900BC46303A9D00EB185B0036
:10305000D3180A00157801312A00303A0F00092AE6
:10306000F3D9099306992B003D00674611E7259A8D
:10307000249B102C01DC01F0D2F8664839001025A1
:103080004F461190B146060003E0103C0831102C69
:1030900015DD103201330E604D6025922493072B0D
:1030A000F3DD5946380023AA05F0ECFE002800D0D5
:1030B000CAE3103C259A249B30A9102CE9DC4E462B
:1030C000B9460F0011997C600133A418396025942A
:1030D0002493072B01DD00F0F5FE083734E7139B3E
:1030E000012B01DC00F09FFC01237B60249B013459
:1030F0005D1C3E60259408932495072D01DD00F0AA
:1031000011FD0837189B01353B60179B24959C46A1
:1031100064447B602594072D01DD00F0F6FC083740
:103120000022149815990023FFF724FA002801D0F3
:1031300000F098FC139B0136013BE41801353E601A
:103140007B6025942495072D01DD00F07EFC083777
:103150001FAB3B60199B01359C4664447B60259402
:103160002495072D00DC33E75946484623AA05F08D
:1031700089FE002800D067E3259C30AF29E742464E
:103180001093A846002A01D001F05DF807230E9C99
:1031900007349C43220018CA14931594149B159C61
:1031A0000E921D00012264006408280021001A4BC1
:1031B000524208F08FFA002801D000F0D6FC01221C
:1031C00028002100144B5242FFF7E4F9002801D0F7
:1031D00000F0CBFC1498159900220023FFF7D0F9DA
:1031E000002801D000F05DFF14ABDB7F0F93109B34
:1031F000472B01DC00F042FF084E802352469A43E1
:103200007D3B06930B93002307920893129346E0AD
:1032100038B900009CBA0000FFFFEF7FF8B800004B
:1032200042461093A846002A01D001F024F85346E4
:103230009B0600D48FE007230E9C07349C43013388
:103240009C46A444634622680E9363680C920D93D7
:10325000002B00DA8CE0089B013301D100F03EFE28
:1032600014ABDB7F52460F9380239A4307920C9A4C
:103270000D9B1100194301D000F07BFD089B002B32
:1032800001D000F063FF002330AE08930B93089B3E
:103290000B9A0693934200DA0692002312930F9B37
:1032A000002B00D138E6069B0133069334E60E9AD4
:1032B00008CA0993002B01DB00F041FC099B0E9228
:1032C0005B420993042352461A4392462B78DFE56A
:1032D0000E9C109308CC26AE3370002314AAD3772B
:1032E0000133A8460E9406930B9310E62B786C1CC2
:1032F00006942A2B01D101F066F81A00A446002496
:10330000303A65460894092A00D9C2E50C0000232A
:103310006146BC469D00EB185B009B180A001578BF
:1033200001312A00303A0F00092AF3D9089321000D
:103330002B003D006746ACE542461093A846002AA4
:1033400001D000F084FF102352461A4392465346A0
:103350009B0600D56FE75346DB0601D400F0DCFC8A
:103360000E9C08CC0C93DB170D930E9400D472E7DF
:103370000C990D9A00244B4294410C930D942D23EB
:10338000089814AAD3770F932C3B421C59D1012BD8
:1033900000D161E2022B00D1A6E153460725BA46CF
:1033A00030AE06930C9A0D9B5F07D4082900D8080D
:1033B0002743030038001140B4463031013E3A0043
:1033C00031701843F0D10C920D93069A574664461B
:1033D0009246D20700D49EE1302900D19BE13023F0
:1033E000013E023C337030AB1B1B0B93534626004F
:1033F00007934CE742461093A846002A01D000F0FC
:103400003EFFD14B169353469B0600D4CEE00723D4
:103410000E9C07349C43220018CA0C930D940E9204
:1034200052460223D20705D50C990D9A0800104385
:1034300000D091E30022089814A9CA770F92421C89
:10344000A5D080225146914307910C990D9A0C000A
:10345000144300D0FBE1002801D000F06BFD002BED
:1034600000D010E7524601331A400B92524630AE5C
:10347000134200D10BE73021263326AAD15414ABD6
:103480006F269C46664402E7109300230E9C14AA04
:1034900040CCA846D377002E01D100F069FD089AF0
:1034A000531C01D100F099FC0021300004F0E0FC35
:1034B000821B002801D100F0A9FE14ABDB7F0B9228
:1034C0000F93D343DB171A4006920E94534607938B
:1034D000002308931293E2E6534603439A462B785F
:1034E000D6E40E9C524608CCA8460C9300230D93BC
:1034F00002331A439246954A1CAB1A807822924BAB
:103500000E9416931092022394E74246A846002A8E
:1035100001D000F0A0FE53469B0600D513E35346AE
:10352000DB0601D500F098FC53465B0601D400F0A1
:1035300093FC0E9C0A9A08CC1A800E9481E42B7896
:103540006C2B01D100F00DFD52461024224392460F
:103550009EE4534633439A462B7899E4524610939F
:1035600010231A43A846924653469B0600D4B5E260
:1035700007230E9C07349C43220018CA0C930D9419
:103580000E92002356E75346082213439A462B789F
:103590007EE442461093A846002A01D000F067FE60
:1035A0006B4B169353469B0600D530E75346DB061C
:1035B00000D49BE30E9C08CC0C9300230E940D9337
:1035C0002EE75246109310231A43A84692465346BC
:1035D0009B0600D48DE207230E9C07349C432200F7
:1035E00018CA0C930D940E92012323E701222B217C
:1035F00090462B784CE4802352461A4392462B780F
:1036000046E4012352461A4392462B7840E42B7835
:10361000002900D03CE401222031904638E4109B80
:10362000652B00DC5BE51498159900220023FEF75A
:10363000A1FF002800D177E1464B01343B60012314
:103640007B60249B2594089301332493072B01DD91
:1036500000F058FC08371D9B139A934203DB079B2D
:10366000DB0700D4B5E4189B3B60179B9C467B604E
:10367000249B64440893013325942493072B01DD94
:1036800000F063FC0837139B5D1E002D00DCA0E4F6
:10369000314A249B1192102D01DC00F025FC944648
:1036A0001021614422008A4610264C4605E0083766
:1036B000103D102D01DC00F015FC51461032013395
:1036C00039607E6025922493072BF0DD5946200057
:1036D00023AA05F0D7FB002800D0B5E0259A249B4B
:1036E00030AFE5E7079B9A460C9A0D9B0F20BC462E
:1036F000169D30AE01001140695C1F071409013EA0
:103700002743317019090B0039003A001943F1D1F0
:1037100067460C920D9330AB9B1B0B93534607935C
:10372000B5E5099B069A9D1A002D00DC38E40A4A8B
:10373000249B1192102D31DD1022924622004C461E
:10374000B1465E460EE0C04618B900003078000071
:1037500004B9000034B900009CBA0000103D0837DD
:10376000102D17DDDB491032396051460133796085
:1037700025922493072BF1DD3100200023AA05F0C8
:1037800081FB002800D0CCE0103D259A249B30AF6F
:10379000102DE7DCB3464E46A1461400119A641979
:1037A000103201333A607D6025942493072B00DDAD
:1037B000B4E3089B0B9A08379D1A002D01DCFFF734
:1037C000F6FBC54A249B1192102D26DD102292464D
:1037D00022004C46B1465E4603E0103D0837102DEE
:1037E00017DDBC49103239605146013379602592AA
:1037F0002493072BF1DD3100200023AA05F042FBC2
:10380000002800D08DE0103D259A249B30AF102D6C
:10381000E7DCB3464E46A1461400119A64191032F3
:1038200001333A607D6025942493072B00DD44E149
:103830000837FFF7BCFB5946484623AA05F022FB90
:10384000002801D1FFF7DDFBDA46FFF7E9FB079A15
:103850009246012B00D09DE50C9B0D9C002C00D0C6
:103860008EE2092B00D98BE227220C9B26A930334C
:103870008B545346079301230B9314AB6F269C463E
:10388000664404E55946484623AA05F0FBFA002899
:10389000DAD1259C30AFFFF76DFB5946484623AA85
:1038A00005F0F0FA0028CFD1259C30AFFFF774FB6C
:1038B000249B102D01DC00F0D6FC87492200102645
:1038C0000C00119103E0103D0837102D14DD10326B
:1038D00001333C607E6025922493072BF3DD59462B
:1038E000484623AA05F0CEFA0028ADD1103D259A0E
:1038F000249B30AF102DEADC1400119A64190133B7
:1039000024C725942493072B01DCFFF76CFB594651
:10391000484623AA05F0B6FA002895D1259CFFF762
:1039200062FBB246FFF77CFB1D98002800DCA1E299
:10393000139B1D00129B9D4200DD08E2002D0CDD53
:10394000249B6419089301333E607D602594249381
:10395000072B01DD00F036FC0837EB43DB171D4079
:10396000129B5D1B002D00DD3DE21D9B139A9342CF
:1039700000DBF0E1189A3A60179A94467A60249A2C
:1039800064440892013225942492072A00DDA5E3BD
:1039900008371399129ACB1A1D008A1A934200DD38
:1039A0001500002D0FDD129A64199446249A66447E
:1039B000089201323E607D6025942492072A01DD41
:1039C00000F014FC0837EA43D21715405D1B002DA8
:1039D00001DCFFF7FEFA404A249B1192102D00DC17
:1039E00082E294461021614422008A4610264C4609
:1039F00004E00837103D102D00DC73E25146103210
:103A0000013339607E6025922493072BF1DD5946FE
:103A1000200023AA05F036FA002800D014E7259AE2
:103A2000249B30AFE6E70123079A134201D0FFF74A
:103A30005BFB7B60249B01345D1C3E6025940893F6
:103A40002495072D01DCFFF782FB5946484623AA3F
:103A500005F018FA002800D0F6E6259C249D30AF2A
:103A6000FFF776FB139B5E1E002E01DCFFF770FB59
:103A7000194B1193102E00DCA6E210229C466244E2
:103A8000924604E00837103E102E00DC9CE25346BC
:103A90003B601023103401357B6025942495072D5D
:103AA000F0DD5946484623AA05F0ECF9002800D07D
:103AB000CAE6259C249D30AFE5E75946484623AA2F
:103AC00005F0E0F9002800D0BEE6259C30AFFFF7F6
:103AD0006EFAC046ACBA00009CBA00005346DB0642
:103AE00000D427E10E9C08CC0C9300230E940D9378
:103AF000A0E45346DB0600D505E153460E9C5B0669
:103B000000D401E108CC9BB2FFE05946484623AA05
:103B100005F0B8F9002800D096E6259C249D30AF2A
:103B2000FFF7FEFA5946484623AA05F0ABF90028EC
:103B300000D089E6259C249D30AFFFF7E3FA2B786F
:103B40000E92FFF7A5F90E9C0A9A08CC1A60D217BC
:103B50005A600E94FFF775F930211CAA1170109964
:103B6000517052461A43924664E414981599020023
:103B70000B0007F0AFFD002800D0DEE3089B013307
:103B800000D12CE32023109A9A430B92472A00D1AC
:103B900069E1802352465B001A430792149B159CEF
:103BA000251E00DA83E2149B069300230F93109ADC
:103BB000662A00D115E2462A00D112E220239A4358
:103BC000452A00D1CEE221AB04931EAB03931DAB7B
:103BD00002930223089C009348462B00069A019406
:103BE00002F03EF9109B0600672B01D000F002FCAA
:103BF00053463419DB0700D509E2219B9B1B139325
:103C00000B9B472B01D000F0F7FB1D9B1293DA1C96
:103C100003DB089A934200DCC2E2109B023B109344
:103C20002C21129A14AB5B181099541E19701D9414
:103C30002B23002C02DA01240233A41A2D2114AA0A
:103C400052181370092C00DC6AE314AA3B23944633
:103C5000634408961E0020000A210696FCF7E4FC47
:103C6000013E3031200031700A21FCF7B2FC250002
:103C70000400632DEFDC14A93B228C46069B3034F4
:103C8000023BE4B26244089E1C70934200D397E367
:103C90002E22624400E01C7814A83B2184460133A4
:103CA0006144147001328B42F5D13D23069A63447E
:103CB0009B1A2E22624494461FAA63449B1A1993AE
:103CC000139919980B00844663441A000B93012939
:103CD00000DC51E3179B0B9A9C466244D343DB17ED
:103CE0000B921A40002306921293BCE153460E9C9D
:103CF0005B0600D45FE408CC9BB20C9300230E94C7
:103D00000D93FFF78DFB0E9C08CC0C9300230E94B3
:103D10000D930133FFF78EFB53460E9C5B0601D4D7
:103D2000FFF71FFB08CC1BB20C93DB170D930E940F
:103D3000FFF78EFA53460E9C5B0600D4D3E608CC00
:103D40009BB20C9300230E940D93FFF773FB1D1E83
:103D500000DDF5E501E6079AD20700D50AE6139AD9
:103D60001299D31A1D00561AB34200DC2BE6350017
:103D700029E6079B9A460C9B0D9C002C00D170E510
:103D80000C9C0D9D30AE200029000A220023FDF777
:103D900081F9013E303200232000290032700A22CE
:103DA00007940695FDF776F9069B04000D00002B9D
:103DB000E9D1079B092BE6D830AB9B1B0B935346ED
:103DC0000C940D950793FFF762FAA8461093FFF73E
:103DD000CBFBA8461093FFF7FAFB3000FEF7D4FFA9
:103DE0000200FFF76AFBDB4A249B1192102D00DCD6
:103DF0004BE194461021614422008A464C46B1466C
:103E00005E4604E00837103D102D00DC39E15146D4
:103E10003960102110320133796025922493072BE9
:103E2000F0DD3100200023AA05F02CF8002800D096
:103E300077E5259A249B30AFE5E74021584603F00B
:103E40005DFD534618601861002800D1CBE2402385
:103E500052465361FEF7E3FF0E9C0A9A08CC1A60A3
:103E60000E94FEF7EEFF089B002B00D091E6013385
:103E700008938EE6B84B01343B6001237B60249BA2
:103E80002594089301332493072B00DD19E10837AB
:103E9000002878D10123079A1340139A134301D1C4
:103EA000FFF797F8189B3B60179B19197B60249BC1
:103EB0002591089301332493072B00DD2CE13A0070
:103EC000083272E05946484623AA04F0DBFF002876
:103ED00000D0B9E4259C30AFFFF736F814ABDB7F98
:103EE0000F93B9E4A1461400119A641910320133FA
:103EF0003A607D6025942493072B01DCFFF768F876
:103F0000FFF732F95946484623AA04F0BBFF0028C0
:103F100000D099E4259C30AFFFF79DFB59464846F9
:103F200023AA04F0AFFF002800D08DE4259C30AF19
:103F3000FFF736F8012B00D108E1022B01D1FFF782
:103F4000D1FB079B9A46FFF728FA5946484623AA11
:103F500004F098FF002800D076E4259C30AFFFF7EE
:103F600092FB534603439A4601352B78FEF790FFA8
:103F7000089B0B93062B00D9BDE00B9B774E069355
:103F80000E94FEF7C4FF189B3B60179B19197B60CA
:103F9000249B2591089301332493072B00DDBBE07C
:103FA0003A000832002800DA74E11398013344180B
:103FB0001660506025942493072B01DDFFF7D4F899
:103FC00008321700FFF705F8119BA41910330135CB
:103FD0003B607E6025942495072D01DCFFF7B7F840
:103FE00033E521AB04931EAB03931DAB0293032374
:103FF000089C009301942B004846069A01F030FF7C
:10400000060033780419302B78D01D9BE418002368
:10401000002229000698FEF7ADFA2300002809D1F6
:10402000219BA34206D230215A1C21921970219B58
:104030009C42F9D89B1B13930B9B472B00D1E4E5C3
:10404000109B662B00D0D7E11D9A01231292002A03
:1040500000DCA0E151460B4008990B4300D07EE103
:10406000129B06930B930F9B002B00D191E02D2305
:1040700014AAD37700230893FFF715F9384EFFF7FA
:10408000BCF8B3464E46A1461400119A641910328A
:1040900001333A607D6025942493072B4ADC08376E
:1040A00063E42D2314AAD3770F93FFF7A0F880229F
:1040B000120694460693230063441D002D230F939C
:1040C00075E55946484623AA04F0DCFE002801D0D5
:1040D000FFF7BAFB1D98259C30AFD9E659464846F4
:1040E00023AA04F0CFFE002801D0FFF7ADFB1D9BF3
:1040F000259C30AF4DE406230B933EE700220023BE
:1041000029000698FEF736FA002800D07DE7012343
:10411000089A9B1A1D9379E75946484623AA04F04A
:10412000B1FE002801D0FFF78FFB1D982599249B35
:1041300030AA37E75946484623AA04F0A3FE0028D0
:1041400001D0FFF781FB259C30AF0EE4079B9A4618
:10415000FFF78AFB9CBA000034B900002CB90000BC
:10416000F4B80000089B48465C1C21AB04931EABCE
:1041700003931DAB02930223069A009301942B0034
:1041800001F06EFE0600109B472B00D130E534197C
:104190003DE714ABDB7F0F9300230893FFF77FF815
:1041A000129B13998B423EDB5246D20700D5D0E0DA
:1041B0001A00DB431100DB171940672306910B92AD
:1041C000109350E75946484623AA04F05BFE0028A6
:1041D00001D0FFF739FB259C30AFFFF7BEFB202352
:1041E000109A9A431A3B0B920893D2E459464846D8
:1041F00023AA04F047FE002801D0FFF725FB139BFC
:104200001D9A259C9B1A30AFFFF7DDFB14ABDB7FBB
:104210000E940F93089B06930B93FFF757F9784979
:104220001191FEF74FFF179B139A9C46129B624415
:104230000B92002B00DCA8E0D343DB171A40672366
:10424000069210930FE714ABD977FEF79FFF14ABDC
:10425000D977FFF778F814ABD977FFF75CF914AB8F
:10426000D977FEF748FE664A1192FFF746FB14AB7A
:10427000D977FFF795F914ABD977FEF7D8FF14ABD0
:10428000D977FFF7BEF85146484623AA04F0FAFD55
:10429000FEF7C6FE4542103000DBA1E0584810246E
:1042A0001190103007004846B146060003E008327E
:1042B000103D102D14DD103101331760546025912D
:1042C0002493072BF3DD5946300023AA04F0DAFDCE
:1042D000002801D0FFF7B8FA2599249B30AAE7E718
:1042E00030004E4681461198491910300133106054
:1042F000556025912493072B00DCE1E5594648469B
:1043000023AA04F0BFFD002801D0FFF79DFA2599EC
:10431000249B30AA49E601235B420A93FEF786FEFE
:104320002E21302314AA521813702F2214AB9B187D
:1043300030341C7004231993C2E4159B002B3ADB24
:1043400014ABDB7F0F93109B472B31DD2D4EFEF717
:1043500054FF179B129A9C4662440B926CE7179B82
:104360009C46624410008C46844462460B92D343C0
:10437000DB171A40069276E6012351461940129146
:1043800051460B4200D0A5E4F1E70B9B129A981A14
:10439000421C0B9250E752461340089A134303D134
:1043A000012306930B935EE6179B9446581CDBE7AC
:1043B000154EFEF722FF2D2314AAD3770F93C2E7E1
:1043C000022319937CE40E9A08CA0893002B02DAA0
:1043D00001235B4208936B780E92069DFEF758FD11
:1043E000074811907FE70C235A4613600D3B0A9350
:1043F000FEF71CFE089CC6E61D9B129310E4C04607
:104400009CBA000000B90000FCB80000F0B54746B7
:10441000CE4680B58BB0E846170042461A4B0500E1
:104420000C0043CB43C243CB43C243CB43C21B78B4
:104430001370BB1E222B22D8631E0026994628002B
:104440003900FCF70BF94246525C4946330001360D
:104450008A552A0005009742F1D90022A255002B67
:1044600007D0A15CE05CA054E1540132013B9A42C8
:10447000F7DB20000BB00CBC90469946F0BD002342
:1044800000202370F6E7C046BCBA000010B5FFF765
:10449000BDFF10BDF0B5DE4657464E464546E0B579
:1044A000C1B083468A4691461C000E9303F092F9F0
:1044B000036818001893FEF767FC5B461690002B04
:1044C00003D09B6B002B00D137E253460C21595E81
:1044D000534680229B899201134209D10A435346D5
:1044E00051469A81496EC54B0B4051464B6693B27B
:1044F0001A0749D552461269002A45D01A2213409C
:104500000A2B4FD030AB2393002300242593249310
:1045100013930023149315940023C846D946D34619
:1045200030AF179319930A9343461B78002B00D1A1
:10453000FEE0444603E063780134002B3FD0252B96
:10454000F9D14346E51A44453ED12378002B00D1EA
:10455000EEE0631C98460023012014AAD3770022C2
:10456000404208900020454600214026904663784E
:1045700082460990203001351A00203A582A41D845
:104580009F4C9200A25897465146584601F00AFBAC
:10459000002801D001F031FA53461A229B891340BA
:1045A0000A2BAFD153460E229B5E002BAADB2300C1
:1045B0004A465146584601F0BBFA0A90C5E04346C8
:1045C000E51A444500D1B3E043463B60259B7D603E
:1045D0005B192593249B069301332493072B06DC58
:1045E00008370A9B9C46AC4463460A93ADE759469C
:1045F000484623AA05F08CFA002801D000F0C7FC39
:1046000030AFEEE742461093A846002A01D001F0F1
:1046100097F9109B002B00D18AE026AE337000235F
:1046200014AAD377013306930B93534607930023C1
:1046300008931293079A0223110019408A461342E5
:1046400002D0069B02330693079A84231100194077
:104650000F91134205D1099B069A9C1A002C00DD8C
:1046600094E0259C14ABDB7F002B11D014AA1F23F0
:10467000944663443B6001237B60249B0134119387
:10468000013325942493072B01DD00F086FC0837C5
:104690005346002B0ED01CAB3B6002237B60249B57
:1046A00002341193013325942493072B01DD00F08C
:1046B0007FFC08370F9B802B01D100F0DFFB089BAC
:1046C0000B9A9D1A002D01DD00F01EFC079BDB05F7
:1046D00000D555E30B9B3E609C467B60249B644465
:1046E0000893013325942493072B00DDD1E008378C
:1046F000079B5B0706D5099B069A9D1A002D01DDD5
:1047000000F061FC099B069A934200DA13000A9AB2
:1047100094469C4463460A93002C01D000F02EFC82
:104720000023249343461B7830AF002B00D000E7D2
:10473000259BDA460693002B01D001F00DF9534674
:104740009B895B0601D501F058F90A9841B03CBC41
:1047500090469946A246AB46F0BD00241A00069149
:1047600023002900BC46303A9D00EB185B00D318AB
:104770000A00157801312A00303A0F00092AF3D9CE
:10478000099306992B003D006746F5E6259A249B80
:10479000102C01DC01F0D0F81A48390010254F46E2
:1047A0001190B146060003E0103C0831102C15DDD5
:1047B000103201330E604D6025922493072BF3DDF8
:1047C0005946380023AA05F0A3F9002800D0DEE3FB
:1047D000103C259A249B30A9102CE9DC4E46B946A2
:1047E0000F0011997C600133A4183960259424933B
:1047F000072B01DD00F008FF083733E7FFDFFFFF7D
:10480000E4BA000048BC0000139B012B01DC00F05F
:104810009DFC01237B60249B01345D1C3E6025943C
:1048200008932495072D01DD00F0B9FE0837189B89
:1048300001353B60169B24959C4664447B6025941F
:10484000072D01DD00F09EFE08370022149815990F
:104850000023FDF78FFE002801D000F09FFC139B82
:104860000136013BE41801353E607B6025942495B8
:10487000072D01DD00F07CFC08371FAB3B60199B66
:1048800001359C4664447B6025942495072D00DC0B
:104890002DE75946484623AA05F03AF9002800D0EA
:1048A00075E3259C30AF23E742461093A846002AC3
:1048B00001D001F074F807230E9C07349C432200BA
:1048C00018CA14931594149B159C0E921D00012276
:1048D0006400640828002100E34B524206F0FAFE0F
:1048E000002801D000F0C0FC012228002100DE4B8E
:1048F0005242FDF74FFE002801D000F0B5FC14989D
:10490000159900220023FDF73BFE002801D000F09E
:104910004EFF14ABDB7F0F93109B472B01DC00F0A5
:10492000E6FED24E802352469A437D3B06930B937C
:10493000002307920893129352E0584602F034FC89
:10494000C3E542461093A846002A01D001F02BF897
:1049500053469B0600D4DBE007230E9C07349C43A0
:1049600001339C46A444634622680E9363680C920C
:104970000D93002B00DAD8E0089B013301D100F041
:104980006BFD14ABDB7F52460F9380239A43079253
:104990000C9A0D9B1100194301D100F0F6FB079B07
:1049A0009A460C9B0D9C002C01D000F05EFD092B5B
:1049B00001D900F05AFD27220C9B26A930338B54D5
:1049C0005346079301230B9314AB6F269C46664412
:1049D000089B0B9A0693934200DA069200231293E7
:1049E0000F9B002B00D125E6069B0133069321E6A1
:1049F0000E9A08CA0993002B01DB00F028FC099BE2
:104A00000E925B420993042352461A4392462B7836
:104A1000B1E52B786C1C06942A2B01D101F05DF8CE
:104A20001A00A4460024303A65460894092A00D9A1
:104A3000A2E50C0000236146BC469D00EB185B001C
:104A40009B180A00157801312A00303A0F00092A14
:104A5000F3D9089321002B003D0067468CE54246C0
:104A60001093A846002A01D000F072FF804B1793E4
:104A700053469B0600D429E107230E9C07349C4330
:104A8000220018CA0C930D940E9252460223D207AC
:104A900005D50C990D9A0800104300D0DBE30022E5
:104AA000089814A9CA770F92421C4DD08022514613
:104AB000914307910C990D9A0C00144300D069E2C0
:104AC000002801D000F0D4FD002B00D061E3524655
:104AD00001331A400B92524630AE134200D177E7B1
:104AE0003021263326AAD15414AB6F269C46664447
:104AF0006EE742461093A846002A01D000F024FF3A
:104B0000102352461A43924653469B0600D523E78C
:104B10005346DB0601D400F085FC0E9C08CC0C93B8
:104B2000DB170D930E9400D426E70C990D9A002400
:104B30004B4294410C930D942D23089814AAD377DB
:104B40000F932C3B421CB1D1012B00D129E7022B42
:104B500000D176E153460725BA4630AE06930C9A4B
:104B60000D9B5F07D4082900D808274303003800AD
:104B70001140B4463031013E3A0031701843F0D153
:104B80000C920D93069A574664469246D20700D47B
:104B90006EE1302900D16BE13023013E023C3370DD
:104BA00030AB1B1B0B9353462600079310E7109363
:104BB00000230E9C14AA40CCA846D377002E01D126
:104BC00000F0A0FC089A531C01D100F069FD0021FF
:104BD000300003F04DF9821B002801D100F0A3FE44
:104BE00014ABDB7F0B920F93D343DB171A40069273
:104BF0000E9453460793002308931293F0E653460E
:104C000003439A462B78B6E40E9C524608CCA8463D
:104C10000C9300230D9302331A439246154A1CABA2
:104C20001A807822124B0E9417931092022336E7C3
:104C30004246A846002A01D000F095FE53469B0646
:104C400001D500F0FDFB5346DB0601D500F093FCD7
:104C500053465B0601D400F08EFC0E9C0A9A08CCE9
:104C60001A800E9460E4C046FFFFEF7FF8B80000A2
:104C700018B90000307800002B786C2B01D100F0BF
:104C800036FC524610242243924674E45346334382
:104C90009A462B786FE40E9C109308CC26AE3370A6
:104CA000002314AAD3770133A8460E9406930B93DE
:104CB000BBE442461093A846002A01D000F05BFEF8
:104CC000DD4B179353469B0600D5D5E65346DB06CE
:104CD00000D48DE30E9C08CC0C9300230E940D930E
:104CE000D3E65246109310231A43A84692465346E1
:104CF0009B0600D494E207230E9C07349C432200B9
:104D000018CA0C930D940E920123C8E652461093D4
:104D100010231A43A846924653469B0600D474E2D9
:104D200007230E9C07349C43220018CA0C930D9451
:104D30000E920023B3E601222B2190462B78FFF739
:104D40001AFC5346082213439A462B78FFF713FCAC
:104D5000802352461A4392462B78FFF70CFC01231E
:104D600052461A4392462B78FFF705FC2B78002910
:104D700001D0FFF700FC012220319046FFF7FBFB3A
:104D8000109B652B00DC3FE5149815990022002349
:104D9000FDF7F0FB002800D159E1A84B01343B603E
:104DA00001237B60249B2594089301332493072BD4
:104DB00001DD00F045FC08371D9B139A934200DB90
:104DC0003FE2189B3B60169B9C467B60249B64449F
:104DD0000893013325942493072B00DD7CE30837E7
:104DE000139B5D1E002D00DC82E4954A249B1192EA
:104DF000102D01DC00F016FC9446102161442200C5
:104E00008A4610264C4605E00837103D102D01DC7F
:104E100000F006FC51461032013339607E60259265
:104E20002493072BF0DD5946200023AA04F070FEDE
:104E3000002800D0ABE0259A249B30AFE5E7079B24
:104E40009A460C9A0D9B0F20BC46179D30AE010070
:104E50001140695C1F071409013E2743317019098D
:104E60000B0039003A001943F1D167460C920D93BB
:104E700030AB9B1B0B9353460793A9E5099B069AFE
:104E80009D1A002D01DCFFF71AFC6D4A249B11923C
:104E9000102D26DD1022924622004C46B1465E4679
:104EA00003E0103D0837102D17DD664910323960D8
:104EB00051460133796025922493072BF1DD3100AF
:104EC000200023AA04F024FE002800D0BCE0103DFE
:104ED000259A249B30AF102DE7DCB3464E46A14601
:104EE0001400119A6419103201333A607D602594E0
:104EF0002493072B00DDAFE3089B0B9A08379D1A1C
:104F0000002D01DCFFF7E2FB4D4A249B1192102D8E
:104F100026DD1022924622004C46B1465E4603E052
:104F2000103D0837102D17DD4649103239605146C3
:104F30000133796025922493072BF1DD31002000A5
:104F400023AA04F0E5FD002800D07DE0103D259A5D
:104F5000249B30AF102DE7DCB3464E46A14614002B
:104F6000119A6419103201333A607D6025942493BC
:104F7000072B00DD3DE10837FFF7A8FB59464846FF
:104F800023AA04F0C5FD002801D1FFF7C9FBDA46CA
:104F9000FFF7D5FB079A9246D6E55946484623AA1D
:104FA00004F0B6FD0028F2D1259C30AFFFF770FB6E
:104FB0005946484623AA04F0ABFD0028E7D1259CBA
:104FC00030AFFFF777FB249B102D01DC00F0CFFC06
:104FD0001B49220010260C00119103E0103D0837F8
:104FE000102D14DD103201333C607E602592249335
:104FF000072BF3DD5946484623AA04F089FD002813
:10500000C5D1103D259A249B30AF102DEADC140049
:10501000119A6419013324C725942493072B01DCCA
:10502000FFF770FB5946484623AA04F071FD00289B
:10503000ADD1259CFFF766FB04B9000034B9000030
:1050400048BC000058BC0000B246FFF778FB1D9832
:10505000002800DCB0E2139B1D00129B9D4200DD86
:1050600028E2002D0CDD249B6419089301333E6077
:105070007D6025942493072B01DD00F030FC083778
:10508000EB43DB171D40129B5D1B002D00DD48E24A
:105090001D9B139A934200DB10E2189A3A60169A0D
:1050A00094467A60249A64440892013225942492AA
:1050B000072A00DD81E308371399129ACB1A1D00E5
:1050C0008A1A934200DD1500002D0FDD129A641933
:1050D0009446249A6644089201323E607D6025948D
:1050E0002492072A01DD00F007FC0837EA43D217B3
:1050F00015405D1B002D01DCFFF7FAFAD54A249B11
:105100001192102D00DC8DE29446102161442200A2
:105110008A4610264C4604E00837103D102D00DC6E
:105120007EE251461032013339607E60259224932D
:10513000072BF1DD5946200023AA04F0E9FC0028E2
:1051400000D024E7259A249B30AFE6E70123079A95
:10515000134201D0FFF75DFB7B60249B01345D1C93
:105160003E60259408932495072D01DCFFF784FB0E
:105170005946484623AA04F0CBFC002800D006E795
:10518000259C249D30AFFFF778FB089B002B00D0B7
:1051900068E3002330AE08930B9319E4139B5E1E63
:1051A000002E01DCFFF769FBAA4B1193102E00DCE7
:1051B00069E210229C466244924604E00837103EA1
:1051C000102E00DC5FE253463B60102310340135A3
:1051D0007B6025942495072DF0DD5946484623AA87
:1051E00004F096FC002800D0D1E6259C249D30AF29
:1051F000E5E75946484623AA04F08AFC002800D077
:10520000C5E6259C30AFFFF761FA5346DB0600D4B4
:10521000FBE00E9C08CC0C9300230E940D933EE40F
:105220005346DB0600D5E0E053460E9C5B0600D4F7
:10523000DCE008CC9BB20C9300230E940D93013359
:105240002DE4079BDB0701D4FFF752FAB9E52B7871
:105250000E92FFF790F930211CAA1170109951702D
:1052600052461A4392461AE41498159902000B000C
:1052700006F030FA002800D0F2E3089B013300D199
:105280004AE32023109A9A430B92472A00D1C8E29E
:10529000802352465B001A430792149B159C251EDF
:1052A00000DAA4E2149B069300230F93109A662A57
:1052B00000D11FE2462A00D11CE220239A43452A4E
:1052C00000D1D3E221AB04931EAB03931DAB029339
:1052D0000223089C009348462B00069A019400F094
:1052E000BFFD109B0600672B01D000F009FC534660
:1052F0003419DB0700D513E2219B9B1B13930B9BF7
:10530000472B01D000F0FEFB1D9B1293DA1C03DB40
:10531000089A934200DCD0E2109B023B10932C21B0
:10532000129A14AB5B181099541E19701D942B23FC
:10533000002C02DA01240233A41A2D2114AA5218D7
:105340001370092C00DC78E314AA3B2394466344D1
:1053500008961E0020000A210696FBF765F9013E1B
:105360003031200031700A21FBF733F925000400A9
:10537000632DEFDC14A93B228C46069B3034023BA4
:10538000E4B26244089E1C70934200D3B2E32E2222
:10539000624400E01C7814A83B2184460133614438
:1053A000147001328B42F5D13D23069A63449B1A57
:1053B0002E22624494461FAA63449B1A19931399A0
:1053C00019980B00844663441A000B93012900DCF2
:1053D00052E3169B0B9A9C466244D343DB170B9215
:1053E0001A40002306921293C6E10E9C08CC22E7D5
:1053F00053460E9C5B0600D46DE408CC9BB20C9324
:1054000000230E940D93FFF740FB53460E9C5B0662
:1054100000D4FFE608CC9BB20C9300230E940D93AE
:10542000FFF73DFB53460E9C5B0601D4FFF776FB6E
:1054300008CC1BB20C93DB170D930E94FFF799FA6F
:105440000E9C0A9A08CC1A60D2175A600E94FFF785
:105450006BF8C04648BC000014ABDB7F0F930C9B7D
:105460000D9C002C01D1FFF7A2FA0C9C0D9D30AED3
:10547000200029000A220023FBF70CFE013E3032F7
:1054800000232000290032700A2207940695FBF7BA
:1054900001FE069B04000D00002BE9D1079B092BA0
:1054A000E6D830AB9B1B0B9353460C940D9507939A
:1054B000FFF78EFA1D1E00DDD5E5E1E5079AD2075C
:1054C00000D5EAE5139A1299D31A1D00561AB34271
:1054D00000DC0BE6350009E65946484623AA04F0ED
:1054E00017FB002800D052E5259C30AF78E45346E6
:1054F00003439A4601352B78FFF73DF8A8461093F1
:10550000FFF7F5FB089B0B93062B00D979E10B9B6A
:10551000E24E06930E94FFF788F8A8461093FFF723
:10552000FBFBDF4A249B1192102D00DC33E19446F3
:105530001021614422008A464C46B1465E4604E092
:105540000837103D102D00DC21E151463960102153
:1055500010320133796025922493072BF0DD31005E
:10556000200023AA04F0D4FA002800D06CE5259A84
:10557000249B30AFE5E70E9C0A9A08CC1A600E9483
:10558000FEF7D2FF5946484623AA04F0C1FA002884
:1055900000D0FCE4259C249D30AFFFF756F9594616
:1055A000484623AA04F0B4FA002800D0EFE4259C72
:1055B000249D30AFFFF73BF9BA4B01343B60012328
:1055C0007B60249B2594089301332493072B00DDF3
:1055D00000E10837002869D10123079A1340139A84
:1055E000134301D1FFF784F8189B3B60169B1919F0
:1055F0007B60249B2591089301332493072B00DDC6
:1056000016E13A00083263E05946484623AA04F0FE
:105610007FFA002800D0BAE4259C30AFFFF722F8CB
:10562000A1461400119A6419103201333A607D606A
:1056300025942493072B01DCFFF759F8FFF729F98C
:105640005946484623AA04F063FA002800D09EE495
:10565000259C30AFFFF7B0FB5946484623AA04F01B
:1056600057FA002800D092E4259C30AFFFF727F8C6
:10567000012B00D1F6E0022B01D1FFF7E0FB079BE5
:105680009A46FFF767FA119BA419103301353B6066
:105690007E6025942495072D01DCFFF7EDF867E582
:1056A0003000FDF771FB0200FFF79AFA189B3B6090
:1056B000169B19197B60249B259108930133249331
:1056C000072B00DDB4E03A000832002800DA6EE172
:1056D0001398013344181660506025942493072BC7
:1056E00001DDFFF7D6F808321700FFF701F86E4E1C
:1056F000FFF718F921AB04931EAB03931DAB029384
:105700000323089C009301942B004846069A00F05E
:10571000A7FB060033780419302B75D01D9BE418C5
:105720000023002229000698FCF724FF230000280C
:1057300009D1219BA34206D230215A1C2192197013
:10574000219B9C42F9D89B1B13930B9B472B00D1A9
:10575000DAE5109B662B00D0D4E11D9A012312924A
:10576000002A00DCA4E151460B4008990B4300D00D
:105770008FE1129B06930B930F9B002B00D195E0BA
:105780002D2314AAD37700230893FFF72DF9B346EE
:105790004E46A1461400119A6419103201333A6042
:1057A0007D6025942493072B50DC083770E42D236B
:1057B00014AAD3770F93FFF7AFF85946484623AAA8
:1057C00004F0A6F9002801D0FFF7E1FB1D9B259C02
:1057D00030AF71E45946484623AA04F099F90028ED
:1057E00001D0FFF7D4FB1D98259C30AFF2E6802254
:1057F000120694460693230063441D002D230F9345
:1058000054E506230B9382E6002200232900069824
:10581000FCF7B0FE002881D10123089A9B1A1D9342
:105820007DE7089B002B00D032E5013308932FE57C
:105830005946484623AA04F06BF9002801D0FFF727
:10584000A6FB1D982599249B30AA3EE75946484659
:1058500023AA04F05DF9002801D0FFF798FB259CEE
:1058600030AF15E4079B9A46FFF7A5F8089B48461A
:105870005C1C21AB04931EAB03931DAB029302236C
:10588000069A009301942B0000F0EAFA0600109BA0
:10589000472B00D12BE5341942E7C0462CB9000054
:1058A00048BC000034B90000F4B8000014ABDB7F42
:1058B0000F9300230893FFF793F8129B13998B42E1
:1058C0005DDB5246D20700D5C4E01A00DB4311006D
:1058D000DB171940672306910B9210934CE759464A
:1058E000484623AA04F014F9002801D0FFF74FFB23
:1058F000259C30AFFFF7C4FB5946484623AA04F065
:1059000007F9002801D0FFF742FB139B1D9A259C45
:105910009B1A30AFFFF7EAFB2023109A9A431A3BF9
:105920000B920893B4E414ABDB7F0E940F93089BA7
:1059300006930B93FFF75DF974491191FEF751FF40
:1059400014ABD977FEF765FE14ABD977FFF7D8F81B
:1059500014ABD977FFF78AF85146484623AA04F0DA
:10596000D7F8FEF7ECFE14ABD977FFF767F9674A73
:105970001192FFF74DFB14ABD977FFF7A1F9169BF6
:10598000139A9C46129B62440B92002B00DC89E028
:10599000D343DB171A40672306921093ECE614AB4F
:1059A000D977FEF788FF14ABD977FEF7D1FF4542D0
:1059B000103000DBA1E05548102411901030070092
:1059C0004846B146060003E00832103D102D19DDAF
:1059D000103101331760546025912493072BF3DDB8
:1059E0005946300023AA04F093F8002801D0FFF7AD
:1059F000CEFA2599249B30AAE7E701235B420A935C
:105A0000FEF7A3FE30004E4681461198491910302A
:105A100001331060556025912493072B00DCF1E5DC
:105A20005946484623AA04F073F8002801D0FFF72E
:105A3000AEFA2599249B30AA4AE62E21302314AAD7
:105A4000521813702F2214AB9B1830341C7004238F
:105A50001993B4E4169B129A9C4662440B9297E702
:105A6000159B002B34DB14ABDB7F0F93109B472B74
:105A70002BDD274EFEF756FF0123514619401291A8
:105A800051460B4200D0A4E4D343DB171A400692E0
:105A900072E6169B9C46624410008C468444624623
:105AA0000B92F1E70B9B129A981A421C0B926FE72C
:105AB00052461340089A134303D1012306930B93D4
:105AC0005AE6169B9446581CE8E7124EFEF72AFF4A
:105AD0002D2314AAD3770F93C8E70E9A08CA089308
