:10000000D03E002039010000BD010000BD0100000C
:1000100000000000000000000000000000000000E0
:10002000000000000000000000000000BD01000012
:100030000000000000000000BD010000BD01000044
:10004000BD010000BD010000BD010000BD010000B8
:10005000BD010000BD010000BD010000BD010000A8
:10006000BD010000BD010000BD010000BD01000098
:10007000BD010000BD010000BD010000BD01000088
:1000800069230000BD010000BD010000BD010000AA
:10009000114700002D47000049470000BD01000046
:1000A000BD010000BD010000BD010000BD01000058
:1000B000BD010000BD010000BD01000010B5064CEF
:1000C0002378002B07D1054B002B02D0044800E019
:1000D00000BF0123237010BDF000002000000000CD
:1000E000F07A0000084B10B5002B03D007490848F0
:1000F00000E000BF07480368002B00D110BD064B8D
:10010000002BFBD09847F9E700000000F400002026
:10011000F07A0000F07A00000000000080B500AF27
:10012000034B9847034B9847C046BD4680BDC04629
:10013000310A00000966000080B582B000AF164B9E
:100140007B60164B3B607A683B689A420CD007E0B4
:100150003B681A1D3A607A68111D796012681A604E
:100160003A680F4B9A42F3D30E4B3B6004E03B6876
:100170001A1D3A6000221A603A680B4B9A42F6D375
:100180000A4B7B600A4B7A68FF218A439A60094BCD
:100190009847094B9847FEE7F07A000000000020DE
:1001A000EC000020F0000020D01E00200000000025
:1001B00000ED00E0316600008553000080B500AF1F
:1001C000FEE780B584B000AFF8607A600B23FB18BF
:1001D0000A1C1A700B23FB181A78FB682032920055
:1001E0007968D150C046BD4604B080BD80B582B0AC
:1001F00000AF78607B681B69802292001A437B689D
:100200001A61C046BD4602B080BD80B582B000AF65
:1002100078607B68DB6940221A437B68DA61C046FC
:10022000BD4602B080BD80B582B000AF78607B680B
:10023000DB69802252011A437B68DA61C046BD4601
:1002400002B080BD80B582B000AF78607B68DB69AA
:10025000802292011A437B68DA61C046BD4602B033
:1002600080BD80B582B000AF78607B68DB6980229A
:10027000D2011A437B68DA61C046BD4602B080BD38
:1002800080B582B000AF78607B681B6A02221A4397
:100290007B681A62C046BD4602B080BD80B584B09E
:1002A00000AFF8607A600B23FB180A1C1A700B234E
:1002B000FB181B78FA68DB01D31804337A681A60DC
:1002C000C046BD4604B080BD80B584B000AFF860C4
:1002D0007A600B23FB180A1C1A700B23FB181B787F
:1002E000FA68DB01D31818337A681A60C046BD4635
:1002F00004B080BD80B584B000AFF8607A600B2395
:10030000FB180A1C1A700B23FB181B78FA68DB0118
:10031000D31814337A681A60C046BD4604B080BD55
:1003200090B585B000AF78600C0010001900FB1C80
:10033000221C1A70BB1C021C1A707B1C0A1C1A702F
:10034000FB1C1978BB1C1A780F23FB187868302423
:10035000C90141188A18121912781A700F23FB1854
:100360000F22BA1812780F218A431A707B1C1B784F
:100370000F221340D9B20F23FB180F22BA1812789C
:100380000A431A70FB1C1A78BB1C1B787968302052
:10039000D2018A18D3181B180F22BA1812781A70B3
:1003A000C046BD4605B090BD90B585B000AF786041
:1003B0000C0010001900FB1C221C1A70BB1C021C34
:1003C0001A707B1C0A1C1A70FB1C1978BB1C1A784B
:1003D0000F23FB1878683024C90141188A181219B4
:1003E00012781A700F23FB180F22BA1812780F21F7
:1003F0000A401A707B1C1B781B01D9B20F23FB1813
:100400000F22BA1812780A431A70FB1C1A78BB1C08
:100410001B7879683020D2018A18D3181B180F2254
:10042000BA1812781A70C046BD4605B090BD90B596
:1004300085B000AF78600C0010001900FB1C221C76
:100440001A70BB1C021C1A707B1C0A1C1A70FB1C45
:100450001978BB1C1A780F23FB1878684024C9014F
:1004600041188A18121912781A700F23FB180F22DC
:10047000BA18127801218A431A707B1C19780F234D
:10048000FB180F22BA1812780A431A70FB1C1A784C
:10049000BB1C1B7879684020D2018A18D3181B181E
:1004A0000F22BA1812781A70C046BD4605B090BD2A
:1004B000B0B582B000AF786008001100FB1C021CD0
:1004C0001A70BB1C0A1C1A70FB1C1A78BB1C1B7808
:1004D000F91C0878B91C09787C684025C0012018EF
:1004E000411849190978C9B204200143CCB279688E
:1004F0004020D2018A18D3181B18221C1A70C0463B
:10050000BD4602B0B0BDB0B582B000AF78600800A3
:100510001100FB1C021C1A70BB1C0A1C1A70FB1C6D
:100520001A78BB1C1B78F91C0878B91C09787C6800
:100530004025C0012018411849190978C9B2042082
:100540008143CCB279684020D2018A18D3181B1895
:10055000221C1A70C046BD4602B0B0BD90B583B033
:1005600000AF040008001100FB1D221C1A70BB1D07
:10057000021C1A707B1D0A1C1A707B1D1B78012B34
:100580000DD0022B2BD0002B49D1BB1D1A78FB1D9F
:1005900019788223DB051800264B984746E0BB1DDF
:1005A0001B7801229A40FB1D1978C023DB05180037
:1005B000214B9847BB1D1A78FB1D19788223DB0558
:1005C00018001E4B9847BB1D1B7801229A40FB1D4B
:1005D0001978C023DB051800194B984726E0BB1D8E
:1005E0001B7801229A40FB1D1978C023DB051800F7
:1005F000114B9847BB1D1A78FB1D19788223DB0528
:1006000018000E4B9847BB1D1B7801229A40FB1D1A
:100610001978C023DB0518000A4B984706E00A4BFF
:10062000892219000020094B9847C046C046BD46A4
:1006300003B090BD070500009D020000B10400005A
:10064000C9020000F5020000547700003D160000CA
:1006500090B585B000AF786039607B685A090F2388
:10066000FB181A707B68DAB20E23FB181F210A40B0
:100670001A703B6801330BD10E23FB181A780F2335
:10068000FB1819788223D80500231B4CA0472FE0C4
:100690000E23FB181A780F23FB1819788223D8052C
:1006A0000123154CA0470E23FB181B780122134091
:1006B0000FD00E23FB181B785B08DAB23B68DCB264
:1006C0000F23FB1819788223D80523000B4CA04771
:1006D0000EE00E23FB181B785B08DAB23B68DCB235
:1006E0000F23FB1819788223D8052300044CA04758
:1006F000C046BD4605B090BD2F040000A903000010
:100700002103000080B582B000AF0200FB1D1A700B
:10071000BB1D0A1C1A70FB1D1B785B09D8B2FB1DA0
:100720001B781F221340D9B2BB1D1B781A00034B44
:100730009847C046BD4602B080BDC0465D0500007A
:1007400080B582B000AF786039603A687B6811008C
:100750001800034B9847C046BD4602B080BDC04656
:100760005106000080B500AF024B9847C046BD4619
:1007700080BDC0463927000080B500AF0021302081
:10078000094B9847094B19003020094B9847002125
:100790003120054B9847074B19003120044B9847EF
:1007A000C046BD4680BDC0460507000002003000BF
:1007B000410700000200310080B500AF094B402224
:1007C00019211800084B9847064B4322182118009E
:1007D000054B9847054B1800054B9847C046BD464A
:1007E00080BDC046001C0040C3010000000800405E
:1007F0000B02000080B500AF064B9847064A074B36
:1008000011001800064B9847064B9847C046BD4656
:1008100080BDC046B907000000180042EC0100206E
:100820006D0E00007907000080B500AF064B19007F
:100830004C20064B9847064B19004F20034B984716
:10084000C046BD4680BDC04602004C0041070000C6
:1008500002004F0080B500AF094B40222A2118004A
:10086000084B9847064B432212211800054B984726
:10087000054B1800054B9847C046BD4680BDC04695
:10088000001C0040C301000000080040810200007D
:1008900080B500AF064B98470649074B0022180069
:1008A000064B9847064B9847C046BD4680BDC0469C
:1008B00055080000000400439C01002019140000AA
:1008C0002908000080B500AF0A4B18000A4B984772
:1008D0000A4B40221E211800094B9847094B9847A4
:1008E00002000949094B1800094B9847C046BD460C
:1008F00080BDC0460008004027020000001C0040E8
:10090000C30100005D460000003000420C020020E0
:100910008910000080B500AF0A4B18000A4B9847B9
:100920000A4B40221E211800094B9847094B984753
:1009300002000949094B1800094B9847C046BD46BB
:1009400080BDC0460008004045020000001C004079
:10095000C30100005D46000000340042D0010020C9
:100960008910000080B500AF0A4B18000A4B984769
:100970000A4B40221F211800094B9847094B984702
:1009800002000949094B1800094B9847C046BD466B
:1009900080BDC0460008004063020000001C00400B
:1009A000C30100005D4600000038004280010020C5
:1009B0008910000080B500AF064B19002F20064BB0
:1009C0009847064B19002E20034B9847C046BD465A
:1009D00080BDC04606002F004107000006002E0023
:1009E00080B500AF0A4B18000A4B98470A4B4022CB
:1009F0001B211800094B9847094A0A4B110018009F
:100A0000094B9847094B9847C046BD4680BDC04634
:100A100000080040ED010000001C0040C301000080
:100A200000200042A8010020B90A0000B50900001A
:100A300080B500AF084B9847084B9847084B98473C
:100A4000084B9847084B9847084B9847084B9847DE
:100A5000C046BD4680BDC04665070000F5070000E2
:100A600091080000C5080000150900006509000094
:100A7000E109000080B584B000AF7860EFF3108327
:100A8000FB60FA687B681A6072B6BFF35F8FC0467E
:100A9000BD4604B080BD80B584B000AF7860BFF3C0
:100AA0005F8F7B681B68FB60FB6883F31088C04620
:100AB000BD4604B080BD000080B584B000AF786052
:100AC00039607B68002B04D03B68002B01D00123E8
:100AD00000E000231A1C01231340DBB20F4941221E
:100AE00018000F4B98477B683A68110018000D4BAF
:100AF00098470300FB60FB68002B01D0FB6809E00E
:100B00007B68094A5A607B68084A9A607B68084A91
:100B1000DA6000231800BD4604B080BD7077000085
:100B20003D160000AD1C0000E90C00000F0D000098
:100B3000350D000080B582B000AF78607B685A1E2A
:100B40009341DBB206495C221800064B98477B684C
:100B50001800054B984703001800BD4602B080BD41
:100B6000707700003D1600009D1E000080B582B029
:100B700000AF786039607B68002B04D03B68002BA5
:100B800001D0012300E000231A1C01231340DBB233
:100B900007496E221800074B98477B683A68110096
:100BA0001800054B984703001800BD4602B080BDF1
:100BB000707700003D160000BD1E000080B582B0B9
:100BC00000AF786039607B68002B04D03B68002B55
:100BD00001D0012300E000231A1C01231340DBB2E3
:100BE000074977221800074B98477B683A6811003D
:100BF0001800054B984703001800BD4602B080BDA1
:100C0000707700003D160000C91F000080B584B059
:100C100000AFF8607A600B23FB180A1C1A70FB689F
:100C20005A1E9341DBB2164981221800154B984792
:100C30000B23FB181B78012B07D0022B09D0002BAC
:100C40000BD1FB687A681A620AE0FB687A68DA619D
:100C500006E0FB687A685A6202E00D235B420BE013
:100C6000F8687B685A1E9341DAB20B23FB181B7895
:100C70001900054B984700231800BD4604B080BDFD
:100C8000707700003D160000C121000090B585B0CE
:100C900000AFF860080011007B600B23FB18021CFA
:100CA0001A700A23FB180A1C1A70FB685A1E93411B
:100CB000DBB20A49B8221800094B9847F8687C68EB
:100CC0000A23FB181A780B23FB1819782300054C0C
:100CD000A04703001800BD4605B090BD7077000026
:100CE0003D1600006922000080B584B000AF786036
:100CF0007B68FB60FB68DB69002B04D0FB68DB6969
:100D0000FA6810009847C046BD4604B080BD80B563
:100D100084B000AF78607B68FB60FB681B6A002BC7
:100D200004D0FB681B6AFA6810009847C046BD46AD
:100D300004B080BD80B584B000AF78600A00FB1CB1
:100D40001A707B68FB60FB685B6A002B06D0FB684F
:100D50005B6AFA1C1178FA6810009847C046BD46D5
:100D600004B080BD90B583B000AF0200BB1D1A80F7
:100D7000074B1C68BB1D1B881800064B98470300D7
:100D800019002000044B9847C046BD4603B090BDF3
:100D90000C010020B9250000FD26000080B58AB0B6
:100DA00000AFF860B960BB1D1A80FB68143B7B6222
:100DB0007B6A9A8B1423FB181A80BB1D1A88142394
:100DC000FB185A601423FB180C4A5A801423FB1892
:100DD000BA689A607B6A1422BA1811001800084B8E
:100DE000984703003B623B6A002B01D03B6A01E05D
:100DF000BB1D1B881800BD460AB080BD0180FFFFE7
:100E0000453C000080B58AB000AFF860B960BB1DFA
:100E10001A80FB68143B7B627B6A9A8B1423FB1855
:100E20001A80BB1D1A881423FB185A601423FB1860
:100E30000C4A5A801423FB18BA689A607B6A142201
:100E4000BA1811001800084B984703003B623B6A30
:100E5000002B01D03B6A01E0BB1D1B881800BD467A
:100E60000AB080BD0080FFFF453C000080B584B023
:100E700000AF786039607B685A1E9341DBB20E493F
:100E80005E2218000D4B98477B683A6811001800E5
:100E90000B4B98470300FB60FB68002B01D0FB68FD
:100EA00006E07B68074A9A617B68074A5A6100231B
:100EB0001800BD4604B080BD8C7700003D160000D0
:100EC000213A00009D0D0000050E000080B582B0A3
:100ED00000AF78607B681800034B98470300180048
:100EE000BD4602B080BDC046693A000080B584B0FE
:100EF00000AFF8607A600A23FB180A1C1A800A23E4
:100F0000FB181B889B059B0D1AB27B6819B28023C6
:100F1000DB000B401BB213431BB29AB2FB689A83EF
:100F2000FB689B8B1800BD4604B080BD80B588B0BF
:100F300000AFF860B960FB1D1A70FB689A8B102334
:100F4000FB181A80FB1D1A781023FB185A60102317
:100F5000FB180C4A5A801023FB18BA689A60FB6889
:100F60001022BA1811001800074B98470300FB61C4
:100F7000FB69002B01D0FB6900E000231800BD468F
:100F800008B080BD0080FFFF453C000080B582B006
:100F900000AF786039607B6814331A003B681A60D0
:100FA00000231800BD4602B080BD000080B584B0AB
:100FB00000AFF860B960BB1D1A80FB68002B04D03D
:100FC000BB68002B01D0012300E000231A1C012381
:100FD0001340DBB2084934221800084B9847FB68DD
:100FE0001B68BA1D1288B968F86898470300180092
:100FF000BD4604B080BDC046A87700003D16000085
:1010000080B584B000AFF860B960BB1D1A80FB6882
:10101000002B04D0BB68002B01D0012300E000238B
:101020001A1C01231340DBB208493D221800084B6B
:101030009847FB685B68BA1D1288B968F8689847DA
:1010400003001800BD4604B080BDC046A87700006C
:101050003D16000080B582B000AF78607B681B68E9
:101060001800BD4602B080BD80B582B000AF786088
:101070007B68002B02D07B681B6800E0002318000F
:10108000BD4602B080BD000080B584B000AFF860FE
:10109000B9607A60FB68002B04D0BB68002B01D0DC
:1010A000012300E000231A1C01231340DBB20B498B
:1010B0003B2218000A4B9847FB68BA6811001800D9
:1010C000084B9847FB6800221A61FB68064A1A60C1
:1010D00000231800BD4604B080BDC046BC770000A8
:1010E0003D160000E94200005513000080B582B0B3
:1010F00000AF78607B685A1E9341DBB20B495322E4
:1011000018000B4B98477B6818000A4B9847031E42
:1011100002D011235B4204E07B681800064B98471D
:1011200000231800BD4602B080BDC046BC77000059
:101130003D1600003D460000FD45000080B582B030
:1011400000AF78607B685A1E9341DBB20D49612283
:1011500018000D4B98477B6818000C4B984703000C
:101160001A0001235340DBB2002B02D011235B4253
:1011700004E07B681800064B984700231800BD4622
:1011800002B080BDBC7700003D1600003D46000067
:101190001D46000080B584B000AF786039607B6880
:1011A000002B04D03B68002B01D0012300E000237A
:1011B0001A1C01231340DBB22E497A2218002E4B51
:1011C00098477B681B7EDBB201221343DAB27B684F
:1011D0001A767B6814333A6811001800274B984739
:1011E000031E10D07B681B7EDBB201229343DAB270
:1011F0007B681A761F4B7F22190000201E4B9847F0
:1012000012235B4232E07B681A693B685A607B6854
:10121000143318007B681A693B681900184B98470B
:101220007B681B7EDBB201229343DAB27B681A76BD
:101230007B681B7EDBB21A000223134015D00C23FF
:10124000FB1818000F4B98477B681B7EDBB202220D
:101250009343DAB27B681A767B6818000A4B98478A
:101260000C23FB181800094B984700231800BD46B3
:1012700004B080BDBC7700003D1600006916000078
:1012800091120000750A000069460000970A0000EC
:1012900080B588B000AFF860B9607A600023BB61A8
:1012A000FB681800274B984703003B613B69002B04
:1012B00006D1BA68FB6811001800234B98473DE03F
:1012C0003B69FB6124E0FB695A687B689A4208D855
:1012D000FB699A68FB6959687B68CB1AD3187B61F4
:1012E00009E0FB699A68FB695B68D2187B685B421E
:1012F000D31801337B61BB689A687B699A420BD92A
:10130000FB69BB61FB691800104B98470300FB6148
:10131000FB69002BD7D100E0C046FA693B699A42CD
:1013200006D1BA68FB6811001800074B984705E022
:10133000BA68BB6911001800054B9847BD4608B054
:1013400080BDC046551000009D16000069100000C9
:10135000F516000080B586B000AF78607B683B6111
:101360003B6914331800294B984703007B613B69A4
:101370001B695A1C3B691A613B691B69FB603B692D
:101380001B7EDBB21A000123134006D13B691B7E92
:10139000DBB21A000223134029D03B691B7EDBB26B
:1013A00002221343DAB23B691A762BE07B69BB60F9
:1013B0003B6914331800164B9847BB681B7C012B04
:1013C00009D1BB68FA685A603B691433FA68B96896
:1013D0001800104B98473B69143318000B4B984783
:1013E00003007B61BB68DB68BA68100098477B69C3
:1013F000002B07D07B695B68FA68D21A7B699B680F
:101400009A42D3D2BD4606B080BDC04655100000FA
:10141000151700009112000080B586B000AFF8608B
:10142000B9607A60FB68002B04D0BB68002B01D048
:10143000012300E000231A1C01231340DBB20F49F3
:10144000342218000E4B9847FB680833BA68110025
:1014500018000C4B984703007B617B69002B01D07F
:101460007B6906E0FB68084A5A60FB68074A1A6015
:1014700000231800BD4606B080BDC046D4770000EA
:101480003D16000029330000A1150000CD14000016
:1014900080B582B000AF78607B685A1E9341DBB2A2
:1014A000074953221800074B98477B6808331800F8
:1014B000054B984700231800BD4602B080BDC046CA
:1014C000D47700003D1600006933000080B586B077
:1014D00000AFF860B960BB1D1A8000237B61FB6818
:1014E0003B61FB68002B08D0BB68002B05D0BB1DFF
:1014F0001B88002B01D0012300E000231A1C0123CC
:101500001340DBB22149F1221800214B9847C04615
:101510003B69083318001F4B984703001A0001234A
:101520005340DBB2002BF3D13B6908331800BA6893
:101530007B69D3181B781900174B9847C0463B6945
:1015400008331800134B984703001A000123534037
:10155000DBB2002BF3D17B6901337B61BB1D1B88A0
:101560007A699A42E0D3C0463B69083318000B4BB6
:10157000984703001A0001235340DBB2002BF3D13C
:101580007B691800BD4606B080BDC046D477000018
:101590003D160000D933000089330000F933000004
:1015A00090B587B000AFF860B960BB1D1A8000230A
:1015B0007B61FB683B61FB68002B08D0BB68002B9C
:1015C00005D0BB1D1B88002B01D0012300E00023A8
:1015D0001A1C01231340D8B286235A00134B19005A
:1015E000134B9847C0463B6908331800114B984786
:1015F00003001A0001235340DBB2002BF3D1BA6879
:101600007B69D4183B69083318000B4B98470300DB
:1016100023707B6901337B61BB1D1B887A699A4209
:10162000E0D37B691800BD4607B090BDD4770000B9
:101630003D16000019340000B533000080B584B0B9
:1016400000AFB9607A600F23FB18021C1A700F23D9
:10165000FB181B7801225340DBB2002B00D000BEE8
:10166000C046BD4604B080BD80B584B000AF786090
:1016700039607B681B68FB6008E0FA683B689A4247
:1016800001D1012306E0FB681B68FB60FB68002BAF
:10169000F3D100231800BD4604B080BD80B582B0F0
:1016A00000AF786039603A687B68110018000E4B13
:1016B000984703005A1E9341DBB201225340DBB22C
:1016C0001A1C01231340DBB2084939221800084BC9
:1016D00098477B681A683B681A607B683A681A60AA
:1016E000C046BD4602B080BD69160000F07700001C
:1016F0003D16000080B582B000AF786039607B682D
:101700001A683B681A607B683A681A60C046BD4632
:1017100002B080BD80B584B000AF78607B681B6884
:10172000002B09D07B681B68FB607B681B681A680C
:101730007B681A60FB6800E000231800BD4604B017
:1017400080BD000080B584B000AF78600A4B1B6894
:10175000002B02D1084B094A1A60074B1B68FB603B
:10176000054B1A687B68D218034B1A60FB68180097
:10177000BD4604B080BDC04610010020D03E002010
:1017800080B582B000AF786001235B421800BD468F
:1017900002B080BD80B582B000AF786039603B6830
:1017A000802292015A6000231800BD4602B080BD1D
:1017B00080B582B000AF786001231800BD4602B04A
:1017C00080BD80B584B000AFF860B9607A60002356
:1017D0001800BD4604B080BD80B582B000AF0200E5
:1017E000FB1D1A70FB1D1B787F2B09D8064BFA1DB9
:1017F000127811001F220A40012191400A001A604C
:10180000C046BD4602B080BD00E100E080B582B0B8
:1018100000AF0200FB1D1A70FB1D1B787F2B0ED83A
:101820000949FB1D1B781A001F23134001229A400F
:10183000130080228B50BFF34F8FBFF36F8FC046D2
:10184000BD4602B080BDC04600E100E080B582B078
:1018500000AF0200FB1D1A70FB1D1B787F2B0AD8FE
:101860000749FB1D1B781A001F23134001229A40D1
:10187000C0235B00CA50C046BD4602B080BDC04612
:1018800000E100E080B582B000AF78607B685B6CFF
:101890005B09012213405A1E9341DBB21800BD467A
:1018A00002B080BD80B582B000AF78607B68A422B2
:1018B0009B587F2213401800BD4602B080BD80B502
:1018C00082B000AF78607B68A4229B581B0A3F223D
:1018D00013401800BD4602B080BD80B582B000AF95
:1018E00078607B68C4229B585B0D012213405A1E0E
:1018F0009341DBB21800BD4602B080BD80B582B016
:1019000000AF78607B68C4229B581B0C1F221340D9
:101910001800BD4602B080BD80B582B000AF7860CF
:1019200039607B683A689A60C046BD4602B080BDA7
:1019300080B582B000AF786039607B683A68DA6061
:10194000C046BD4602B080BD80B582B000AF7860B1
:101950007B689B6901221A437B689A61C046BD4639
:1019600002B080BD80B584B000AF78607B689B69B1
:10197000FB60FB6801221340FB60FB685A1E934129
:10198000DBB21800BD4604B080BD80B582B000AFA8
:1019900078607B689B69012293431A007B689A6197
:1019A000C046BD4602B080BD80B582B000AF786051
:1019B0007B689B6902221A437B689A61C046BD46D8
:1019C00002B080BD80B582B000AF78607B689B6953
:1019D000022293431A007B689A61C046BD4602B05A
:1019E00080BD80B584B000AF78607B689B69FB6088
:1019F000FB681B0A01221340FB60FB685A1E9341DF
:101A0000DBB21800BD4604B080BD80B584B000AF25
:101A100078607B689B69FB60FB685B0A012213406E
:101A2000FB60FB685A1E9341DBB21800BD4604B050
:101A300080BD80B582B000AF786039607B689A69FC
:101A40003B681A437B689A61C046BD4602B080BDC0
:101A500080B582B000AF786039607B683A68DA613F
:101A6000C046BD4602B080BD80B582B000AF786090
:101A700039607B683A681A65C046BD4602B080BDD1
:101A800080B582B000AF78607B681B6D1800BD46E2
:101A900002B080BD80B584B000AF78600A00FB1C46
:101AA0001A707B685B6DFB60FB6801229343FB60EF
:101AB000FB1C1B78FA681343FB607B68FA685A6565
:101AC000C046BD4604B080BD80B584B000AF78602C
:101AD0000A00FB1C1A707B685B6DFB60FB68084AA0
:101AE0001340FB60FB1C1B785B021A00FB6813436E
:101AF000FB607B68FA685A65C046BD4604B080BD8D
:101B0000FFFDFFFF80B584B000AF786039607B686F
:101B10005B6DFB60FB683A681340FB60FB68180074
:101B2000BD4604B080BD80B582B000AF786039603A
:101B30007B683A685A65C046BD4602B080BD80B534
:101B400082B000AF786039607B683A68DA65C04679
:101B5000BD4602B080BD80B582B000AF786039600C
:101B60007B6880213A685A50C046BD4602B080BDAD
:101B700080B582B000AF786039607B6884213A68B4
:101B80005A50C046BD4602B080BD80B582B000AF9D
:101B9000786039607B6888213A685A50C046BD46F3
:101BA00002B080BD80B582B000AF786039607B68DC
:101BB00090213A685A50C046BD4602B080BD80B5FB
:101BC00082B000AF786039607B68A0213A685A50D3
:101BD000C046BD4602B080BD80B584B000AF78601D
:101BE00039607B68A8229B58FB60FB683F229343C7
:101BF000FB603B683F221340FA681343FB607B683D
:101C0000A821FA685A50C046BD4604B080BD80B5D0
:101C100082B000AF786039607B68BC213A685A5066
:101C2000C046BD4602B080BD80B582B000AF7860CE
:101C300039607B68C0213A685A50C046BD4602B040
:101C400080BD80B582B000AF786039607B68C82104
:101C50003A685A50C046BD4602B080BD80B582B0D9
:101C600000AF786039607B68D0213A685A50C0462E
:101C7000BD4602B080BD80B582B000AF78603960EB
:101C80007B68E0213A685A50C046BD4602B080BD2C
:101C900080B582B000AF786039607B68F0213A6827
:101CA0005A50C046BD4602B080BD000080B582B02B
:101CB00000AF786039607B683A681A607B681B689F
:101CC0001800564B9847C0467B681B681800544B59
:101CD000984703001A0001235340DBB2002BF3D1D5
:101CE0007B681B6818004F4B98473B684E4A9342ED
:101CF0007DD14E4B7A681A607B684D4A9A617B6849
:101D00001B68002118004B4B98477B681B68022119
:101D10001800494B98477B681B68484A1100180017
:101D2000474B98477B681B68464A11001800464B92
:101D300098477B681868454B1B041B0C8022D20314
:101D400013431900424B98477B681B680021180019
:101D5000404B98477B681B68002118003E4B984712
:101D60007B6818683D4B1B041B0CA022D204134354
:101D700019003B4B98477B6818683A4B1B041B0CB7
:101D80008022920213431900374B98477B681B68E7
:101D900028211800354B98477B681868344B1B0482
:101DA0001B0C8022920213431900324B98477B6828
:101DB0001868314B1B041B0C80229202134319003C
:101DC0002E4B98477B681B68002118002C4B9847C6
:101DD00010202C4B984710202B4B984710202B4B52
:101DE00098477B681B6801211800294B98477B683E
:101DF0001B681800274B98477B681B681800264B08
:101E00009847C0467B681B681800054B9847031E1F
:101E1000F8D100231800BD4602B080BD491900006A
:101E200065190000A9190000002000423C010020B3
:101E300000000020331A000019190000070A0206EA
:101E4000511A0000330A0000311900007802002006
:101E5000BF1B00000F1C0000431C000028020020D4
:101E6000291C000014010020911C0000571B0000D9
:101E700024010020711B00002C0100208B1B00009E
:101E8000A51B00000D1800004D180000D917000018
:101E90003F1B0000C51900008B19000080B582B0FF
:101EA00000AF78607B681B681800034B98470023DD
:101EB0001800BD4602B080BD8B19000090B589B0F6
:101EC00000AF786039600023FB617B681B681800F5
:101ED000364B9847031E02D10A235B4261E07B68C0
:101EE0001B681800324B98470300BB617B681B6876
:101EF000304A934204D1BB691A012F4BD318FB61BE
:101F0000FB69002B02D11C235B424AE0FB691B6882
:101F10005B00DB0FDBB2012B0AD13B6801225A7355
:101F2000FB691B68DB00DB081A003B681A600AE0EB
:101F30003B6800225A73FB691B68DB00DB089B14BB
:101F40001A003B681A60FB691B689B00DB0FDBB261
:101F5000012B02D13B6801221A710823FB18174A92
:101F600013CA13C312681A60FB695B681B031B0F5B
:101F7000DBB21A000823FB189A5C3B681A733B68B3
:101F80009868FB69083319003B681B7B1A000C4BEF
:101F900098477B681B68BA6911001800094B98477D
:101FA00000231800BD4609B090BDC046A51800002A
:101FB000BF180000002000427802002010780000C6
:101FC00079660000D91B000090B585B000AF78603D
:101FD00039600023FB607B681B6818006D4B9847D5
:101FE000031E02D01C235B42CFE07B681B681800F5
:101FF000694B98470300BB607B681B68674A934244
:1020000004D1BB681A01664BD318FB60FB68002B38
:1020100002D11C235B42B8E03B685B7B012B0AD1F9
:102020003B681A68FB681A60FB681A688021C9055A
:102030000A431A6004E03B681B689A04FB681A6054
:102040003B681B7B082B0FD83B681B7B1A1C0F239C
:102050001340D9B2FB685A680F2001400904514867
:1020600002400A435A6057E03B681B7B0C2B08D8A0
:10207000FB685A684B490A40902109030A435A6099
:102080004AE03B681B7B102B08D8FB685A6845491F
:102090000A40A02109030A435A603DE03B681B7BCC
:1020A000142B08D8FB685A683E490A40B02109033E
:1020B0000A435A6030E03B681B7B182B08D8FB684A
:1020C0005A6838490A40C02109030A435A6023E08C
:1020D0003B681B7B202B08D8FB685A6831490A40B3
:1020E000D02109030A435A6016E03B681B7B302B62
:1020F00008D8FB685A682B490A40E02109030A43C3
:102100005A6009E03B681B7B402B05D8FB685A6886
:10211000F02109030A435A607B681B681800224BB0
:10212000984703001800FB685A68012101404905DF
:102130001E4802400A435A607B681B6818001C4B0B
:10214000984703001800FB685A68012101400905FF
:10215000184802400A435A60FB68083318003B687D
:1021600099683B681B7B1A00134B98477B681C6877
:102170007B681B681800084B9847020001239340B6
:10218000190020000D4B984700231800BD4605B0EC
:1021900090BDC046DB180000FD1800000020004282
:1021A00028020020FFFFF0FFE3190000FFFFDFFF20
:1021B0000B1A0000FFFFEFFF796600005D1C0000B6
:1021C00080B584B000AF786008001100FB1C021CD1
:1021D0001A70BB1C0A1C1A70FB1C1B78002B08D140
:1021E0007B681A68BB1C1B7819001000184B9847B5
:1021F00029E0FB1C1B78012B10D17B681A68BB1CE3
:102200001B7819001000134B98477B681A6801234C
:102210005B4219001000104B984714E0FB1C1B7820
:10222000022B10D17B681B680C4A110018000C4B64
:1022300098470300FB607B681B68FA681100180070
:10224000084B9847C046C046BD4604B080BDC04656
:10225000951A0000C91A0000771C00000102000056
:10226000051B0000271B000080B586B000AFF8609A
:10227000080011007B600B23FB18021C1A700A2354
:10228000FB180A1C1A70FB689B69DA680B23FB18A1
:102290001B789B00D3187B61FB689B691A690B2331
:1022A000FB181B78DB00D3183B610A23FB181B7853
:1022B000002B2BD17B68002B04D17B6900221A6094
:1022C000002349E07B685A687B691A607B681B6859
:1022D0009BB25B055B0D99B27B691A684905490D94
:1022E00009041F4802400A431A607B691A68920079
:1022F0009208802109060A431A607B691A68194905
:102300000A40802109050A431A6024E00A23FB18C9
:102310001B78012B1FD17B68002B04D13B69002265
:102320001A60002318E07B681A683B691A603B69F1
:102330001A68D200D208802189050A431A607B6896
:102340005A683B695A603B695A689200920880213A
:1023500009060A435A6000231800BD4606B080BD36
:10236000FFFF00F8FFFFFFC790B583B000AF2E4B13
:102370001B687B607B681B6818002C4B9847030028
:102380003B603B680122134004D07B689B687A68FD
:10239000100098473A6880239B00134004D07B6864
:1023A0005B687A68100098473A6880239B04134062
:1023B00005D07B68DB687A680321100098473A688B
:1023C00080235B04134005D07B68DB687A680021BA
:1023D000100098473A6880231B0413400FD07B6895
:1023E000DC687B681B681800114B9847031E01D0FE
:1023F000022300E001237A6819001000A0473B681F
:102400000822134005D07B68DB687A68042110003D
:1024100098477B681B683A6811001800054B98477D
:10242000C046BD4603B090BD3C010020811A0000AB
:1024300085180000691A000080B582B000AF020064
:10244000FB1D1A70FB1D1B787F2B0AD80749FB1D4B
:102450001B781A001F23134001229A4080235B003F
:10246000CA50C046BD4602B080BDC04600E100E093
:1024700080B582B000AF0200FB1D1A70FB1D1B78F7
:102480005BB21800024B9847C046BD4602B080BD03
:102490003924000090B583B000AF39601100BB1D36
:1024A000021C1A807B1D0A1C1A707B1D1B78043BC2
:1024B000042B5AD89A00344BD3181B689F46BB1D77
:1024C0001C883A68314B3249100098470300634337
:1024D0001D331A002D4B1E211000984703004FE0BA
:1024E000BB1D1C883A68294B2A49100098470300F5
:1024F00063432C33FF331800244B96225100984736
:1025000003003DE0BB1D1C883868204BFA22910077
:10251000984703006343204A9A181C4B1F49100038
:10252000984703002CE0BB1D1C883A68174B6421B8
:102530001000984703006343194A9A18134B19492E
:102540001000984703001BE0BB1D1C883A680F4B26
:102550000A211000984703006343134A9A180B4B53
:1025600012491000984703000AE0BB1D1B883A6817
:1025700053430F4A9A18054B0E4910009847030021
:102580001800BD4603B090BD4478000059280000F3
:10259000A086010010270000B70B0000B80B000058
:1025A0002F75000030750000DF930400E0930400F5
:1025B000BFC62D00C0C62D0080B582B000AF02009E
:1025C000BB1D1A800549BB1D1B8808221800044B3F
:1025D000984703001800BD4602B080BD0068DC02C9
:1025E0009524000090B583B000AF39601100BB1D89
:1025F000021C1A807B1D0A1C1A707B1D1B78043B71
:10260000042B5FD89A00374BD3181B689F46BB1D1D
:102610001C883A68344B35491000984703006343DF
:102620009A1C314B03211000984703001A006423C1
:10263000534352E0BB1D1C883A682B4B2C491000B9
:102640009847030063439A1C274B032110009847C7
:1026500003001A0013009B009B185B003DE0BB1DAC
:102660001C883868204BFA22910098470300634386
:102670009A1C1D4B03211000984703002DE0BB1D41
:102680001C883A68184B6421100098470300634384
:102690001D331A00144B1E211000984703001CE044
:1026A000BB1D1C883A68104B0A2110009847030094
:1026B00063432C33FF3318000B4B9622510098478D
:1026C00003000AE0BB1D1B883A685343094A9A1865
:1026D000054B09491000984703001800BD4603B098
:1026E00090BDC0465878000059280000A08601001F
:1026F00010270000B70B0000B80B000080B582B0B7
:1027000000AF786039600139FDD8C046BD4602B0DF
:1027100080BD80B582B000AF786039607B685A6850
:102720003B685B001E210B401A437B685A60C04621
:10273000BD4602B080BD000080B500AF0A4B02214B
:1027400018000A4B98470A4B98470A4B98470A4B80
:1027500098470A4B9847FF20094B9847094B9847E1
:10276000C046BD4680BDC046004000411327000062
:10277000B52A0000792C0000E5290000912C00000A
:10278000952900003D28000080B584B000AF786036
:102790000A00FB1C1A700F23FB187A6812781A7053
:1027A0000F23FB180F22BA18127802218A431A70DD
:1027B000FB1C1B785B005AB20F23FB181B785BB223
:1027C00013435AB20F23FB181A707B680F22BA18F2
:1027D00012781A70C046BD4604B080BD80B584B082
:1027E00000AFB9607A600F23FB18021C1A709023A7
:1027F000DA050F23FB181B7801210B40D9B213789F
:102800000120084001218B43191C031C0B4313704A
:102810009023DB05BA689A609023DB057A68DA605A
:10282000C0469023DB051B79DB07DB0FDBB2002BF7
:10283000F7D1C046BD4604B080BD000080B500AFF2
:102840009023DB0500211800024B9847C046BD4687
:1028500080BDC0468927000080B586B000AF786093
:102860003960EFF31083FB60FB68BB6072B63A68B7
:102870007B6819000020084B98479023DB051B69F3
:102880007B61BB683B613B6983F310887B691800FF
:10289000BD4606B080BDC046DD27000090B589B0BA
:1028A00000AF78603960EFF310833B613B69FB60F8
:1028B00072B67B683A6819000120094B9847094BAA
:1028C0005C681B68BB61FC61FB687B617B6983F3AF
:1028D0001088BB69FC6918002100BD4609B090BD95
:1028E000DD2700001000004890B589B000AF786087
:1028F0003960EFF310833B613B69FB6072B63A6865
:102900007B6819000020094B9847094B5C681B68DD
:10291000BB61FC61FB687B617B6983F31088BB69E9
:10292000FC6918002100BD4609B090BDDD270000FC
:102930001000004880B582B000AF78603960C046B2
:102940007B685B683A681340FAD1C046BD4602B066
:1029500080BD000080B584B000AFF8607A600B23C2
:10296000FB180A1C1A700B23FB181A78FB68083234
:1029700092007968D150054AFB6811001800044B99
:102980009847C046BD4604B080BDC046FD07000064
:102990003529000080B582B000AF78607B680122E5
:1029A000134005D0044A054B00211800044B9847FA
:1029B000C046BD4602B080BD07010100001C0040BA
:1029C0005529000080B582B000AF78600A00FB1C7A
:1029D0001A707B68FA1C12781A71C046BD4602B0A4
:1029E00080BD000080B582B000AF054B7B607B6886
:1029F00001211800034B9847C046BD4602B080BD78
:102A000000080040C529000080B582B000AF7860A2
:102A100039607B683A681A61C046BD4602B080BD25
:102A200080B582B000AF78600A00BB1C1A807B685A
:102A3000BA1C12889A82C046BD4602B080BD80B5DD
:102A400082B000AF78600A00FB1C1A707B68FA1C29
:102A500012789A75C046BD4602B080BD80B582B07E
:102A600000AF78600A00FB1C1A707B68FA1C1278B1
:102A7000DA75C046BD4602B080BD80B584B000AFF7
:102A800078607B68DB69FB60FB681B0A1F221340D0
:102A9000FB60FB681800BD4604B080BD80B582B005
:102AA00000AF786039607B683A68DA61C046BD463D
:102AB00002B080BD80B582B000AF184B7B60BB1CFC
:102AC00000221A807B688E211800154B98477B687E
:102AD00000211800134B98477B6800211800124B07
:102AE00098477B681800114B98470200BB1C1A805E
:102AF000BB1C1B881B021A00F8235B011A407B6871
:102B0000110018000A4B98477B6801211800094BF7
:102B10009847C046BD4602B080BDC0460014004084
:102B2000212A00003F2A00005D2A00007B2A0000C5
:102B30009D2A0000092A000080B582B000AF7860AD
:102B40000A00FB1C1A70C0467B682C229B5CDBB21F
:102B5000FA1C12781340DBB2002BF5D1C046BD46FB
:102B600002B080BD80B582B000AF78607B68302253
:102B70009B5CDBB21A00012313405A1E9341DBB267
:102B80001800BD4602B080BD80B582B000AF78604D
:102B90007B6830229B5CDBB25B08012213405A1E2B
:102BA0009341DBB21800BD4602B080BD80B582B053
:102BB00000AF78607B681B7FDBB2802252421343F8
:102BC000DAB27B681A777B680E211800024B9847AF
:102BD000C046BD4602B080BD392B000080B582B032
:102BE00000AF78600A00FB1C1A707B68FA1C127830
:102BF0001A777B6802211800024B9847C046BD46F1
:102C000002B080BD392B000080B582B000AF786083
:102C100039607B683A681A627B680E211800034BA2
:102C20009847C046BD4602B080BDC046392B000063
:102C300080B582B000AF786039607B683A685A62CC
:102C4000C046BD4602B080BD80B582B000AF78609E
:102C50000A00FB1C1A707B68FA1C282112785A544F
:102C60007B680E211800034B9847C046BD4602B052
:102C700080BDC046392B000080B582B000AF034B49
:102C80007B60C046BD4602B080BDC046001000401B
:102C900080B582B000AF1B4B7B601B4A7B68110084
:102CA00018001A4B98477B6800211800184B98476A
:102CB0007B6800211800174B98477B680221180099
:102CC000154B9847C0467B681800144B9847030083
:102CD0001A0001235340DBB2002B0AD07B68180096
:102CE0000F4B984703001A0001235340DBB2002B1F
:102CF000E9D17B6818000B4B9847C046BD4602B02F
:102D000080BDC04600100040B7050D00092C000032
:102D1000312C0000492C0000DD2B0000652B000049
:102D2000892B0000AD2B000080B582B000AF786029
:102D30003960C0467B68DB693A681340FAD1C04607
:102D4000BD4602B080BD80B582B000AF786039600A
:102D50007B68DB693A6813405A1E9341DBB2180066
:102D6000BD4602B080BD80B582B000AF78603960EA
:102D7000C0467B68DB693A681340FAD1C046BD465D
:102D800002B080BD80B582B000AF786039607B68EA
:102D9000DB693A6813405A1E9341DBB21800BD4606
:102DA00002B080BD80B582B000AF78607B68012240
:102DB0001A76C046BD4602B080BD80B582B000AF75
:102DC00078607B6802221A76C046BD4602B080BD9C
:102DD00080B582B000AF78607B681B7EDBB21800E4
:102DE000BD4602B080BD80B582B000AF78607B6820
:102DF0001B7EDBB21A00012313405A1E9341DBB243
:102E00001800BD4602B080BD80B582B000AF7860CA
:102E10007B681B7EDBB25B08012213405A1E934184
:102E2000DBB21800BD4602B080BD80B582B000AFF5
:102E300078607B681B7EDBB29B08012213405A1E20
:102E40009341DBB21800BD4602B080BD80B582B0B0
:102E500000AF78607B681B6802221A437B681A60A7
:102E60007B6803211800034B9847C046BD4602B05B
:102E700080BDC046292D000080B582B000AF7860CB
:102E80007B681B68022293431A007B681A607B6888
:102E900003211800024B9847C046BD4602B080BDD2
:102EA000292D000080B584B000AF78607B681B6876
:102EB000FB60FB68DB0E01221340FB60FB685A1EBF
:102EC0009341DBB21800BD4604B080BD80B584B02C
:102ED00000AF786039607B6803211800064B984783
:102EE0007B681B68FB60FB683A681340FB60FB680B
:102EF0001800BD4604B080BD292D000080B582B009
:102F000000AF786039607B683A681A607B6803219B
:102F10001800034B9847C046BD4602B080BDC0466E
:102F2000292D000080B582B000AF78607B681B68F7
:102F300002221A437B681A607B6803211800034B46
:102F40009847C046BD4602B080BDC046672D000010
:102F500080B582B000AF78607B681B680222934323
:102F60001A007B681A607B6803211800024B98479F
:102F7000C046BD4602B080BD672D000080B584B05C
:102F800000AF786039607B6803211800064B9847D2
:102F90007B681B68FB60FB683A681340FB60FB685A
:102FA0001800BD4604B080BD672D000080B582B01A
:102FB00000AF786039607B683A681A607B680321EB
:102FC0001800034B9847C046BD4602B080BDC046BE
:102FD000672D000080B582B000AF78607B685B68C9
:102FE000802252001A437B685A607B6807211800D0
:102FF000024B9847C046BD4602B080BD292D000057
:1030000080B582B000AF78607B685B68064A1A4082
:103010007B685A607B6807211800044B9847C046BC
:10302000BD4602B080BDC046FFFEFFFF292D000057
:1030300080B582B000AF78607B685B688022D20286
:103040001A437B685A607B6807211800024B984737
:10305000C046BD4602B080BD292D000080B582B0BB
:1030600000AF78607B685B68064A1A407B685A60EC
:103070007B6807211800044B9847C046BD4602B044
:1030800080BDC046FFFFFBFF292D000080B582B048
:1030900000AF786039607B685A683B681904C023C8
:1030A0009B020B401A437B685A607B68042118001E
:1030B000024B9847C046BD4602B080BD292D000096
:1030C00080B582B000AF786039607B683A685A603A
:1030D0007B6807211800034B9847C046BD4602B0E5
:1030E00080BDC046292D000080B582B000AF786059
:1030F00039607B683A685A607B6807211800034B87
:103100009847C046BD4602B080BDC046672D00004E
:1031100080B582B000AF786039607B683A68DA6069
:10312000C046BD4602B080BD80B582B000AF7860B9
:103130000A00BB1C1A807B68BA1C12889A81C046A0
:10314000BD4602B080BD80B582B000AF78600A0095
:10315000FB1C1A707B68FA1C12789A73C046BD4635
:1031600002B080BD80B584B000AF78600A00FB1C5F
:103170001A707B685B6AFB60FB680B4A1340FB605C
:10318000FB1C1B789B031A00FB681343FB607B68E6
:10319000FA685A627B6804211800044B9847C046BD
:1031A000BD4604B080BDC046FFBFFFFF292D000013
:1031B00080B582B000AF786039607B683A685A6247
:1031C0007B6804211800034B9847C046BD4602B0F7
:1031D00080BDC046292D000080B582B000AF786068
:1031E0007B6804211800044B98477B685B6A1800D1
:1031F000BD4602B080BDC046292D000080B582B01A
:1032000000AF78600A00FB1C1A707B68FA1C28214A
:1032100012785A547B6804211800034B9847C04623
:10322000BD4602B080BDC046292D000080B582B0E9
:1032300000AF78607B6804211800054B98477B68D5
:1032400028229B5CDBB21800BD4602B080BDC046A0
:10325000292D000080B582B000AF78600A00BB1C49
:103260001A807B68BA1C12881A85C046BD4602B017
:1032700080BD80B582B000AF78607B681B8D9BB24B
:103280001800BD4602B080BD80B582B000AF786046
:103290000A00FB1C1A707B68FA1C302112785A5401
:1032A000C046BD4602B080BD80B582B000AF786038
:1032B0007B6804211800074B98477B685B8B9BB2A7
:1032C0001B099BB2032213409BB21800BD4602B0FB
:1032D00080BDC046292D000080B582B000AF786067
:1032E0007B6804211800044B98477B685B8B9BB27A
:1032F0001800BD4602B080BD292D000080B582B007
:1033000000AF78600A00BB1C1A807B68BA1C128868
:103310005A837B6804211800024B9847C046BD467B
:1033200002B080BD292D000080B582B000AF78606A
:1033300039607B685A1E9341DBB20849B4221800F9
:10334000074B98477B683A681A603B681800054B42
:10335000984703001800BD4602B080BD6C7800009D
:103360003D1600001535000080B582B000AF7860D2
:103370007B681B681800034B9847C046BD4602B0E7
:1033800080BDC046252F000080B582B000AF7860B8
:103390000A00FB1C1A707B681A68FB1C1B789BB226
:1033A00019001000024B9847C046BD4602B080BDD0
:1033B0005532000080B582B000AF78607B681B6832
:1033C0001800044B98470300DBB21800BD4602B05A
:1033D00080BDC0467332000080B582B000AF786017
:1033E0007B681B681800034B984703001800BD4614
:1033F00002B080BDE72D000080B582B000AF7860DC
:103400007B681B681800034B984703001800BD46F3
:1034100002B080BD092E000080B582B000AF786098
:103420007B681B681800034B984703001800BD46D3
:1034300002B080BD2B2E000090B58DB000AF78603B
:103440000C23FB18104A13CA13C313CA13C303CAAD
:1034500003C30023FB620EE00C23FB18FA6A920000
:10346000D3581A007B689A4202D1FB6ADBB206E0AD
:10347000FB6A0133FB62FB6A072BEDD900231800BE
:10348000BD460DB090BDC0468878000090B585B0AF
:1034900000AF78600E23FC187B681800184B984723
:1034A000030023700F23FB1800221A7018E00F236B
:1034B000FB181A78134913009B009B189B005B5C58
:1034C0000E22BA1812789A4203D10F23FB181B78E8
:1034D00012E00F23FB181A780F23FB1801321A7021
:1034E0000F23FB181B78002BE1D0074A074B19006C
:1034F0000020074B984700231800BD4605B090BD3B
:1035000039340000140000203D0200006C780000F7
:103510003D16000090B585B000AF78600F23FC1811
:103520007B6818006F4B9847030023707B6801216C
:1035300018006D4B984703001A0001235340DBB27B
:10354000002B25D00F23FB181A78684913009B0025
:103550009B189B00CB1804331B681C221340BB60D4
:103560007B6802211800624B9847031E08D07B68D5
:103570001800604B98477B68022118005E4B984703
:10358000BB6801221A437B68110018005B4B984707
:103590007B6801211800584B98470F23FB181A78B5
:1035A000524913009B009B189B00CB1804331A68E8
:1035B0007B6811001800514B98470F23FB181A78AD
:1035C0004A4913009B009B189B00CB1808331A68CC
:1035D0007B68110018004A4B98470F23FB181A7894
:1035E000424913009B009B189B00CB1804331A68B8
:1035F00080239B0113400ED10F23FB181A783B49FF
:1036000013009B009B189B00CB1804331A68C0233F
:10361000DB01134030D00F23FB181A783349130015
:103620009B009B189B00CB180C331B88DB04DB0C26
:1036300099B27A689389C904C80C5B0B5B03191CA7
:10364000031C0B4393810F23FB181A78274913009F
:103650009B009B189B00CB180E331B781A1C07236A
:103660001340D9B27A6893894803DB04DB0C191C38
:10367000031C0B4393810FE00F23FB181A781B499F
:1036800013009B009B189B00CB180C331A887B6897
:10369000110018001B4B98470F23FB181A78134989
:1036A00013009B009B189B00CB180F331A787B6884
:1036B00011001800144B98470F23FB181A780B4978
:1036C00013009B009B189B00CB1810331A787B6863
:1036D000110018000D4B984700231800BD4605B097
:1036E00090BDC0468D340000852D000014000020E0
:1036F0007D2F0000512F0000672D0000AD2F00002E
:10370000E930000029310000473100008932000013
:1037100090B585B000AF78600E23FC187B68180068
:10372000194B9847030023700F23FB1800221A70CF
:1037300019E00F23FB181A78144913005B009B183B
:10374000DB005B5C0E22BA1812789A4204D10F2378
:10375000FB181B785BB213E00F23FB181A780F23BA
:10376000FB1801321A700F23FB181B78002BE0D0D6
:10377000074A084B19000020074B984701235B427A
:103780001800BD4605B090BD393400002800002067
:103790009B0300006C7800003D16000080B582B0ED
:1037A00000AF78607B6803211800034B9847C04640
:1037B000BD4602B080BDC0468D30000090B587B0D8
:1037C00000AFF860B9607A60FB681800874B9847D3
:1037D00003007B611223FC18FB681800844B984798
:1037E00003002380BB680122134000D1A3E0122311
:1037F000FB181B880222134020D0FB6818007D4B69
:1038000098477B685B889BB28022520113439AB22F
:103810007B685A807B685B889BB2774A13409AB278
:103820007B685A801223FB181B880122134002D0A8
:1038300005235B42D6E004235B42D3E01223FB184E
:103840001B880422134021D07B685B68002B08DDB5
:103850007B685B889BB28022520113439AB27B68DB
:103860005A807B685B889BB21BB2002B03DAFB6833
:103870001800624B98477B685B889BB25E4A134096
:103880009AB27B685A8002235B42ABE07B685B881C
:103890009BB21A008023DB00134021D07B681B8879
:1038A0001B125B001A0006231A401400FB68180064
:1038B000534B984702008023DB0113402343F1223E
:1038C0001A43FB68110018004E4B98477B685B88D1
:1038D0009BB24D4A13409AB27B685A80002381E024
:1038E0007B685B68002B12D17B685B889BB21BB244
:1038F000002B03DAFB681800404B98477B685B8815
:103900009BB23D4A13409AB27B685A8011E07B68B3
:103910009B681A78FB68110018003C4B98477B683D
:103920009B685A1C7B689A607B685B685A1E7B6840
:103930005A60002356E0BB680222134051D07B68D6
:103940005B68002B46D01223FB181B88042213400F
:1039500040D17B685B685A1E7B685A607B685B68F5
:10396000002B02D17B69002B06D07B685B68012BA2
:1039700006D17B69002B03D0FB681800244B9847C5
:103980007B685B68002B15D17B685B889BB21BB2A0
:10399000002B07DAFB6818001E4B9847FB681800DD
:1039A000164B98477B685B889BB2134A13409AB2C8
:1039B0007B685A807B689C68621C7B689A60FB68A5
:1039C0001800154B984703002370FB681800134B31
:1039D000984706E0FB681800104B984702235B42AB
:1039E00000E000231800BD4607B090BDA52E0000E2
:1039F000D9320000A52D0000FFFEFFFF9D3700001B
:103A0000D9310000B1310000FFFBFFFFFD310000A4
:103A100031300000013000002D320000BB2D0000CD
:103A200080B582B000AF786039607B685A1E9341E0
:103A3000DBB2094A09491800094B98477B683A6884
:103A40001A617B683A6811001800064B984703001A
:103A50001800BD4602B080BD0E0500006C78000065
:103A60003D160000113E000080B582B000AF7860C6
:103A70007B685A1E9341DBB2074A08491800084B7D
:103A800098477B681B691800064B9847030018008D
:103A9000BD4602B080BDC0462B0500006C7800001A
:103AA0003D160000813D000080B584B000AF786015
:103AB0003960124BFB607B681B69BB60BB681800F8
:103AC0000F4B984703001A003B681A60FB685A1EA8
:103AD000FA60002B02D105235B420AE03B681B68B9
:103AE0000122134004D13B681B6802221340E5D039
:103AF00000231800BD4604B080BDC046FFFF000093
:103B0000D12D000090B587B000AF78607B681B694D
:103B10007B617B683B617B6918003F4B98470300E2
:103B2000FB607B685A1E9341DBB23C4A3C4918005B
:103B30003C4B98473B695B68012B07D1FB68002B26
:103B400004D07B691800384B984703E07B69180064
:103B5000364B98473B691B881A008023DB001340D3
:103B600028D03B695B889BB21A000123134008D020
:103B70003B695B889BB28022D20013439AB23B69B7
:103B80005A803B691B885B001A00294B1A401400BD
:103B90007B691800274B984702008023DB01134004
:103BA0002343802212021A437B6911001800224B22
:103BB00098471EE03B691B885B00FF2213403A696F
:103BC000528892B2110001220A40511E8A41D2B29B
:103BD00013431C007B691800164B98470200802392
:103BE000DB01134022001A437B6911001800124BBD
:103BF00098470823FA187B68110018000F4B984764
:103C0000B9683A697B6918000D4B984703001800A2
:103C1000BD4607B090BDC046A52E00009B05000024
:103C20006C7800003D160000313000005D3000006F
:103C3000FE070000D9310000B1310000A93A0000B0
:103C4000BD37000090B587B000AF786039607B6801
:103C50001B693B617B685A1E9341DBB23E4A3F4978
:103C600018003F4B98477B681B695A1E9341DBB293
:103C70003C4A3A4918003A4B98473B685A1E9341D0
:103C8000D8B2B923DA00354B1900354B98477B6819
:103C90005B889BB21A0080235B00134002D006238E
:103CA0005B4254E03B685B889BB280225200134326
:103CB0009AB23B685A807B683A6813CA13C33B695F
:103CC0001800294B98477B681800284B9847030039
:103CD0007B617B69002B31D07B685B889BB2244A77
:103CE00013409AB27B685A807B6930E00C23FA1843
:103CF0007B68110018001F4B984703007B617B69AC
:103D0000002B13D03B685B889BB21BB2002B03DAFD
:103D10003B691800184B98477B685B889BB2144A34
:103D200013409AB27B685A807B6910E0F9687A6820
:103D30003B691800114B984703007B617B685B88E7
:103D40009BB21A0080235B001340CFD17B6918001F
:103D5000BD4607B090BDC046C60500006C780000A7
:103D60003D160000C7050000D52F0000053B0000F0
:103D7000FFFEFFFFA93A00009D370000BD3700009D
:103D800080B584B000AF78601A4BFB600423BB6041
:103D90007B685A1E9341DBB2174A18491800184B2A
:103DA00098477B681800174B984716E0FB68013B63
:103DB000FB60FB68002B10DCBB68013BBB60BB6891
:103DC000002B07D00B4BFB607B68102118000E4BBB
:103DD000984702E006235B4207E07B6818000B4B24
:103DE00098470300012BE1D100231800BD4604B021
:103DF00080BDC046FFFF0000FB0500006C7800009E
:103E00003D1600004D2E0000FD320000A9320000DA
:103E100080B584B000AF786039603B6818004F4BC4
:103E2000984703001A000F23FB181A703B68012102
:103E300018004B4B984703001A0001235340DBB294
:103E4000002B25D00F23FB181A78464913005B007E
:103E50009B18DB00CB1804331B681C221340BB608B
:103E60003B6802211800404B9847031E08D03B686E
:103E700018003E4B98473B68022118003C4B98477E
:103E8000BB6801221A433B6811001800394B984760
:103E90003B6801211800364B98470F23FB181A780E
:103EA000304913005B009B18DB00CB1804331A6801
:103EB0003B68110018002F4B98470F23FB181A7806
:103EC000284913005B009B18DB00CB1808331A68E5
:103ED0003B6811001800284B98470F23FB181A78ED
:103EE000204913005B009B18DB00CB180C331A68C9
:103EF0003B6811001800214B98470F23FB181A78D4
:103F0000184913005B009B18DB00CB1804331B68B7
:103F10001B0E9BB2032213409AB27B689A817B6886
:103F20009B8901229A429B415B42DAB23B681100B5
:103F30001800134B98470F23FB181A7809491300F0
:103F40005B009B18DB00CB1812331A887B68DA8180
:103F500000231800BD4604B080BDC04611370000E4
:103F6000472D000028000020CD2E0000792E0000F3
:103F7000292D0000FD2E0000C1300000113100008D
:103F80006531000080B582B000AF0200FB1D1A70E1
:103F9000FB1D1B787F2B09D8064BFA1D12781100E8
:103FA0001F220A40012191400A001A60C046BD4606
:103FB00002B080BD00E100E080B582B000AF020039
:103FC000FB1D1A70FB1D1B787F2B0ED80949FB1DAA
:103FD0001B781A001F23134001229A4013008022ED
:103FE0008B50BFF34F8FBFF36F8FC046BD4602B0FB
:103FF00080BDC04600E100E080B582B000AF0200A5
:10400000FB1D1A70FB1D1B787F2B0AD80749FB1D6F
:104010001B781A001F23134001229A40C0235B0023
:10402000CA50C046BD4602B080BDC04600E100E0B7
:1040300080B582B000AF78603960C0467B681B698C
:104040003A681340FAD1C046BD4602B080BD80B583
:1040500082B000AF786039607B681B693A681340B2
:104060005A1E9341DBB21800BD4602B080BD80B538
:1040700082B000AF78607B689B7ADBB21A000123C4
:1040800013405A1E9341DBB21800BD4602B080BDFA
:1040900080B582B000AF78607B6801229A72C0461A
:1040A000BD4602B080BD80B582B000AF78607B684D
:1040B00001225A72C046BD4602B080BD80B582B0B2
:1040C00000AF78607B681B6802221A437B681A6025
:1040D0007B6803211800034B9847C046BD4602B0D9
:1040E00080BDC0463140000080B584B000AF78602C
:1040F0007B6803211800094B98477B681B68FB60AD
:10410000FB685B0801221340FB60FB685A1E934169
:10411000DBB21800BD4604B080BDC046314000008F
:1041200080B582B000AF78607B681B680222934341
:104130001A007B681A607B6803211800024B9847BD
:10414000C046BD4602B080BD3140000080B584B09D
:1041500000AF786039607B6803211800064B9847F0
:104160007B681B68FB60FB683A681340FB60FB6878
:104170001800BD4604B080BD3140000080B582B05B
:1041800000AF786039607B683A681A607B68032109
:104190001800034B9847C046BD4602B080BDC046DC
:1041A0003140000080B582B000AF78600A00BB1CCF
:1041B0001A807B68BA1C1288DA80C046BD4602B0FD
:1041C00080BD80B582B000AF78600A00FB1C1A7019
:1041D0007B68FA1C12781A73C046BD4602B080BDD7
:1041E00080B582B000AF78600A00FB1C1A707B6853
:1041F000FA1C1278DA73C046BD4602B080BD0000DA
:1042000080B582B000AF78600A00FB1C1A707B6832
:10421000FA1C1278DA767B6820211800024B984746
:10422000C046BD4602B080BD3140000080B582B0BE
:1042300000AF786008001100FB1C021C1A70BB1C48
:104240000A1C1A70FB1C1B787A68D318BA1C1278E7
:104250001A777B68C0211800024B9847C046BD46BC
:1042600002B080BD3140000080B582B000AF786000
:1042700008001100FB1C021C1A703B000A1C1A806B
:10428000FB1C1B787A680C335B00D31804333A00AC
:1042900012881A807B68C0211800034B9847C046DB
:1042A000BD4602B080BDC0463140000080B584B03C
:1042B00000AFF8607A600B23FB180A1C1A700B23FE
:1042C000FB181B78FA6806339B00D31804337A680E
:1042D0001A60FB68C0211800024B9847C046BD46D3
:1042E00004B080BD3140000090B585B000AF78606B
:1042F00039600F23FC183B681800AB4B984703004C
:1043000023707B683A68DA60A84B9122190001207B
:10431000A74B98473B6801211800A64B984703001C
:104320001A0001235340DBB2002B14D03B6802215A
:104330001800A14B9847031E08D03B6818009F4BFC
:1043400098473B68022118009D4B98473B68012124
:1043500018009C4B98473B6801211800984B9847E0
:104360000F23FB1800229A56974913009B009B18B5
:104370009B00CB1804331A683B6811001800914B5E
:1043800098470F23FB1800229A568F4913009B0071
:104390009B189B00CB180A331A783B681100180051
:1043A0008A4B98470F23FB1800229A568649130020
:1043B0009B009B189B00CB1808331A883B681100A0
:1043C0001800834B98473B6801211800814B9847A0
:1043D0000F23FB1800229A567B4913009B009B1861
:1043E0009B00CB1804331B680C221340082B22D1EE
:1043F0000F23FB1800229A56734913009B009B1849
:104400009B00CB180C331A683B6800211800724BD4
:1044100098470F23FB1800229A566B4913009B0004
:104420009B189B00CB1810331A683B6801211800B9
:10443000694B984778E00F23FB1800229A5662498F
:1044400013009B009B189B00CB1804331B680C22A5
:10445000134024D10F23FB1800229A565A49130007
:104460009B009B189B00CB180C331B689AB23B68CF
:1044700000211800594B98470F23FB1800229A5629
:10448000514913009B009B189B00CB1810331B68ED
:104490009AB23B6801211800504B984744E00F2323
:1044A000FB1800229A56484913009B009B189B005A
:1044B000CB1804331B680C221340042B34D10F2378
:1044C000FB1800229A56404913009B009B189B0042
:1044D000CB180C331B68DAB23B6800211800404B44
:1044E00098470F23FB1800229A56374913009B0068
:1044F0009B189B00CB1810331B68DAB23B68012174
:104500001800374B98470F23FB1800229A562E4964
:1045100013009B009B189B00CB180B331A783B6849
:10452000110018002F4B98473B6818002E4B9847F6
:104530007A683B68110018002C4B98470F23FB1832
:1045400000229A56204913009B009B189B00CB1811
:1045500001331B785BB21800254B98470F23FB18DB
:1045600000229A56184913009B009B189B00CB18F9
:1045700001331B785BB218001E4B98470F23FB18C2
:1045800000229A56104913009B009B189B00CB18E1
:1045900001331B785BB21800174B984700231800B3
:1045A000BD4605B090BDC04665470000BC78000020
:1045B0003D1600004F4000004D4100002141000029
:1045C000314000007D41000040000020E14100003A
:1045D000A5410000C3410000AD4200006942000057
:1045E0002D42000001420000A7400000F1470000FA
:1045F000B93F0000F93F0000853F000080B582B060
:1046000000AF78607B68DB681800034B9847C046B2
:10461000BD4602B080BDC046BD40000080B582B03E
:1046200000AF78607B68DB681800034B9847C04692
:10463000BD4602B080BDC0462141000080B582B0B9
:1046400000AF78607B68DB681800034B9847030075
:104650001800BD4602B080BDE940000080B500AF43
:1046600000231800BD4680BD90B585B000AF7860CE
:104670007B68DB68FB600B23FC18FB681800104BA1
:104680009847030023701423FF331A000D4B1900C1
:1046900001200D4B98470B23FB1800229A560B491B
:1046A00013009B009B189B00CB1801331B785BB257
:1046B000DBB21800064B9847C046BD4605B090BD1A
:1046C00065470000BC7800003D1600004000002057
:1046D0007124000080B584B000AF78607B68DB682F
:1046E000FB60FB681800084B9847031E08D0FB6866
:1046F0001800064B98477B681B687A68100098473B
:10470000C046BD4604B080BD6F400000914000002F
:1047100080B500AF034B1B681800034B9847C04699
:10472000BD4680BD40010020D546000080B500AFE9
:10473000034B1B681800034B9847C046BD4680BD1D
:1047400044010020D546000080B500AF034B1B6834
:104750001800034B9847C046BD4680BD4801002065
:10476000D546000090B585B000AF78600E23FC18E8
:104770007B6818001A4B9847030023700F23FB181F
:1047800000221A7019E00F23FB181A78154913003C
:104790009B009B189B005B5C0E22BA1812789A4211
:1047A00004D10F23FB181B785BB215E00F23FB1815
:1047B0001A780F23FB1801321A700F23FB181B788D
:1047C000022BE0D94823FF331A00074B19000020C1
:1047D000064B984701235B421800BD4605B090BDCB
:1047E0004548000040000020BC7800003D16000055
:1047F00080B582B000AF786039607B680B4A934225
:1048000002D10B4B3A681A607B680A4A934202D184
:10481000094B3A681A607B68084A934202D1084BF8
:104820003A681A60C046BD4602B080BD0030004202
:1048300040010020003400424401002000380042C2
:104840004801002090B58DB000AF78600C23FB18B4
:10485000124A13CA13C313CA13C303CA03C30023E0
:10486000FB620EE00C23FB18FA6A9200D3581A0080
:104870007B689A4202D1FB6ADBB20BE0FB6A013330
:10488000FB62FB6A072BEDD97B68054A94466344BB
:104890009B0ADBB21800BD460DB090BDD078000079
:1048A00000D0FFBD80B582B000AF0200FB1D1A70C2
:1048B000FB1D1B787F2B09D8064BFA1D12781100BF
:1048C0001F220A40012191400A001A60C046BD46DD
:1048D00002B080BD00E100E080B582B000AF020010
:1048E000FB1D1A70FB1D1B787F2B0ED80949FB1D81
:1048F0001B781A001F23134001229A4013008022C4
:104900008B50BFF34F8FBFF36F8FC046BD4602B0D1
:1049100080BDC04600E100E080B582B000AF02007B
:10492000FB1D1A70FB1D1B787F2B0AD80749FB1D46
:104930001B781A001F23134001229A40C0235B00FA
:10494000CA50C046BD4602B080BDC04600E100E08E
:1049500080B582B000AF78607B689B6901221A4302
:104960007B689A61C046BD4602B080BD80B584B008
:1049700000AF78607B689B69FB60FB680122134095
:10498000FB60FB685A1E9341DBB21800BD4604B0C1
:1049900080BD80B582B000AF78607B689B690122E2
:1049A00093431A007B689A61C046BD4602B080BD41
:1049B00080B582B000AF78607B689B6902221A43A1
:1049C0007B689A61C046BD4602B080BD80B582B0AA
:1049D00000AF78607B689B69022293431A007B6872
:1049E0009A61C046BD4602B080BD80B582B000AFBE
:1049F000786039607B683A68DA61C046BD4602B0CB
:104A000080BD80B582B000AF786039607B683A685D
:104A1000DA65C046BD4602B080BD80B584B000AF47
:104A2000F8607A600B23FB180A1C1A700B23FB1822
:104A30001B78FA68DB01D31808337A681A60C0461D
:104A4000BD4604B080BD80B584B000AFF8607A6028
:104A50000B23FB180A1C1A700B23FB181B78FA682F
:104A6000DB01D31804337A681A60C046BD4604B02F
:104A700080BD80B584B000AFF8607A600B23FB186E
:104A80000A1C1A700B23FB181B78FA68DB01D31879
:104A900018337A681A60C046BD4604B080BD80B540
:104AA00084B000AFF8607A600B23FB180A1C1A7000
:104AB0000B23FB181B78FA68DB01D31814337A68D0
:104AC0001A60C046BD4604B080BD80B584B000AF5A
:104AD000F8607A600B23FB180A1C1A700B23FB1872
:104AE0001B78FA68DB01D31828337A681A60C0464D
:104AF000BD4604B080BD000080B582B000AF396013
:104B00001100FB1D021C1A70BB1D0A1C1A70BB1D74
:104B10001B78012B25D0022B43D0002B63D13A68A0
:104B2000FB1D1978C023DB051800344B98473B6800
:104B30001B041B0C8022D2051A43FB1D197882230B
:104B4000DB0518002E4B98473B681B0CC022120651
:104B50001A43FB1D19788223DB051800284B984760
:104B600047E03A68FB1D1978C023DB051800234B8A
:104B700098473B681B041B0C224A1A43FB1D1978FB
:104B80008223DB0518001E4B98473B681B0C1E4A0E
:104B90001A43FB1D19788223DB051800184B984730
:104BA00027E03A68FB1D1978C023DB051800174B76
:104BB00098473B681B041B0C8022D2051A43FB1D3F
:104BC00019788223DB0518000D4B98473B681B0CB6
:104BD000C02212061A43FB1D19788223DB05180038
:104BE000074B984705E00A4B462219000020094B65
:104BF0009847C046BD4602B080BDC046474A000047
:104C0000CB4A000000000240000002C01B4A000026
:104C1000F07800003D16000080B582B000AF39602A
:104C20001100FB1D021C1A70BB1D0A1C1A70BB1D53
:104C30001B78002B08D03A68FB1D1978C023DB05D0
:104C40001800074B984707E03A68FB1D1978C02306
:104C5000DB051800034B9847C046BD4602B080BD37
:104C6000734A00009F4A000080B582B000AF020086
:104C7000FB1D1A70BB1D0A1C1A70FB1D1B785B09FB
:104C8000D8B2FB1D1B781F22134001229A4011004D
:104C9000BB1D1B781A00034B9847C046BD4602B0A7
:104CA00080BDC046F94A000080B582B000AF020066
:104CB000FB1D1A70BB1D0A1C1A70FB1D1B785B09BB
:104CC000D8B2FB1D1B781F22134001229A4011000D
:104CD000BB1D1B781A00034B9847C046BD4602B067
:104CE00080BDC046194C000080B582B000AF78602E
:104CF0007A68FA239B0001214942D1507A68FB234C
:104D00009B0001214942D1507A68FC239B0000217D
:104D1000D150C046BD4602B080BD000090B585B000
:104D200000AFF860B960FB1D1A70FA68FA239B00A7
:104D3000D358002B05D1FA68FB239B00D358C72B0F
:104D40000FD0FA68FB239B00D458FA68FA239B0023
:104D5000D3585A1E4A4BC721100098470B009C425B
:104D600004D1484B1800484B984785E0FA68FA236D
:104D70009B00D35801332AD1FA68FB239B00002102
:104D8000D150FA68FB239B00D158FA68FA239B00A4
:104D9000D150FA68FB239B00D258FB689200B96897
:104DA000D150FA68FB239B00D258F968C8239B00B6
:104DB0008A18D318FA1D12781A70FA68FC239B001F
:104DC000D358591CFA68FC239B00D15054E0FA6870
:104DD000FB239B00D358C72B28D1FA68FA239B00EA
:104DE000D358002B22D0FA68FB239B000021D1501E
:104DF000FA68FB239B00D258FB689200B968D15037
:104E0000FA68FB239B00D258F968C8239B008A18D4
:104E1000D318FA1D12781A70FA68FC239B00D35835
:104E2000591CFA68FC239B00D15025E0FA68FB234B
:104E30009B00D358591CFA68FB239B00D150FA6899
:104E4000FB239B00D258FB689200B968D150FA68E6
:104E5000FB239B00D258F968C8239B008A18D318FB
:104E6000FA1D12781A70FA68FC239B00D358591C5B
:104E7000FA68FC239B00D150BD4605B090BDC046EA
:104E80009D2800000C7900009D66000080B582B06E
:104E900000AF78607A68FA239B00D358013303D1BE
:104EA000254B1800254B98477A68FA239B00D25867
:104EB0007968FB239B00CB589A4211D17A68FA2378
:104EC0009B0001214942D1507A68FB239B000121BC
:104ED0004942D1507A68FC239B000021D15026E042
:104EE0007A68FA239B00D358C72B0ED17A68FA232D
:104EF0009B000021D1507A68FC239B00D358591E97
:104F00007A68FC239B00D15011E07A68FA239B0059
:104F1000D358591C7A68FA239B00D1507A68FC2335
:104F20009B00D358591E7A68FC239B00D150C04681
:104F3000BD4602B080BDC0461C7900009D660000E1
:104F400080B584B000AF786039607A68FA239B003E
:104F5000D2587B689200D358FB607A68FA239B0092
:104F6000D2587968C8239B008A18D3181A783B68EE
:104F70001A70FB681800BD4604B080BD80B582B0D1
:104F800000AF78607A68FC239B00D3581800BD46B8
:104F900002B080BD80B58AB000AFF860B9607A60B9
:104FA0001A00FB1C1A70FB687B6203233B620A2316
:104FB000FB610323BB617B68FA22920053437B6051
:104FC0003C4B79683C48984703001800FA69BB6974
:104FD000D318DA1C374B1100984703007B617B69BB
:104FE0001B04364A1A40FB691B021B041B0C1A43A4
:104FF000BB697F210B401A433B6A5B0613433B614D
:105000007B6ABA681A607B6A1B6818002C4B984749
:10501000C0467B6A1B6818002A4B984703001A0099
:1050200001235340DBB2002BF3D17B6A1B681800CD
:10503000254B9847BB68254A934215D17B6A1B686C
:105040003A6911001800224B98471020214B9847CD
:105050001020214B98471020204B98477B6A1B68F3
:10506000012118001E4B98477B6A1B6818001D4BD6
:1050700098477B6A1B6818001B4B9847C0467B6AA1
:105080001B6818000F4B9847031EF8D1FB681800E7
:10509000164B9847FB1C1B7802211800144B9847AD
:1050A000FB1C1B7800211800124B9847C046BD46D8
:1050B0000AB080BD592800000068DC020000FF0132
:1050C000514900006D490000B14900000020004234
:1050D000EB490000D948000019490000A54800002C
:1050E000034A0000CD49000093490000350B000041
:1050F000694C0000A94C000080B582B000AF786018
:1051000039603A687B6800211800034B9847C04615
:10511000BD4602B080BDC0460D0C000080B588B011
:1051200000AFF860B9601900FB1D1A70BB1D0A1CA6
:105130001A701023FB18BA681A601023FB1800229B
:105140001A711023FB182822BA189A601023FB1832
:10515000BA1D12781A73FB1D1B78002B04D0102384
:10516000FB1801225A7303E01023FB1800225A7324
:105170001023FA18FB6811001800034B9847C0462B
:10518000BD4608B080BDC046BD0B000080B588B0EC
:1051900000AFF860B9607A607A681023FB189A60F3
:1051A0001023FA18FB68110018000D4B98471023C4
:1051B000FB181A68BB681A601023FB181B79002BB8
:1051C00001D1012307E01023FB181B79012B01D12A
:1051D000022300E000231800BD4608B080BDC04691
:1051E0006D0B000090B587B000AFF860B9607A60D1
:1051F0001A00FB1C1A701023FB18BA681A601023DF
:10520000FB187A685A60FB1C1B78002B07D0102310
:10521000FB18F86801220021064CA04707E0102384
:10522000FB18F86800220021024CA047C046BD468A
:1052300007B090BD8D0C000080B584B000AF0200B7
:105240003960FB1D1A703B681B68FB603B681A687D
:105250000B23FB181A70FA1D0B23FB1812781B780E
:105260009A420FD0FB681B0AFB60FB681B02FB60C5
:10527000FB1D1B78FA681343FB603B68FA681A60F1
:10528000C04600E0C046BD4604B080BD80B500AF5A
:10529000034B1B685A1C024B1A60C046BD4680BDBA
:1052A0008406002080B582B000AF2E4B18002E4B34
:1052B000984700237B602BE02C497A6813001B027F
:1052C0009B189B00CB18DB789B07DB0FDBB2002B16
:1052D0001BD0274B1B78DBB21A1C01231340D9B219
:1052E00022487A6813001B029B189B00C3180122F6
:1052F000114008005A7801218A43111C021C0A43FC
:105300005A707B6818001B4B98477B6801337B60A1
:10531000194B1B781A007B689A42CDDC144B1B7822
:10532000DBB2002B0ED0012B00D017E0104B002277
:105330001A70124BFA2252009A600A4B1800104B56
:1053400098470BE00A4B01221A700C4BFA225200CC
:105350009A60044B18000A4B9847C046C046BD46A9
:1053600002B080BD0C0200203D110000900600201C
:1053700088060020B9550000780600206001002052
:10538000ED10000090B583B000AF3C4B98473C4B0C
:1053900098473C4B9847FA235A003B493B484923DE
:1053A0003B4CA0473B4A394B110018003A4B9847F9
:1053B0003648002300220021384CA047384A394B98
:1053C00011001800384B9847364B1800374B984758
:1053D00000237B600EE07A6813001B029B189B0081
:1053E00010331A00324BD3181800324B98477B68A1
:1053F00001337B60304B1B781A007B689A42EADCF1
:105400002E4B98472E48032302220B212D4CA047F8
:105410002D4B1B68002B0DD02C4B98472A4B1B683B
:105420005A1E294B1A60284B1B68002B02DA264BA8
:1054300000221A60264B00221A6017E0244B1A68DB
:105440001B4913001B029B189B00CB18DB78DB0762
:10545000DB0FDBB2002B04D01D4B1B6818001D4B6B
:1054600098471B4B1B685A1C194B1A60124B1B7830
:105470001A00174B1B689A42E0DCC9E71D010000C7
:10548000D95400008555000000200042A8010020EA
:10549000954F00008D520000F9500000E5510000CA
:1054A0007C060020EC0100208D0F0000CD0E0000D6
:1054B00090060020E94C000078060020E963000017
:1054C0002C7900009D66000084060020015B00002E
:1054D0004C0100202156000080B500AF194B282256
:1054E0001A60194B06221A70184B00221A60184BCA
:1054F00000221A70174B00221A70174B00221A80D4
:10550000164B00221A70164B00221A70154B0022FF
:105510001A70154B00221A70144B00221A80144B7B
:1055200000221A70134B00221A70134B00221A70BB
:10553000124B00221A70124B00221A70C046BD4650
:1055400080BDC046BC1E00207806002084060020D6
:1055500056010020540100208E0600205501002035
:10556000CB1E0020CA1E002080060020C81E00207E
:10557000B91E0020A81E0020890600208C060020ED
:10558000B81E002080B500AF074B084ADA60064B12
:1055900001221A74044A064B11001800054B984763
:1055A000C046BD4680BDC04660010020A552000037
:1055B0000C0200209511000080B582B000AF786029
:1055C00015497A6813001B029B189B00CB185B7867
:1055D000DB07DB0FDBB2002B0ED0012B00D017E076
:1055E0000D497A6813001B029B189B005B5C01212C
:1055F00018000A4B98470BE007497A6813001B0212
:105600009B189B005B5C00211800044B9847C04628
:10561000C046BD4602B080BD90060020A94C0000E7
:1056200090B589B002AF78607A6813001B029B18AE
:105630009B0010331A00D44BD3181800D34B984753
:10564000031E27D1D0497A6813001B029B189B00C8
:10565000CB185B78DB07DB0FDBB2002B0ED0CA491F
:105660007A6813001B029B189B00CB185A78012103
:105670008A435A707B681800C54B9847C2497A68BC
:1056800013001B029B189B00CB18DA7801218A4378
:10569000DA7076E17A6813001B029B189B001033C6
:1056A0001A00B94BD3180F22BA1811001800B94BC1
:1056B00098470200B84B1B68D31A7B617A681300C5
:1056C0001B029B189B0010331A00AF4BD3180F22FC
:1056D000BA1811001800AF4B98470200AE4B1B6878
:1056E000D3183B61AD4B1B687A699A4200D3D8E06E
:1056F000AA4B1B683A699A4200D8D2E0A84B1A78A4
:10570000A84B1B789A4200D287E09F497A68130021
:105710001B029B189B00CB185B78DB07DB0FDBB20F
:10572000012B0ED098497A6813001B029B189B002E
:10573000CB185A7801210A435A707B681800944BA1
:1057400098477B68DBB21A1C3F231340DAB2964BB2
:105750003F210A4010001A783F218A43111C021C85
:105760000A431A7088497A6813001B029B189B0031
:10577000CB1808331B781A1C03231340DAB28A4B68
:1057800090011A783F210A40111C021C0A431A702A
:105790007D497A6813001B029B189B00CB180C33C1
:1057A0001A687E4B1B68D2187F4B1102090A090246
:1057B0001868FF24204001431960100E1A79002157
:1057C0000A40111C021C0A431A710F23FB181A7895
:1057D000754B5A717548744B5C681B680093019453
:1057E000062300226621724CA04767497A6813009D
:1057F0001B029B189B00CB18DA7801218A43DA70D0
:105800007A6813001B029B189B0010331A005E4B32
:10581000D3181800674B9847B3E07B68DAB2624B45
:105820001A705E4B1A68604B1102090A0902186867
:10583000FF24204001431960100E1A7900210A400C
:10584000111C021C0A431A710F23FB181A78564BBD
:105850005A71554B9A7901210A439A715348524B18
:105860005C681B6800930194072300224E21504C72
:10587000A04745497A6813001B029B189B00CB1870
:10588000DA7801218A43DA707A6813001B029B18C8
:105890009B0010331A003C4BD3181800454B984717
:1058A0006FE03E4B1B687A699A4243D27A681300D4
:1058B0001B029B189B0010331A00334BD31818009F
:1058C0003C4B984730497A6813001B029B189B0099
:1058D000CB18DA7801210A43DA707B68DAB2324BEE
:1058E0001A702E4B1A68304B1102090A0902186807
:1058F000FF24204001431960100E1A7900210A404C
:10590000111C021C0A431A710F23FB181A78264B2C
:105910005A71254B9A7901218A439A712348224B67
:105920005C681B6800930194072300224E21204CE1
:10593000A04726E014497A6813001B029B189B00BD
:10594000CB185B78DB07DB0FDBB2002B0ED00E49E8
:105950007A6813001B029B189B00CB185A78012110
:105960008A435A707B681800094B984706497A6841
:1059700013001B029B189B00CB18DA7801218A4385
:10598000DA70BD4607B090BD900600207D4F000044
:10599000B9550000414F0000BC1E002050010020FE
:1059A0005401002055010020B01E0020A801002055
:1059B0001D5100008D4E000090B587B002AF786099
:1059C0000023FB607EE0454B1B781A00FB685343C5
:1059D000434A12789A187B689A4261D141497A68A1
:1059E00013001B029B189B00CB185A7801210A4315
:1059F0005A707B6818003C4B98477B68DBB21A1CD6
:105A00003F231340DAB2394B3F210A4010001A7885
:105A10003F218A43111C021C0A431A7031497A68DB
:105A200013001B029B189B00CB1808331B781A1C11
:105A300003231340DAB22D4B90011A783F210A401C
:105A4000111C021C0A431A7026497A6813001B02B3
:105A50009B189B00CB180C331A68254B1B68D21877
:105A6000224B1102090A09021868FF242040014351
:105A70001960100E1A7900210A40111C021C0A43F9
:105A80001A711A4B00225A711A48184B5C681B682D
:105A900000930194062300226621174CA04718E0CA
:105AA00010497A6813001B029B189B00CB185A7888
:105AB00001218A435A707B6818000B4B9847FB689A
:105AC0000133FB600D4B1B781A00FB689A4200DD26
:105AD00079E7C046BD4605B090BDC0468C060020A3
