S01B000043414E5F554152545F426F6F746C6F616465722E7372656332
S1130000F02500203501000031010000310100001D
S113001000000000000000000000000000000000DC
S1130020000000000000000000000000310100009A
S11300300000000000000000310100003101000058
S113004031010000310100003101000031010000E4
S113005031010000310100003D09000031010000C0
S113006031010000310100003101000031010000C4
S113007031010000310100003101000031010000B4
S1130080750700003101000031010000310100005A
S11300903101000031010000310100003101000094
S11300A03101000031010000310100003101000084
S11300B031010000310100003101000010B5064C8F
S11300C02378002B07D1054B002B02D0044800E015
S11300D000BF0123237010BDE801002000000000D0
S11300E040240000084B10B5002B03D007490848F2
S11300F000E000BF07480368002B00D110BD064B89
S1130100002BFBD09847F9E700000000EC01002029
S113011040240000402400000000000010B5024B01
S11301209847024B984710BDE1020000ED11000012
S1130130FEE7000010B5104A104B9A4209D00F4B4D
S11301400D4A03E011681960043304320C498B42F0
S1130150F8D30C4B02E000221A6004330A4A93429B
S1130160F9D30A4AFF210A4B8B439360094B984702
S1130170094B9847FEE7C0464024000000000020D9
S1130180E8010020E8010020F005002000ED00E077
S1130190000000000D120000250D0000024A136942
S11301A020210B43136170470008004010B5034B36
S11301B0984703490348044B984710BD9D0100002C
S11301C000400041F00200209503000030B5822376
S11301D0DB05CA22995C0125A94301242143C9B244
S11301E09954B520195CBB3A914303221143C9B217
S11301F01954CB215A5CAA432243D2B25A541A5CF2
S1130200BC390A4030210A43D2B21A5430BD00002E
S1130210064B4021DC2299500331143A9950044A88
S1130220D36923390B43D3617047C046001C004097
S11302300008004010B5054B9847002204490548C2
S1130240054B9847054B984710BDC0461102000066
S1130250001400420C03002059050000CD010000E9
S113026030B58223DB05CF22995C0125A943012403
S11302702143C9B29954B720195CC03A1140602295
S11302801143C9B21954CE215A5CAA432243D2B2B3
S11302905A541A5CBF398A4306210A43D2B21A540B
S11302A030BD000010B5084A116980239B000B4340
S11302B013614021EC23054AD15005490548064BFA
S11302C09847064B984710BD00080040001C0040AA
S11302D000200042180300202903000061020000EE
S11302E010B5044B9847044B9847044B9847044B6C
S11302F0984710BDE5070000AD010000350200007D
S1130300A502000010B5C369002B00D0984710BDAA
S113031010B5036A002B00D0984710BD10B5436A8E
S1130320002B00D0984710BD70B504000D000028C4
S113033015D0002911D0012041220A490A4B9847BF
S113034029002000094B9847002805D1084B636019
S1130350084BA360084BE36070BD0020ECE700206D
S1130360EAE7C0466821000029060000690600008B
S113037005030000110300001D03000010B54369CC
S1130380002B00D0984710BD10B58369002B00D016
S1130390984710BD70B504000D00002813D0002943
S11303A00FD0012038220949094B98472900200021
S11303B0084B9847002803D1074B2360074B636021
S11303C070BD0020EEE70020ECE7C0468421000069
S11303D029060000D90800007D03000089030000FD
S11303E010B50400431E9841C0B2F7220349044BE0
S11303F098472000034B984710BDC0468421000055
S1130400290600003909000070B504000D0016002B
S113041000280ED000290AD0012034220649074BB7
S113042098472368320029002000984770BD0020B7
S1130430F3E70020F1E7C0469C21000029060000F4
S113044070B504000D00160000280ED000290AD053
S113045001203D220649074B984763683200290072
S11304602000984770BD0020F3E70020F1E7C04664
S11304709C21000029060000F8B505000E001700B5
S1130480002823D0002923D0002A23D10020F122E0
S11304901149124B98472C0008342000104B984700
S11304A00028F8D00025715D20000E4B98472000ED
S11304B00B4B98470028FAD00135BD42F3D32000F6
S11304C0094B98470028FAD02800F8BD0020DEE741
S11304D00020DCE70120DAE7B02100002906000053
S11304E0CF0B0000BF0B0000D90B0000F8B5CE46BF
S11304F0474680B5051E884691461FD000291FD067
S1130500002A1FD10020862252000F490F4B984722
S113051000262C00083420000D4B98470028F8D002
S113052043469F1920000B4B9847387001364E45BF
S1130530EFD330000CBC90469946F8BD0020E2E7AA
S11305400020E0E70120DEE7B021000029060000DA
S1130550E50B0000C70B000070B504000D00002877
S113056014D0002910D0012034220949094B98479E
S1130570200008302900084B9847002803D1074B76
S11305806360074B236070BD0020EDE70020EBE7BC
S1130590B021000029060000810B0000ED040000DA
S11305A07904000010B50400431E9841C0B25322E0
S11305B00449054B984720000830044B9847002015
S11305C010BDC046B021000029060000AD0B00009C
S11305D070B504000D0000280BD0002907D00120BD
S11305E069220549054B98472C60002070BD002006
S11305F0F6E70020F4E7C046B02100002906000019
S113060010B50400431E9841C0B2D7220349044BDD
S1130610984720000830034B984710BDB0210000D4
S113062029060000E50B0000002800D100BE704739
S11306300300064A1268002A04D0044A1068C3184A
S1130640136070470249014A1160F6E70402002072
S1130650F025002001204042704780239B014B601D
S11306600020704700207047F0B501608B690122BB
S113067013438B6103689A69D207FBD59A690224F4
S113068022439A61334B99420FD002689369022145
S11306908B4393610268936901398B4393610368C7
S11306A09B69DB07FBD40020F0BD2B4B1A0001C271
S11306B02A49816101688C698C61016800248C601D
S11306C00168274DCD610168264DCD60264D2D046E
S11306D02D0C802189020D43A0260768BD51BC253D
S11306E0066874510C3506687451204D2D042D0C88
S11306F08026B6043543C0260768BD511204120C87
S11307000A43F02506687251703D2822066872512A
S11307101A0014321204120C0A4384260768BA51D0
S11307201C331B041B0C0B43882201688B50902341
S11307300268D4500E4B802252025A51BFF34F8F9D
S1130740BFF36F8FC02149005A501A600368012219
S1130750DA659AE700200042080200200000002029
S1130760070A0206330A0000600300204003002049
S113077000E100E070B51A4B1D682B681C6DE3079F
S113078014D4A30516D4A30118D4E3011BD4230263
S113079007D5EB682A68526C920619D50221280005
S11307A09847230716D42B681C6570BD2800AB68D6
S11307B09847E6E728006B689847E4E70321280098
S11307C0EB689847E1E700212800EB689847DEE7EB
S11307D00121E4E704212800EB689847E3E7C046D9
S11307E00802002010B5094A536804210B435360E2
S11307F0074B9847074B9847074B9847074B984731
S1130800FF20074B9847074B984710BD0040004115
S11308106D09000091090000CD0800009509000051
S1130820A9080000290800009022D20513780221AB
S11308308B431370704710B582B0EFF310830193AC
S113084072B69023DB051A780124A2431A709860CB
S1130850D9609023DB051B79DB07FAD49023DB05F1
S11308601869019B83F3108802B010BD10B582B0E3
S1130870EFF31083019372B69023DB051A780124F9
S1130880A2431A709860D9609023DB051B79DB07BB
S1130890FAD4044B18685968019B83F3108802B09A
S11308A010BDC04610000048C30707D5044A054BD5
S11308B01A62044B5A68044B1A42FAD17047C04674
S11308C007010100001C0040FD0700000122014B4C
S11308D01A7170470008004070B505000C0000282C
S11308E01CD0104B99421BD0002046220E490F4BBE
S11308F098472C6162689E23134063600C4B1D6013
S11309000C4B402280215A50BFF34F8FBFF36F8F9F
S11309100131FF315A501A60002070BD0020E4E715
S11309200120E2E700400041CC210000290600003C
S11309303402002000E100E04020704710B50A4B6B
S1130940186803691A7DD20704D50368002B00D008
S1130950984710BD1A7D9207FBD502221A75436889
S1130960002BF6D09847F4E734020020074A8E2380
S1130970938200239375D375D3691B0A1B02F82154
S113098049010B40D36101231361704700140040F7
S113099070470000194A1A4B1A622C23184AD25C79
S11309A01E3B1A42F9D1164B00225A6228215A548E
S11309B02C23134AD25C1E3B1A42F9D10222104B5B
S11309C01A772C230E4AD35C9B07FAD430230C4AA3
S11309D0D35CDB0703D43023D35C9B07F6D5084AEA
S11309E0137F802149420B43DBB213772C23044A43
S11309F0D25C1E3B1A42F9D17047C046B7050D00C0
S1130A000010004030B589B00B4C6B46220032CA4E
S1130A1032C332CA32C312CA12C30023072B08D806
S1130A209A0069465258824201D00133F6E7D8B29F
S1130A3000E0002009B030BDEC21000010B50C4BE3
S1130A40984702000020002806D00A4A0A490020DC
S1130A500A4B9847002010BD83001B189900084BCF
S1130A605B1820215B5C9A42F5D00130C0B2EAE702
S1130A70050A00003D0200005C2200002906000077
S1130A80EC21000070B504003B4B9847E369DB0799
S1130A901DD483001B189A00384B9B185A6A1C23D8
S1130AA01A40E3699B07FCD123689B0709D5236897
S1130AB002218B432360E3699B07FCD1E3699B0715
S1130AC0FCD4012313432360E3699B07FCD1E3694E
S1130AD0DB07FCD483001B189A00284B9B185B6A25
S1130AE02360E3699B07FCD183001B189A00234B06
S1130AF09B189B6A6360E3695B07FCD183001B1846
S1130B009A001E4B9B185B6A9A040BD4C022D20134
S1130B10134207D183001B189A00184B9B189B8D16
S1130B20A38119E0154A81000D18AB00D3189D8DDF
S1130B30A389ED04ED0C5B0B5B032B43A3812032F3
S1130B400B1899005218937B07221A40A389520369
S1130B50DB04DB0C1343A381084B19002031820012
S1130B601618B5004919C97BA1735B1930331A787B
S1130B703023E254002070BD3D0A0000EC21000047
S1130B8070B505000C00431E9841C0B2B42204495C
S1130B90044B98472C602000034B984770BDC04617
S1130BA05C22000029060000850A00000268136820
S1130BB002210B431360D3699B07FCD17047036880
S1130BC089B2198570470368188DC0B270470368ED
S1130BD0187E01231840704703681B7E5B080120C0
S1130BE01840704703681B7E9B080120184070471B
S1130BF010B50248024B984710BDC046F0020020D1
S1130C00E103000070B53F4B1B68032B1FD00A2B78
S1130C1052D0012B03D002223B4B1A7016E0394C00
S1130C2023603A4B9847C0B22071394B1860394A57
S1130C301368B021535063711B0AA37103236364C7
S1130C402000354B984702222F4B1A7070BD882321
S1130C50304AD6582B4B1B799E4221D102200021C9
S1130C600BE02C4B84229C58651C9D50254A12187D
S1130C7012791B191A7101310130224B5B799942A7
S1130C80EFDB01368823234AD6501E48853B036098
S1130C90023B4364204B984702221B4B1A70D5E752
S1130CA018480D230360002404710C3B43641A4B61
S1130CB09847154B1C70C9E7124B1B79002B17D0B2
S1130CC0164C802200212000154B9847043C002339
S1130CD08422A3500432A3500A480A330360093B18
S1130CE0037143640C4B98470222074B1A70ADE71B
S1130CF004480D230360084B98470022024B1A70E6
S1130D00A4E7C046B404002000050020F10B000055
S1130D101400002000040020D90D00000404002069
S1130D20A712000010B51E4B98471E4BE02212027A
S1130D301A6000221C490A72012040421B490860C3
S1130D4084215A5004315A500132194B1A7005E06B
S1130D501648184B98470222154B1A70144B1B78EF
S1130D60012BF5D0002B17D0022B05D0032B10D06C
S1130D7002220F4B1A70F1E70C480F4B98470028DA
S1130D8003D003220A4B1A70E8E70222084B1A70B8
S1130D90E4E70A4B9847E1E70222054B1A70DDE7C6
S1130DA01D01000000040020BC030020B404002046
S1130DB000050020C10D0000910F0000050C00008B
S1130DC010B502490248034B984710BD8405002022
S1130DD00C030020D1050000F8B50500634C172270
S1130DE000212000624FB847260018360322002154
S1130DF03000B84720001C3003220021B8470023EC
S1130E002384743323702A685A4930005A4B984714
S1130E1030005A4B984702280CD0032812D00128DE
S1130E2001D0002422E0514B00221A775A771A7E0F
S1130E309A77F6E74D4B00221A771A7E5A775A7E34
S1130E409A77EEE7494B1A7E1A775A7E5A779A7E3A
S1130E509A77E6E74A4B9847801942780323134070
S1130E60022B14D0414B1B191E770134022C10DCC9
S1130E703E4B1B191E7F3300613BDBB2052BE9D9C6
S1130E80002EF2D1394B1B1930221A77EDE7203EA0
S1130E90E8E7364C21001C3120003A4B98476B6C34
S1130EA03033237100241EE0354B98478019427873
S1130EB003231340022B03D020232C4AD65436E0BC
S1130EC0203EF9E72E4B98478019427803231340BC
S1130ED0022B3BD0254B20335E7024480100203187
S1130EE0284B984701346B6CA34231D92E193279BF
S1130EF020491E482030204B984733790F2B08D8BF
S1130F001A4B2022995C18002030407898542033E2
S1130F1059702023154AD65C3300613BDBB2052BA4
S1130F20C2D9002E03D130212023104AD1540F4BB3
S1130F3020335E783300613BDBB2052BC2D9002E2F
S1130F40CBD13022094B20335A70C6E7203EC1E78B
S1130F506300053305490A22CA5403346400A2B26B
S1130F60094B1868094B9847F8BDC0463802002061
S1130F70A712000078220000211400007F14000052
S1130F8055120000651400008405002009040000C7
S1130F90F0B5C64600B506004A484B4B98470028B2
S1130FA008D12623494AD35C002B27D1002004BC56
S1130FB09046F0BD454C21002431454B1868012270
S1130FC0444B98472423E35C742B0DD00A2B10D098
S1130FD025223E498A5C632AE3D8541C25200C54FC
S1130FE08A1828215354DCE700214F3B374AD15457
S1130FF0D7E701211C33354AD154D2E700272623F1
S1131000D754354C20000C3008220021334DA8471A
S11310102000143003220021A847277620001C302A
S113102008220021A847002307E0284AD2182821D3
S1131030515C294AD21811750133022BF5DD264C77
S113104020001430264DA847606230601F4B2833BF
S1131050DB78237620001830A847C0B22823E05458
S113106070640027042513E0184B28225919895C61
S1131070194C2177691C5B189B5C63777B1C984631
S113108020001C30164B9847E4192073023547465C
S11310902823114AD35C02335B009D42E4DB002326
S11310A005E00D4AD218117BF21811710133072B98
S11310B0F7DD6422002105482830084B98470120B9
S11310C075E7C0460C03002001060000380200202A
S11310D08405002041040000B8020020A71200008B
S11310E0E510000070B504000E4B9847421E002026
S11310F0012509E019004139C9B2052903D8373B54
S11311006B43C0182D01013A002A0ADBA35C1900C5
S11311103039C9B20929EDD8303B6B43C0182D01D1
S1131120F1E770BD7F14000010B50B00002809D151
S113113011001800054B9847002800DB10BD012062
S11311404042FBE701204042F8E7C046A5110000F9
S113115010B50B000138022809D811001800054BFE
S11311609847002800DB10BD01204042FBE7012026
S11311704042F8E7C911000070B50600064D2B681F
S113118098680021054CA0472B6858680021A047A7
S1131190034B1E6070BDC04618000020B71200004B
S11311A0E402002010B50400054B1868002804D0A0
S11311B08AB22100034B984710BD0020FCE7C046CB
S11311C0E40200204104000010B50400054B186837
S11311D0002804D08AB22100034B984710BD002098
S11311E0FCE7C046E40200200904000010B5044CEA
S11311F02000044B98472000034B984710BDC0467D
S11312000C030020A50500007911000070B500262C
S11312100C4D0D4C641BA410A64209D1002601F00C
S1131220FFF80A4D0A4C641BA410A64205D170BDF8
S1131230B300EB5898470136EEE7B300EB589847F4
S11312400136F2E72C2400002C2400002C2400009A
S113125030240000044B1B681B6A002B00D1034B95
S1131260EC3318687047C046180000207C0000204A
S113127082B0002900D101A9101E06D0002B06D08F
S113128013780B601078431E984102B07047022017
S11312904042FAE7002310B59A4200D110BDCC5C5D
S11312A0C4540133F8E703008218934200D1704715
S11312B019700133F9E74A424A41802310B55200BC
S11312C0DB0000F001F810BDF0B51D004F4B85B0F8
S11312D01E6804000F000092002E05D0B369002B95
S11312E002D1300000F0D6F9494B9C4250D17468C9
S11312F0009B022B05D0012B00D984E0002D00DADD
S113130081E02100300000F057F9616B002908D01A
S113131023004433994202D0300000F083FA0023C2
S113132063630023A3616360A3891B0603D521695A
S1131330300000F077FAA389364A1340A381009B5A
S1131340022B5AD003AB02AA2100300000F038FA75
S1131350A3891843A081002D24D1029D280000F008
S113136057FA0195071E42D1029B0193AB4239D132
S1131370012040420223A2891343A3810023A360D6
S113138023004733236023610123636105B0F0BD6B
S1131390214B9C4201D1B468AAE7204B9C42A7D1BF
S11313A0F468A5E7002FD9D0B369002B02D130002F
S11313B000F070F9009B012B03D1A389009A1A4312
S11313C0A2810820A389276027616561184018D08D
S11313D0012018400023984211D06D42A360A561FA
S11313E01800D3E7019800F013FA071EC0D0802339
S11313F0A289019D1343A381D6E70020BAE7A56023
S1131400C4E7A060C2E701204042BFE71800002003
S1131410AC2300005CF3FFFFCC2300008C2300000E
S11314200EB410B59DB002A9029008610B48822445
S113143088604861012040421FABC881084804CB42
S1131440A400006801938C8100F0F6FA0023029A4C
S113145013701DB010BC08BC03B01847FFFFFF7F1A
S113146018000020020010B51378002B05D1CC5CC5
S1131470D4540133002CFAD110BD0132F4E7002317
S1131480C25C0133002AFBD1581E70470B1E04D0E6
S1131490FF2A04D98A2303608B3B180070470A7023
S11314A00123FAE7F7B58A8905000C00130760D415
S11314B04B68002B04DC0B6C002B01DC0020FEBD10
S11314C0E76A002FFAD000232E682B6080235B018B
S11314D01A4034D0606DA3895B0706D56368C01ACF
S11314E0636B002B01D0236CC01A0200216A002315
S11314F02800E76AB847A189431C06D12B681D2B35
S113150031D82C4ADA40D3072DD5002363602369F0
S11315102360CB0405D5431C02D12B68002B00D1DA
S11315206065616B2E600029C8D023004433994262
S113153002D0280000F076F900206063BFE70123A1
S1131540216A2800B847431CC5D12B68002BC2D0A0
S11315501D2B01D0162B01D12E60AFE74023A289A9
S11315601343A381ABE740230B430120A3814042F3
S1131570A5E70F69002FA1D00B680F60DB1B019357
S11315800023920700D14B69A360019B002B00DC70
S113159094E7019B3A00216A2800A66AB047002814
S11315A003DC4023A2891343DFE7019B3F181B1A86
S11315B00193EAE7010040200B6970B505000C00B7
S11315C0002B01D1002070BD002804D08369002BBA
S11315D001D100F05FF80B4B9C4209D16C680C22DE
S11315E0A35E002BEED021002800FFF75BFFEAE7A3
S11315F0054B9C4201D1AC68F1E7044B9C42EED10F
S1131600EC68ECE7AC230000CC2300008C23000042
S113161010B5024900F0B2F810BDC046B91500007B
S1131620002310B504000360436083608181436636
S1131630C281036143618361190008225C30FFF7B2
S113164032FE054B24626362044BA362044BE362E3
S1131650044B236310BDC046751F00009D1F00008E
S1131660D51F00000120000070B568254A1E5543AF
S11316700E002900743100F01FF9041E08D0002167
S11316802A00016046600C30A0606832FFF70BFE50
S1131690200070BD836913B50400002B28D1836436
S11316A0C3640365134B144A1B6882620193984216
S11316B001D101238361200000F020F86060200044
S11316C000F01CF8A060200000F018F80022E06090
S11316D004216068FFF7A4FF01220921A068FFF735
S11316E09FFF02221221E068FFF79AFF0123A36102
S11316F013BDC0467C22000011160000F8B51E4B35
S113170007001E68B369002B02D13000FFF7C2FF47
S11317104836B4687368013B04D53368002B07D09E
S11317203668F6E70C22A55E002D0DD06834F2E78A
S113173004213800FFF798FF30600028F0D10C2313
S113174004003B602000F8BD012320005B42E381DC
S11317500233A38165662560A560656025616561C6
S1131760A561082229005C30FFF79DFD6563A56330
S1131770A564E564E6E7C0467C220000F7B50400F2
S11317800700002601914834002C01D13000FEBD31
S11317906368A5680093009B013B009301D524680E
S11317A0F2E7AB89012B08D90E22AB5E013304D0DA
S11317B029003800019B984706436835EBE7000091
S11317C070B50E001D000E23C95E90B014000029F0
S11317D007DA00232B60B3891B0611D48023DB00B6
S11317E00FE001AA00F038FC0028F2DBF022029B93
S11317F012021340054A9B185A4253412B60EDE7ED
S113180040230020236010B070BDC04600E0FFFFFD
S113181010B5034B0100186800F04EF810BDC04627
S11318201800002070B50500002910D00C1F236893
S1131830002B00DAE418280000F051FC1D4A13685C
S1131840002B05D163601460280000F049FC70BDD2
S1131850A34209D9216860188342F3D118685B68F0
S113186041182160EEE713005A68002A01D0A24211
S1131870F9D919685818A0420BD1206809185818CA
S113188019608242E0D110685268411819605A60A8
S1131890DAE7A04202D90C232B60D5E7216860184F
S11318A0824203D1106852684118216062605C6012
S11318B0CAE7C046E8020020032370B5CD1C9D434F
S11318C0083506000C2D1ED20C25A9421DD8300067
S11318D000F005FC254A14682100002919D1244C84
S11318E02368002B03D1300000F032FB2060290074
S11318F0300000F02DFB431C2CD10C23300033604E
S113190000F0EEFB03E0002DDFDA0C23336000204F
S113191070BD0B685B1B1AD40B2B03D90B60CC185E
S1131920256003E08C420ED163681360300000F040
S1131930D7FB200007220B30231D9043C31AE7D0A6
S11319405A42E250E4E74B6863600C00EEE70C0097
S11319504968C2E70323C41C9C43A042E0D0211A77
S1131960300000F0F5FA431CDAD1C6E7E8020020A3
S1131970EC020020F0B58E6885B007000C000392DD
S113198001939E4239D890238A89DB001A4234D0CD
S11319900325096923685B1A0293636902985D430E
S11319A0EB0F5D19019B6D1001331B18AB4200D97D
S11319B01D00530532D529003800FFF77DFF061EB0
S11319C009D10C233B6040230120A28940421343E8
S11319D0A38105B0F0BD029A2169FFF75BFCA389DE
S11319E0144A1A4080231343A381029B2661F618EC
S11319F026606561019EED1AA560019BB34200D289
S1131A001E0032000399206800F057FBA3680020F1
S1131A109B1BA36023689E192660DAE72A0038001E
S1131A2000F05FFB061EE0D121693800FFF7FAFEE3
S1131A30C7E7C0467FFBFFFFF0B59FB00290059358
S1131A408B890F0016001B0611D50B69002B0ED1D4
S1131A504021FFF731FF38603861002805D10C239D
S1131A60029A013813601FB0F0BD40237B6100234C
S1131A7006AD6B6120336B761033AB76340023787C
S1131A80002B47D1A31B04930DD0A31B32003900B4
S1131A900298FFF76FFF431C00D1B5E06A69049B0D
S1131AA0944663446B612378002B00D1ACE001229F
S1131AB0002352426A6002A95432521801342B6046
S1131AC0EB60AB601370AB65584E05222178300093
S1131AD000F0E8FA621C002820D12968CB0604D55E
S1131AE0532302AE20309B1918700B0704D55323DF
S1131AF02B2002AE9B19187023782A2B16D00020B5
S1131B000A21099B2278303A092A55D9002815D090
S1131B10099313E0252BB5D00134B0E70123801BD2
S1131B208340296814000B432B60CDE7059B181DE7
S1131B301B680590002B39DB0993140023782E2BA6
S1131B400BD16378621C2A2B3ED1059B02341A1DEB
S1131B501B680592002B34DB0793354E2178032252
S1131B60300000F09FFA002806D04023801B8340F9
S1131B702A68013413432B60217806222D48661C01
S1131B80297600F08FFA002846D02B4B002B2FD15A
S1131B902968059B0722C90528D59B189343083358
S1131BA005936B69039A9B186B6167E75B42EB6073
S1131BB002230B432B60C0E74B4301349B180120E5
S1131BC0A0E701235B42C7E7002314000A201A00A0
S1131BD06B6021783039092903D9002BBDD00792D5
S1131BE0BBE74243013452180123F2E70733D5E738
S1131BF005AB00933A00114B2900029800E000BFA6
S1131C000390039B0133CCD1BB890B985B0600D4B2
S1131C1029E70120404226E705AB00933A00074B31
S1131C202900029800F07AF8EAE7C046EC230000A5
S1131C30F2230000F62300000000000075190000E4
S1131C40F7B5150001938A680B6900900C00934264
S1131C5000DA130022002B6043321278002A01D0EC
S1131C6001332B6023689B0602D52B6802332B605B
S1131C70062723681F4027D0230043331B785A1EAE
S1131C8093412268920630D422000199433200988D
S1131C90089EB047431C25D0062320682A68E168C3
S1131CA003400025042B03D18D1AEB43DB171D40A1
S1131CB0A3682269934201DD9B1AED180027BD42F7
S1131CC020D1002010E00137E3682A689B1A9F4264
S1131CD0D2DA22000123193201990098089EB047F4
S1131CE0431CF0D101204042FEBD3020E1184331B5
S1131CF0087021005A1C45310978A2184332023376
S1131D001170C1E7220001231A3201990098089E3C
S1131D10B047431CE6D00137D1E70000F0B58BB0E3
S1131D2006920A0043320793059004920A7E0C003F
S1131D30109B6E2A00D18FE017D8632A2CD008D8C4
S1131D40002A00D199E0582A54D026004236327035
S1131D5029E0642A01D0692AF7D121681A680806A3
S1131D6023D5111D1960156825E0732A00D188E078
S1131D7008D86F2A29D0702AE7D1202209680A439B
S1131D80226003E0752A20D0782ADED1220078214F
S1131D90453211706C4A30E00E001A684236111D4B
S1131DA0196013683370012379E04906D9D5111DF0
S1131DB019600023D55E002D03DA2D23049A6D42A9
S1131DC01370624B0A2703932FE0206819680506F5
S1131DD003D5081D18600D6805E04006F9D50D68A7
S1131DE0081D1860ADB2594B082703936F2A18D009
S1131DF00A2716E045310A70544A03921A6821688A
S1131E00101D18601568080622D5CB0702D52023BB
S1131E10194321601027002D03D1202322689A43FF
S1131E2022602300002243331A706368A360002BEE
S1131E305CDB0422216891432160002D58D1049E6B
S1131E40002B64D02600039B42361B7833705EE07F
S1131E504806DAD5ADB2D8E709681A68080605D588
S1131E60111D1960136862691A6006E04906F7D506
S1131E70111D19601368A28A1A800023049E23612D
S1131E8054E01A68111D1960166800216268300058
S1131E9000F008F9002801D0801B606063682361AA
S1131EA00023049A137041E02369320006990598CF
S1131EB0079DA847431C43D0236800259B070FD4E4
S1131EC0099BE06898423DDA18003BE022000123B8
S1131ED0193206990598079EB047431C30D0013546
S1131EE0E368099A9B1A9D42F0DBE9E7002DA9D02B
S1131EF0049E28003900FEF7B9FC039B013E5B5C9D
S1131F00280033703900FEF796FC051EF1D1082F26
S1131F1009D12368DB0706D563682269934202DC92
S1131F203023013E3370049B9B1B2361079B09AA4A
S1131F3000932100069B0598FFF782FE431CB3D152
S1131F40012040420BB0F0BD0E240000FD23000030
S1131F50002370B5064C050008002360FEF768FBFB
S1131F60431C03D12368002B00D02B6070BDC046F6
S1131F70EC05002070B50C000E25495F00F0D8F880
S1131F80002803DB636D1B18636570BDA389024AD7
S1131F901340A381F9E7C046FFEFFFFFF8B51F0028
S1131FA08B8905000C001600DB0505D50E23C95EE0
S1131FB00022022300F062F8A389054A2800134096
S1131FC0A38132000E23E15E3B0000F01FF8F8BD50
S1131FD0FFEFFFFF70B50C000E25495F00F04EF8CF
S1131FE0A389421C03D1054A1340A38170BD8022FA
S1131FF052011343A3816065F8E7C046FFEFFFFF7A
S113200010B50E23C95E00F015F810BD70B50500BB
S1132010080011000022064C22601A00FFF798F80D
S1132020431C03D12368002B00D02B6070BDC04635
S1132030EC050020002370B5064C05000800236061
S1132040FEF708FB431C03D12368002B00D02B6050
S113205070BDC046EC050020002370B5064C050099
S1132060080011002360FEF7F8FA431C03D123682B
S1132070002B00D02B6070BDEC05002070B505006E
S1132080080011000022064C22601A00FEF7EAFA4A
S1132090431C03D12368002B00D02B6070BDC046C5
S11320A0EC050020C9B28218904201D1002070478B
S11320B003788B42FBD00130F6E710B5884202D991
S11320C08B18984208D300239A4207D0CC5CC4549E
S11320D00133F9E78B5C8354013AFBD210BD70479E
S11320E07047F8B507000D001600002905D111004E
S11320F0FFF7E2FB04002000F8BD002A03D1FFF73C
S113210091FB3400F7E700F027F82C008642F2D95F
S113211031003800FFF7D0FB041EECD02900320058
S1132120FFF7B8F829003800FFF77CFBE3E700006D
S113213070B50500080011000022064C22601A0048
S1132140FEF7F2FF431C03D12368002B00D02B6061
S113215070BDC046EC0500200B1F1B68181F002B28
S113216001DA0B58C01870472E2E2F68616C2F733C
S113217072632F68616C5F63616E5F6173796E6314
S11321802E6300002E2E2F68616C2F7372632F68EC
S1132190616C5F666C6173682E6300002E2E2F687D
S11321A0616C2F7372632F68616C5F696F2E6300BB
S11321B02E2E2F68616C2F7372632F68616C5F75AC
S11321C0736172745F73796E632E63002E2E2F68B1
S11321D0706C2F6E766D6374726C2F68706C5F6EAA
S11321E0766D6374726C2E6300000000000400427C
S11321F000080042000C004200100042001400429B
S113220000180042000000430004004304000000E2
S113221004003140000003002BF600000000000021
S113222000000000000000000000000000000000AA
S1132230000000000000000000000000000000009A
S1132240000000000000000000000000000000008A
S11322500000000000000000000000002E2E2F6887
S1132260706C2F736572636F6D2F68706C5F73652C
S113227072636F6D2E630000257800001C0000203F
S11322804300504F534958002E00002020202020A6
S11322902020202028282828282020202020202012
S11322A02020202020202020202020881010101002
S11322B01010101010101010101010040404040456
S11322C00404040404101010101010104141414182
S11322D0414101010101010101010101010101016A
S11322E0010101010101101010101010424242427C
S11322F0424202020202020202020202020202023A
S1132300020202020202101010102000000000005D
S113231000000000000000000000000000000000B9
S113232000000000000000000000000000000000A9
S11323300000000000000000000000000000000099
S11323400000000000000000000000000000000089
S11323500000000000000000000000000000000079
S11323600000000000000000000000000000000069
S11323700000000000000000000000000000000059
S11323800000000000000000000000000000000049
S11323900000000000000000000000000000000039
S11323A00000000000000000000000000000000029
S11323B00000000000000000000000000000000019
S11323C00000000000000000000000000000000009
S11323D000000000000000000000000000000000F9
S11323E0000000000000000000000000232D302B3E
S11323F02000686C4C006566674546470030313202
S11324003334353637383941424344454600303158
S113241032333435363738396162636465660000B7
S1132420F8B5C046F8BC08BC9E467047E5000000FD
S1132430F8B5C046F8BC08BC9E467047BD00000015
S113244060030020400300200C0200201C02002036
S113245024020020FF0000001C00002000000000F7
S1132460AC230000CC2300008C23000000000000FB
S11324700000000000000000000000000000000058
S11324800000000000000000000000000000000048
S11324900000000000000000000000000000000038
S11324A00000000000000000000000000000000028
S11324B000000000000000000000000043000000D5
S11324C00000000000000000000000000000000008
S11324D000000000000000000000000043000000B5
S11324E000000000000000000000000000000000E8
S11324F00000000000000000000000004300000095
S113250000000000000000000000000000000000C7
S11325100000000000000000000000004300000074
S113252000000000000000000000000000000000A7
S11325300000000000000000000000004300000054
S11325400000000000000000000000000000000087
S11325500000000000000000000000004300000034
S11325600000000000000000000000000000000067
S11325700000000000000000000000004300000014
S11325800000000000000000000000000000000047
S11325900000000000000000000000008D14000096
S11325A071120000000000008A220000882200004E
S11325B0F1230000F1230000F1230000F1230000C7
S11325C0F1230000F1230000F1230000F1230000B7
S11325D0F1230000FFFFFFFFFFFFFFFFFFFFFFFFEF
S11325E0FFFF00000100415343494900000000007F
S11325F000000000000000000000000000000000D7
S1132600000000000000415343494900000000005D
S113261000000000000000000000000000000000B6
S10B26200000000000000000AE
S9030000FC
