:1000000028240020350100003101000031010000EA
:1000100000000000000000000000000000000000E0
:10002000000000000000000000000000310100009E
:10003000000000000000000031010000310100005C
:1000400031010000310100003101000031010000E8
:1000500031010000310100003D09000031010000C4
:1000600031010000310100003101000031010000C8
:1000700031010000310100003101000031010000B8
:10008000750700003101000031010000310100005E
:100090003101000031010000310100003101000098
:1000A0003101000031010000310100003101000088
:1000B00031010000310100003101000010B5064C93
:1000C0002378002B07D1054B002B02D0044800E019
:1000D00000BF0123237010BDE801002000000000D4
:1000E000C41C0000084B10B5002B03D0074908487A
:1000F00000E000BF07480368002B00D110BD064B8D
:10010000002BFBD09847F9E700000000EC0100202D
:10011000C41C0000C41C00000000000010B5024B0D
:100120009847024B984710BDE10200009110000073
:10013000FEE7000010B5104A104B9A4209D00F4B51
:100140000D4A03E011681960043304320C498B42F4
:10015000F8D30C4B02E000221A6004330A4A93429F
:10016000F9D30A4AFF210A4B8B439360094B984706
:10017000094B9847FEE7C046C41C00000000002061
:10018000E8010020E80100202804002000ED00E044
:1001900000000000B1100000650F0000024A136962
:1001A00020210B43136170470008004010B5034B3A
:1001B000984703490348044B984710BD9D01000030
:1001C00000400041440200209503000030B5822326
:1001D000DB05CA22995C0125A94301242143C9B248
:1001E0009954B520195CBB3A914303221143C9B21B
:1001F0001954CB215A5CAA432243D2B25A541A5CF6
:10020000BC390A4030210A43D2B21A5430BD000032
:10021000064B4021DC2299500331143A9950044A8C
:10022000D36923390B43D3617047C046001C00409B
:100230000008004010B5054B9847002204490548C6
:10024000054B9847054B984710BDC046110200006A
:10025000001400426002002059050000CD0100009A
:1002600030B58223DB05CF22995C0125A943012407
:100270002143C9B29954B720195CC03A1140602299
:100280001143C9B21954CE215A5CAA432243D2B2B7
:100290005A541A5CBF398A4306210A43D2B21A540F
:1002A00030BD000010B5084A116980239B000B4344
:1002B00013614021EC23054AD15005490548064BFE
:1002C0009847064B984710BD00080040001C0040AE
:1002D000002000426C02002029030000610200009F
:1002E00010B5044B9847044B9847044B9847044B70
:1002F000984710BDE5070000AD0100003502000081
:10030000A502000010B5C369002B00D0984710BDAE
:1003100010B5036A002B00D0984710BD10B5436A92
:10032000002B00D0984710BD70B504000D000028C8
:1003300015D0002911D0012041220A490A4B9847C3
:1003400029002000094B9847002805D1084B63601D
:10035000084BA360084BE36070BD0020ECE7002071
:10036000EAE7C046001A00002906000069060000FE
:1003700005030000110300001D03000010B54369D0
:10038000002B00D0984710BD10B58369002B00D01A
:10039000984710BD70B504000D00002813D0002947
:1003A0000FD0012038220949094B98472900200025
:1003B000084B9847002803D1074B2360074B636025
:1003C00070BD0020EEE70020ECE7C0461C1A0000DC
:1003D00029060000D90800007D0300008903000001
:1003E00010B50400431E9841C0B2F7220349044BE4
:1003F00098472000034B984710BDC0461C1A0000C8
:10040000290600003909000070B504000D0016002F
:1004100000280ED000290AD0012034220649074BBB
:1004200098472368320029002000984770BD0020BB
:10043000F3E70020F1E7C046341A00002906000067
:1004400070B504000D00160000280ED000290AD057
:1004500001203D220649074B984763683200290076
:100460002000984770BD0020F3E70020F1E7C04668
:10047000341A000029060000F8B505000E00170028
:10048000002823D0002923D0002A23D10020F122E4
:100490001149124B98472C0008342000104B984704
:1004A0000028F8D00025715D20000E4B98472000F1
:1004B0000B4B98470028FAD00135BD42F3D32000FA
:1004C000094B98470028FAD02800F8BD0020DEE745
:1004D0000020DCE70120DAE7481A000029060000C6
:1004E000CF0B0000BF0B0000D90B0000F8B5CE46C3
:1004F000474680B5051E884691461FD000291FD06B
:10050000002A1FD10020862252000F490F4B984726
:1005100000262C00083420000D4B98470028F8D006
:1005200043469F1920000B4B9847387001364E45C3
:10053000EFD330000CBC90469946F8BD0020E2E7AE
:100540000020E0E70120DEE7481A0000290600004D
:10055000E50B0000C70B000070B504000D0000287B
:1005600014D0002910D0012034220949094B9847A2
:10057000200008302900084B9847002803D1074B7A
:100580006360074B236070BD0020EDE70020EBE7C0
:10059000481A000029060000810B0000ED0400004D
:1005A0007904000010B50400431E9841C0B25322E4
:1005B0000449054B984720000830044B9847002019
:1005C00010BDC046481A000029060000AD0B00000F
:1005D00070B504000D0000280BD0002907D00120C1
:1005E00069220549054B98472C60002070BD00200A
:1005F000F6E70020F4E7C046481A0000290600008C
:1006000010B50400431E9841C0B2D7220349044BE1
:10061000984720000830034B984710BD481A000047
:1006200029060000E50B0000002800D100BE70473D
:100630000300064A1268002A04D0044A1068C3184E
:10064000136070470249014A1160F6E70402002076
:100650002824002001204042704780239B014B60EA
:100660000020704700207047F0B501608B690122BF
:1006700013438B6103689A69D207FBD59A690224F8
:1006800022439A61334B99420FD002689369022149
:100690008B4393610268936901398B4393610368CB
:1006A0009B69DB07FBD40020F0BD2B4B1A0001C275
:1006B0002A49816101688C698C61016800248C6021
:1006C0000168274DCD610168264DCD60264D2D0472
:1006D0002D0C802189020D43A0260768BD51BC2541
:1006E000066874510C3506687451204D2D042D0C8C
:1006F0008026B6043543C0260768BD511204120C8B
:100700000A43F02506687251703D2822066872512E
:100710001A0014321204120C0A4384260768BA51D4
:100720001C331B041B0C0B43882201688B50902345
:100730000268D4500E4B802252025A51BFF34F8FA1
:10074000BFF36F8FC02149005A501A60036801221D
:10075000DA659AE70020004208020020000000202D
:10076000070A0206330A0000B402002094020020A7
:1007700000E100E070B51A4B1D682B681C6DE307A3
:1007800014D4A30516D4A30118D4E3011BD4230267
:1007900007D5EB682A68526C920619D50221280009
:1007A0009847230716D42B681C6570BD2800AB68DA
:1007B0009847E6E728006B689847E4E7032128009C
:1007C000EB689847E1E700212800EB689847DEE7EF
:1007D0000121E4E704212800EB689847E3E7C046DD
:1007E0000802002010B5094A536804210B435360E6
:1007F000074B9847074B9847074B9847074B984735
:10080000FF20074B9847074B984710BD0040004119
:100810006D09000091090000CD0800009509000055
:10082000A9080000290800009022D20513780221AF
:100830008B431370704710B582B0EFF310830193B0
:1008400072B69023DB051A780124A2431A709860CF
:10085000D9609023DB051B79DB07FAD49023DB05F5
:100860001869019B83F3108802B010BD10B582B0E7
:10087000EFF31083019372B69023DB051A780124FD
:10088000A2431A709860D9609023DB051B79DB07BF
:10089000FAD4044B18685968019B83F3108802B09E
:1008A00010BDC04610000048C30707D5044A054BD9
:1008B0001A62044B5A68044B1A42FAD17047C04678
:1008C00007010100001C0040FD0700000122014B50
:1008D0001A7170470008004070B505000C00002830
:1008E0001CD0104B99421BD0002046220E490F4BC2
:1008F00098472C6162689E23134063600C4B1D6017
:100900000C4B402280215A50BFF34F8FBFF36F8FA3
:100910000131FF315A501A60002070BD0020E4E719
:100920000120E2E700400041641A000029060000AF
:100930003402002000E100E04020704710B50A4B6F
:10094000186803691A7DD20704D50368002B00D00C
:10095000984710BD1A7D9207FBD502221A7543688D
:10096000002BF6D09847F4E734020020074A8E2384
:10097000938200239375D375D3691B0A1B02F82158
:1009800049010B40D36101231361704700140040FB
:1009900070470000194A1A4B1A622C23184AD25C7D
:1009A0001E3B1A42F9D1164B00225A6228215A5492
:1009B0002C23134AD25C1E3B1A42F9D10222104B5F
:1009C0001A772C230E4AD35C9B07FAD430230C4AA7
:1009D000D35CDB0703D43023D35C9B07F6D5084AEE
:1009E000137F802149420B43DBB213772C23044A47
:1009F000D25C1E3B1A42F9D17047C046B7050D00C4
:100A00000010004030B589B00B4C6B46220032CA52
:100A100032C332CA32C312CA12C30023072B08D80A
:100A20009A0069465258824201D00133F6E7D8B2A3
:100A300000E0002009B030BD841A000010B50C4B56
:100A4000984702000020002806D00A4A0A490020E0
:100A50000A4B9847002010BD83001B189900084BD3
:100A60005B1820215B5C9A42F5D00130C0B2EAE706
:100A7000050A00003D020000F41A000029060000EB
:100A8000841A000070B504003B4B9847E369DB070C
:100A90001DD483001B189A00384B9B185A6A1C23DC
:100AA0001A40E3699B07FCD123689B0709D523689B
:100AB00002218B432360E3699B07FCD1E3699B0719
:100AC000FCD4012313432360E3699B07FCD1E36952
:100AD000DB07FCD483001B189A00284B9B185B6A29
:100AE0002360E3699B07FCD183001B189A00234B0A
:100AF0009B189B6A6360E3695B07FCD183001B184A
:100B00009A001E4B9B185B6A9A040BD4C022D20138
:100B1000134207D183001B189A00184B9B189B8D1A
:100B2000A38119E0154A81000D18AB00D3189D8DE3
:100B3000A389ED04ED0C5B0B5B032B43A3812032F7
:100B40000B1899005218937B07221A40A38952036D
:100B5000DB04DB0C1343A381084B19002031820016
:100B60001618B5004919C97BA1735B1930331A787F
:100B70003023E254002070BD3D0A0000841A0000BA
:100B800070B505000C00431E9841C0B2B422044960
:100B9000044B98472C602000034B984770BDC0461B
:100BA000F41A000029060000850A00000268136894
:100BB00002210B431360D3699B07FCD17047036884
:100BC00089B2198570470368188DC0B270470368F1
:100BD000187E01231840704703681B7E5B080120C4
:100BE0001840704703681B7E9B080120184070471F
:100BF00070B504000E4B9847421E0020012509E005
:100C000019004139C9B2052903D8373B6B43C018D5
:100C10002D01013A002A0ADBA35C19003039C9B260
:100C20000929EDD8303B6B43C0182D01F1E770BDA9
:100C300017130000F8B53B483B4B9847002807D1F5
:100C40003A4B1B7A002B6CD00022384B1A7222E0F0
:100C5000364C374B186801222100364B98472378D1
:100C6000742B0AD00A2B0CD00D2B0AD02F4A5168B6
:100C7000481C506052185372E2E700222B4B5A6016
:100C8000DEE70122294B1A72DAE7284B9B18597AC2
:100C90003B3319700132022AF7DD274C2000274D23
:100CA000A847274E306020003B38027B3E23C254C9
:100CB0003E30A847050070600424002612E01B485F
:100CC00003195A7A3F23C254631CC3185A7A40232B
:100CD000C254771C3F30194B9847194B9B19187217
:100CE00002343E00AB1C5B009C4203DA0F4B5B6896
:100CF0009C42E4DB134C192200212000124DA8472E
:100D00002000323003220021A84720003630022282
:100D10000021A847093C00223E23E25401320B4B3C
:100D20005A70F8BD60020020010600001403002084
:100D300058030020410400004F030020F10B000085
:100D4000880300201D03002083110000A003002061
:100D5000F8B5624C192200212000614DA847661F9A
:100D6000032200213000A847083C03220021200074
:100D7000A847A01D02220021A84774232372594BC3
:100D8000186810223100584B98473000574B98474D
:100D900002280CD0032812D0012801D0002421E021
:100DA000534B00221A705A70DA789A70F6E7504B5B
:100DB00000221A70DA785A701A799A70EEE74C4B62
:100DC000DA781A701A795A705A799A70E6E7494BAC
:100DD00098474019427803231340022B11D0444B0B
:100DE0001D550134022C0EDC414B1D5D2B00613B77
:100DF000DBB2052BEBD9002DF3D130223C4B1A5539
:100E0000EFE7203DEBE73A4C2000083021003A4B59
:100E10009847344B5B6830332373052600241CE06D
:100E2000344B98474019427803231340022B02D0D9
:100E30002F4B9D7130E0203DFAE72E4B984740192B
:100E4000427803231340022B37D0294BDD71023641
:100E5000274BDA79DB191A720134224B5B689C420A
:100E60002DDA204D2D19287A102224491E4B98473F
:100E70002B7A0F2B04D81E4B9A79D9799971DA7194
:100E80001B4B9D792B00613BDBB2052BC8D9002D94
:100E900002D13022164B9A71771C154B99799A1909
:100EA0001172DD792B00613BDBB2052BC5D9002D1A
:100EB000CDD130220E4BDA71C9E7203DC5E7630082
:100EC00005330B49CB180D221A7203346400A2B209
:100ED00008310B4B18680B4B9847F8BDDC0200201B
:100EE000831100008803002029110000171300005F
:100EF000D402002031110000FD120000DA020020AF
:100F0000580300200904000010B50248024B98471E
:100F100010BDC04644020020E103000010B50C4B98
:100F20001B68012B00D010BD094C2360094B98476A
:100F3000C0B22072084B1860084A1368936263724B
:100F40001B0AA37203236360054B9847EBE7C04677
:100F500088030020090F0000140000205C0300201B
:100F6000510D000010B50F4B98470F490F48104B1B
:100F70009847E02212020F4B1A6000230E4A1372A8
:100F8000012149420D4A11600D4A53700D4B98479B
:100F90000B4B5B78002BF9D00022094B5A700A4B9F
:100FA0009847F3E71D01000058030020600200206D
:100FB000D10500005C0300201403002088030020FA
:100FC000A0030020350C00001D0F000010B50B0021
:100FD000002809D111001800054B9847002800DBB4
:100FE00010BD01204042FBE701204042F8E7C04627
:100FF0004910000010B50B000138022809D8110073
:101000001800054B9847002800DB10BD0120404226
:10101000FBE701204042F8E76D10000070B50600C4
:10102000064D2B6898680021054CA0472B6858682E
:101030000021A047034B1E6070BDC0461800002071
:10104000931100003802002010B50400054B186809
:10105000002804D08AB22100034B984710BD00201D
:10106000FCE7C046380200204104000010B504002F
:10107000054B1868002804D08AB22100034B98471A
:1010800010BD0020FCE7C046380200200904000023
:1010900010B5044C2000044B98472000034B9847A0
:1010A00010BDC04660020020A50500001D10000014
:1010B00070B500260C4D0D4C641BA410A64209D13E
:1010C000002600F0EFFD0A4D0A4C641BA410A64256
:1010D00005D170BDB300EB5898470136EEE7B30079
:1010E000EB5898470136F2E7B01C0000B01C000036
:1010F000B01C0000B41C0000931E10B50C00222B85
:1011000004D900231C000B70200010BD0A2A09D14D
:10111000002807DA2D230B7001214042611800F0EE
:1011200001F9F1E70021F9E710B5FFF7E5FF10BD80
:10113000044B1B681B6A002B00D1034BEC3318686F
:101140007047C046180000207C00002082B00029B3
:1011500000D101A9101E06D0002B06D013780B6019
:101160001078431E984102B0704702204042FAE7CF
:10117000002310B59A4200D110BDCC5CC454013399
:10118000F8E703008218934200D1704719700133C9
:10119000F9E74A424A41802310B55200DB0000F0D3
:1011A00001F810BDF0B51D004F4B85B01E6804005E
:1011B0000F000092002E05D0B369002B02D1300041
:1011C00000F0EEF9494B9C4250D17468009B022B11
:1011D00005D0012B00D984E0002D00DA81E0210048
:1011E000300000F06FF9616B002908D02300443310
:1011F000994202D0300000F09BFA00236363002381
:10120000A3616360A3891B0603D52169300000F048
:101210008FFAA389364A1340A381009B022B5AD030
:1012200003AB02AA2100300000F050FAA389184352
:10123000A081002D24D1029D280000F06FFA0195B5
:10124000071E42D1029B0193AB4239D1012040429B
:101250000223A2891343A3810023A3602300473301
:10126000236023610123636105B0F0BD214B9C42E3
:1012700001D1B468AAE7204B9C42A7D1F468A5E746
:10128000002FD9D0B369002B02D1300000F088F9CB
:10129000009B012B03D1A389009A1A43A281082045
:1012A000A389276027616561184018D00120184084
:1012B0000023984211D06D42A360A5611800D3E7C6
:1012C000019800F02BFA071EC0D08023A289019D4F
:1012D0001343A381D6E70020BAE7A560C4E7A06066
:1012E000C2E701204042BFE718000020641C000054
:1012F0005CF3FFFF841C0000441C0000020010B5DA
:101300001378002B05D1CC5CD4540133002CFAD1D6
:1013100010BD0132F4E70023C25C0133002AFBD187
:10132000581E7047F0B517008FB0252206000D003B
:1013300004A81849FFF71CFF04AABB1E002403924F
:10134000222B05D92C70250028000FB0F0BD019C80
:10135000631C0193EB1800933000013B39000293AA
:10136000FFF784FA039B029A5B5C3000137039002C
:10137000FFF761FA061EEAD1009B18702B005A1B7A
:101380009442E1DD1A78295D19702A550133013C38
:10139000F5E7C0461E1B00000B1E04D0FF2A04D92F
:1013A0008A2303608B3B180070470A700123FAE719
:1013B000F7B58A8905000C00130760D44B68002B31
:1013C00004DC0B6C002B01DC0020FEBDE76A002F63
:1013D000FAD000232E682B6080235B011A4034D0A2
:1013E000606DA3895B0706D56368C01A636B002B29
:1013F00001D0236CC01A0200216A00232800E76A8A
:10140000B847A189431C06D12B681D2B31D82C4A23
:10141000DA40D3072DD50023636023692360CB0412
:1014200005D5431C02D12B68002B00D16065616B90
:101430002E600029C8D023004433994202D02800EE
:1014400000F076F900206063BFE70123216A2800DD
:10145000B847431CC5D12B68002BC2D01D2B01D02F
:10146000162B01D12E60AFE74023A2891343A3813D
:10147000ABE740230B430120A3814042A5E70F695E
:10148000002FA1D00B680F60DB1B01930023920794
:1014900000D14B69A360019B002B00DC94E7019B0A
:1014A0003A00216A2800A66AB047002803DC4023DE
:1014B000A2891343DFE7019B3F181B1A0193EAE758
:1014C000010040200B6970B505000C00002B01D114
:1014D000002070BD002804D08369002B01D100F0EA
:1014E0005FF80B4B9C4209D16C680C22A35E002B69
:1014F000EED021002800FFF75BFFEAE7054B9C4296
:1015000001D1AC68F1E7044B9C42EED1EC68ECE70A
:10151000641C0000841C0000441C000010B502493B
:1015200000F0B2F810BDC046C5140000002310B58D
:10153000040003604360836081814366C28103616C
:1015400043618361190008225C30FFF71AFE054BE6
:1015500024626362044BA362044BE362044B236383
:1015600010BDC046A5180000CD18000005190000E8
:101570003119000070B568254A1E55430E00290038
:10158000743100F01FF9041E08D000212A00016008
:1015900046600C30A0606832FFF7F3FD200070BD9C
:1015A000836913B50400002B28D18364C3640365E9
:1015B000134B144A1B6882620193984201D10123A4
:1015C0008361200000F020F86060200000F01CF82B
:1015D000A060200000F018F80022E060042160689C
:1015E000FFF7A4FF01220921A068FFF79FFF022255
:1015F0001221E068FFF79AFF0123A36113BDC046E3
:10160000101B00001D150000F8B51E4B07001E68DA
:10161000B369002B02D13000FFF7C2FF4836B4682F
:101620007368013B04D53368002B07D03668F6E7B2
:101630000C22A55E002D0DD06834F2E7042138009D
:10164000FFF798FF30600028F0D10C2304003B60C6
:101650002000F8BD012320005B42E3810233A38117
:1016600065662560A560656025616561A5610822E4
:1016700029005C30FFF785FD6563A563A564E5641B
:10168000E6E7C046101B0000F7B50400070000267F
:1016900001914834002C01D13000FEBD6368A5687B
:1016A0000093009B013B009301D52468F2E7AB89CE
:1016B000012B08D90E22AB5E013304D0290038007B
:1016C000019B984706436835EBE7000070B50E00B4
:1016D0001D000E23C95E90B01400002907DA002314
:1016E0002B60B3891B0611D48023DB000FE001AA15
:1016F00000F04AF90028F2DBF022029B12021340AC
:10170000054A9B185A4253412B60EDE740230020C5
:10171000236010B070BDC04600E0FFFF10B5034B62
:101720000100186800F04EF810BDC04618000020F7
:1017300070B50500002910D00C1F2368002B00DABB
:10174000E418280000F046F91D4A1368002B05D163
:1017500063601460280000F03EF970BDA34209D90F
:10176000216860188342F3D118685B6841182160D2
:10177000EEE713005A68002A01D0A242F9D919688D
:101780005818A0420BD120680918581819608242D5
:10179000E0D110685268411819605A60DAE7A04237
:1017A00002D90C232B60D5E721686018824203D14F
:1017B000106852684118216062605C60CAE7C046E8
:1017C0003C020020032370B5CD1C9D430835060064
:1017D0000C2D1ED20C25A9421DD8300000F0FAF8BD
:1017E000254A14682100002919D1244C2368002BB4
:1017F00003D1300000F044F820602900300000F0F0
:101800003FF8431C2CD10C233000336000F0E3F888
:1018100003E0002DDFDA0C233360002070BD0B687D
:101820005B1B1AD40B2B03D90B60CC18256003E08B
:101830008C420ED163681360300000F0CCF82000B9
:1018400007220B30231D9043C31AE7D05A42E250BF
:10185000E4E74B6863600C00EEE70C004968C2E700
:101860000323C41C9C43A042E0D0211A300000F0A6
:1018700007F8431CDAD1C6E73C02002040020020F2
:10188000002370B5064C050008002360FEF7D0FE6B
:10189000431C03D12368002B00D02B6070BDC046D1
:1018A0002404002070B50C000E25495F00F094F868
:1018B000002803DB636D1B18636570BDA389024AB2
:1018C0001340A381F9E7C046FFEFFFFFF8B51F0003
:1018D0008B8905000C001600DB0505D50E23C95EBB
:1018E0000022022300F062F8A389054A2800134071
:1018F000A38132000E23E15E3B0000F01FF8F8BD2B
:10190000FFEFFFFF70B50C000E25495F00F04EF8A9
:10191000A389421C03D1054A1340A38170BD8022D4
:1019200052011343A3816065F8E7C046FFEFFFFF54
:1019300010B50E23C95E00F015F810BD70B5050096
:10194000080011000022064C22601A00FFF752FB2B
:10195000431C03D12368002B00D02B6070BDC04610
:1019600024040020002370B5064C05000800236005
:10197000FEF770FE431C03D12368002B00D02B60C0
:1019800070BDC04624040020002370B5064C05003D
:10199000080011002360FEF760FE431C03D123689A
:1019A000002B00D02B6070BD2404002070B5050012
:1019B000080011000022064C22601A00FEF752FEB9
:1019C000431C03D12368002B00D02B6070BDC046A0
:1019D000240400207047704770B50500080011000E
:1019E0000022064C22601A00FFF7F0FA431C03D1D4
:1019F0002368002B00D02B6070BDC046240400205B
:101A00002E2E2F68616C2F7372632F68616C5F6379
:101A1000616E5F6173796E632E6300002E2E2F68F6
:101A2000616C2F7372632F68616C5F666C617368A1
:101A30002E6300002E2E2F68616C2F7372632F6847
:101A4000616C5F696F2E63002E2E2F68616C2F739F
:101A500072632F68616C5F75736172745F73796E06
:101A6000632E63002E2E2F68706C2F6E766D63745C
:101A7000726C2F68706C5F6E766D6374726C2E631F
:101A8000000000000004004200080042000C004278
:101A90000010004200140042001800420000004301
:101AA0000004004304000000040031400000030073
:101AB0002BF6000000000000000000000000000005
:101AC0000000000000000000000000000000000016
:101AD0000000000000000000000000000000000006
:101AE00000000000000000000000000000000000F6
:101AF000000000002E2E2F68706C2F736572636FCC
:101B00006D2F68706C5F736572636F6D2E6300007C
:101B10001C0000204300504F534958002E00303124
:101B200032333435363738396162636465666768E5
:101B3000696A6B6C6D6E6F7071727374757677789D
:101B4000797A00002020202020202020202828280A
:101B50002828202020202020202020202020202075
:101B600020202020881010101010101010101010BD
:101B700010101010040404040404040404041010DD
:101B8000101010101041414141414101010101017A
:101B90000101010101010101010101010101011026
:101BA000101010101042424242424202020202024F
:101BB00002020202020202020202020202020210F7
:101BC00010101020000000000000000000000000C5
:101BD0000000000000000000000000000000000005
:101BE00000000000000000000000000000000000F5
:101BF00000000000000000000000000000000000E5
:101C000000000000000000000000000000000000D4
:101C100000000000000000000000000000000000C4
:101C200000000000000000000000000000000000B4
:101C300000000000000000000000000000000000A4
:101C40000000000000000000000000000000000094
:101C50000000000000000000000000000000000084
:101C60000000000000000000000000000000000074
:101C70000000000000000000000000000000000064
:101C80000000000000000000000000000000000054
:101C90000000000000000000000000000000000044
:101CA00000000000F8B5C046F8BC08BC9E4670476E
:101CB000E5000000F8B5C046F8BC08BC9E46704779
:041CC000BD00000063
:101CC400B4020020940200200C0200201C02002018
:101CD40024020020FF0000001C000020000000007F
:101CE400641C0000841C0000441C00000000000070
:101CF40000000000000000000000000000000000E0
:101D040000000000000000000000000000000000CF
:101D140000000000000000000000000000000000BF
:101D240000000000000000000000000000000000AF
:101D3400000000000000000000000000430000005C
:101D4400000000000000000000000000000000008F
:101D5400000000000000000000000000430000003C
:101D6400000000000000000000000000000000006F
:101D7400000000000000000000000000430000001C
:101D8400000000000000000000000000000000004F
:101D940000000000000000000000000043000000FC
:101DA400000000000000000000000000000000002F
:101DB40000000000000000000000000043000000DC
:101DC400000000000000000000000000000000000F
:101DD40000000000000000000000000043000000BC
:101DE40000000000000000000000000000000000EF
:101DF400000000000000000000000000430000009C
:101E040000000000000000000000000000000000CE
:101E14000000000000000000000000009913000012
:101E24004D11000000000000431B00001C1B0000BB
:101E34001D1B00001D1B00001D1B00001D1B0000BE
:101E44001D1B00001D1B00001D1B00001D1B0000AE
:101E54001D1B0000FFFFFFFFFFFFFFFFFFFFFFFF52
:101E6400FFFF000001004153434949000000000006
:101E7400000000000000000000000000000000005E
:101E840000000000000041534349490000000000E5
:101E9400000000000000000000000000000000003E
:081EA400000000000000000036
:00000001FF
