:10000000C022002035010000310100003101000054
:1000100000000000000000000000000000000000E0
:10002000000000000000000000000000310100009E
:10003000000000000000000031010000310100005C
:1000400031010000310100003101000031010000E8
:1000500031010000310100003109000031010000D0
:1000600031010000310100003101000031010000C8
:1000700031010000310100003101000031010000B8
:10008000490700003101000031010000310100008A
:100090003101000031010000310100003101000098
:1000A0003101000031010000310100003101000088
:1000B00031010000310100003101000010B5064C93
:1000C0002378002B07D1054B002B02D0044800E019
:1000D00000BF0123237010BD780000200000000045
:1000E0003C1F0000084B10B5002B03D007490848FF
:1000F00000E000BF07480368002B00D110BD064B8D
:10010000002BFBD09847F9E7000000007C0000209E
:100110003C1F00003C1F00000000000010B5024B17
:100120009847024B984710BDE10200000D0D0000FA
:10013000FEE7000010B5104A104B9A4209D00F4B51
:100140000D4A03E011681960043304320C498B42F4
:10015000F8D30C4B02E000221A6004330A4A93429F
:10016000F9D30A4AFF210A4B8B439360094B984706
:10017000094B9847FEE7C0463C1F000000000020E6
:100180007800002078000020BC02002000ED00E094
:10019000000000002D0D0000E50B0000024A13696D
:1001A00020210B43136170470008004010B5034B3A
:1001B000984703490348044B984710BD9D01000030
:1001C00000400041D8000020B503000030B5822374
:1001D000DB05CA22995C0125A94301242143C9B248
:1001E0009954B520195CBB3A914303221143C9B21B
:1001F0001954CB215A5CAA432243D2B25A541A5CF6
:10020000BC390A4030210A43D2B21A5430BD000032
:10021000064B4021DC2299500331143A9950044A8C
:10022000D36923390B43D3617047C046001C00409B
:100230000008004010B5054B9847002204490548C6
:10024000054B9847054B984710BDC046110200006A
:1002500000140042F400002051050000CD01000010
:1002600030B58223DB05CF22995C0125A943012407
:100270002143C9B29954B720195CC03A1140602299
:100280001143C9B21954CE215A5CAA432243D2B2B7
:100290005A541A5CBF398A4306210A43D2B21A540F
:1002A00030BD000010B5084A116980239B000B4344
:1002B00013614021EC23054AD15005490548064BFE
:1002C0009847064B984710BD00080040001C0040AE
:1002D000002000420001002029030000610200000C
:1002E00010B5044B9847044B9847044B9847044B70
:1002F000984710BDDD070000AD0100003502000089
:10030000A502000010B5C369002B00D0984710BDAE
:1003100010B5036A002B00D0984710BD10B5436A92
:10032000002B00D0984710BD70B504000D000028C8
:1003300015D0002911D0012041220A490A4B9847C3
:1003400029002000094B9847002805D1084B63601D
:10035000084BA360084BE36070BD0020ECE7002071
:10036000EAE7C046681D0000F90500003D060000F0
:1003700005030000110300001D03000010B5044B2D
:100380001C68044B984701002000034B984710BDA0
:1003900094000020B9070000D507000010B543699C
:1003A000002B00D0984710BD10B58369002B00D0FA
:1003B000984710BD70B504000D00002813D0002927
:1003C0000FD0012038220949094B98472900200005
:1003D000084B9847002803D1074B2360074B636005
:1003E00070BD0020EEE70020ECE7C046841D000051
:1003F000F9050000D10800009D030000A9030000DA
:1004000070B504000D00160000280ED000290AD097
:10041000012034220649074B9847236832002900FF
:100420002000984770BD0020F3E70020F1E7C046A8
:100430009C1D0000F905000070B504000D001600B9
:1004400000280ED000290AD001203D220649074B82
:1004500098476368320029002000984770BD00204B
:10046000F3E70020F1E7C0469C1D0000F9050000FD
:10047000F8B505000E001700002823D0002923D06E
:10048000002A23D10020F1221149124B98472C0059
:1004900008342000104B98470028F8D00025715DE3
:1004A00020000E4B984720000B4B98470028FAD0AD
:1004B0000135BD42F3D32000094B98470028FAD0FC
:1004C0002800F8BD0020DEE70020DCE70120DAE7A5
:1004D000B01D0000F9050000C30B0000B30B0000C5
:1004E000CD0B0000F8B5CE46474680B5051E8846C0
:1004F00091461FD000291FD0002A1FD1002086223C
:1005000052000F490F4B984700262C00083420005A
:100510000D4B98470028F8D043469F1920000B4BFD
:100520009847387001364E45EFD330000CBC9046EA
:100530009946F8BD0020E2E70020E0E70120DEE771
:10054000B01D0000F9050000D90B0000BB0B000036
:1005500070B504000D00002814D0002910D001202F
:1005600034220949094B9847200008302900084BDC
:100570009847002803D1074B6360074B236070BD89
:100580000020EDE70020EBE7B01D0000F9050000BA
:10059000750B0000E50400007104000010B50400B4
:1005A000431E9841C0B253220449054B984720008E
:1005B0000830044B9847002010BDC046B01D000015
:1005C000F9050000A10B000070B504000D00002823
:1005D0000BD0002907D0012069220549054B984717
:1005E0002C60002070BD0020F6E70020F4E7C04634
:1005F000B01D0000F9050000002800D100BE7047C2
:100600000300064A1268002A04D0044A1068C3187E
:10061000136070470249014A1160F6E79800002014
:10062000C022002001204042704780239B014B6084
:10063000002070470120704700207047F0B501602E
:100640008B69012213438B6103689A69D207FBD53A
:100650009A69022422439A61334B99420FD002686F
:10066000936902218B4393610268936901398B433B
:10067000936103689B69DB07FBD40020F0BD2B4B23
:100680001A0001C22A49816101688C698C61016884
:1006900000248C600168274DCD610168264DCD6036
:1006A000264D2D042D0C802189020D43A0260768BC
:1006B000BD51BC25066874510C3506687451204D37
:1006C0002D042D0C8026B6043543C0260768BD5185
:1006D0001204120C0A43F02506687251703D28225C
:1006E000066872511A0014321204120C0A4384264E
:1006F0000768BA511C331B041B0C0B43882201688A
:100700008B5090230268D4500E4B802252025A51D3
:10071000BFF34F8FBFF36F8FC02149005A501A604B
:1007200003680122DA659AE7002000429C0000205D
:1007300000000020070A0206330A000048010020DA
:100740002801002000E100E070B51A4B1D682B68FD
:100750001C6DE30714D4A30516D4A30118D4E30138
:100760001BD4230207D5EB682A68526C920619D570
:10077000022128009847230716D42B681C6570BDFA
:100780002800AB689847E6E728006B689847E4E7DD
:1007900003212800EB689847E1E700212800EB6877
:1007A0009847DEE70121E4E704212800EB68984739
:1007B000E3E7C0469C00002010B503011B1A5B0153
:1007C000181A02300321024B98476423584310BD86
:1007D0002F0800000139FDD87047000010B5094A04
:1007E000536804210B435360074B9847074B9847C6
:1007F000074B9847074B9847FF20074B9847074BF5
:10080000984710BD004000416109000085090000C3
:10081000C508000089090000A108000021080000A7
:100820009022D205137802218B431370704710B5C4
:1008300082B0EFF31083019372B69023DB051A7830
:100840000124A2431A709860D9609023DB051B79BC
:10085000DB07FAD49023DB051869019B83F310882A
:1008600002B010BD10B582B0EFF31083019372B6E1
:100870009023DB051A780124A2431A709860D9608E
:100880009023DB051B79DB07FAD4044B1868596801
:10089000019B83F3108802B010BDC04610000048D1
:1008A000C30707D5044A054B1A62044B5A68044B28
:1008B0001A42FAD17047C04607010100001C0040EF
:1008C000FD0700000122014B1A717047000800402B
:1008D00070B505000C0000281CD0104B99421BD0AD
:1008E000002046220E490F4B98472C6162689E23D8
:1008F000134063600C4B1D600C4B402280215A500A
:10090000BFF34F8FBFF36F8F0131FF315A501A6021
:10091000002070BD0020E4E70120E2E70040004134
:10092000CC1D0000F9050000C800002000E100E037
:1009300010B50A4B186803691A7DD20704D50368FD
:10094000002B00D0984710BD1A7D9207FBD50222DC
:100950001A754368002BF6D09847F4E7C8000020CA
:10096000074A8E23938200239375D375D3691B0A9C
:100970001B02F82149010B40D36101231361704729
:100980000014004070470000194A1A4B1A622C23C9
:10099000184AD25C1E3B1A42F9D1164B00225A6209
:1009A00028215A542C23134AD25C1E3B1A42F9D1F7
:1009B0000222104B1A772C230E4AD35C9B07FAD4E1
:1009C00030230C4AD35CDB0703D43023D35C9B0772
:1009D000F6D5084A137F802149420B43DBB21377D7
:1009E0002C23044AD25C1E3B1A42F9D17047C04600
:1009F000B7050D000010004030B589B00B4C6B46B8
:100A0000220032CA32C332CA32C312CA12C300230E
:100A1000072B08D89A0069465258824201D0013308
:100A2000F6E7D8B200E0002009B030BDEC1D0000B0
:100A300010B50C4B984702000020002806D00A4A47
:100A40000A4900200A4B9847002010BD83001B185C
:100A50009900084B5B1820215B5C9A42F5D001306D
:100A6000C0B2EAE7F90900003D0200005C1E000088
:100A7000F9050000EC1D000070B504003B4B9847E1
:100A8000E369DB071DD483001B189A00384B9B18C1
:100A90005A6A1C231A40E3699B07FCD123689B0711
:100AA00009D5236802218B432360E3699B07FCD1AE
:100AB000E3699B07FCD4012313432360E3699B078D
:100AC000FCD1E369DB07FCD483001B189A00284B98
:100AD0009B185B6A2360E3699B07FCD183001B18AA
:100AE0009A00234B9B189B6A6360E3695B07FCD108
:100AF00083001B189A001E4B9B185B6A9A040BD448
:100B0000C022D201134207D183001B189A00184B50
:100B10009B189B8DA38119E0154A81000D18AB002D
:100B2000D3189D8DA389ED04ED0C5B0B5B032B4368
:100B3000A38120320B1899005218937B07221A4088
:100B4000A3895203DB04DB0C1343A381084B190078
:100B5000203182001618B5004919C97BA1735B19B1
:100B600030331A783023E254002070BD310A00007F
:100B7000EC1D000070B505000C00431E9841C0B28A
:100B8000B4220449044B98472C602000034B98473B
:100B900070BDC0465C1E0000F9050000790A000027
:100BA0000268136802210B431360D3699B07FCD1D1
:100BB0007047036889B2198570470368188DC0B201
:100BC00070470368187E01231840704703681B7E36
:100BD0005B0801201840704703681B7E9B080120BA
:100BE0001840704710B50D4B98470D490D480E4BF6
:100BF0009847E02212020D4B1A6000230C4A137230
:100C0000012149420B4A11600B4A53700B480C4BAF
:100C10009847FA2080000B4B9847F7E71D0100002A
:100C2000EC010020F4000020C9050000F0010020C4
:100C3000A80100201C02002034020020781E0000C1
:100C4000850D00007D03000010B50B00002809D1C0
:100C500011001800054B9847002800DB10BD01204B
:100C60004042FBE701204042F8E7C046C50C0000C7
:100C700010B50B000138022809D811001800054BE7
:100C80009847002800DB10BD01204042FBE701200F
:100C90004042F8E7E90C000070B50600064D2B68ED
:100CA00098680021054CA0472B6858680021A04790
:100CB000034B1E6070BDC04614000020B90D00003B
:100CC000CC00002010B50400054B1868002804D0A3
:100CD0008AB22100034B984710BD0020FCE7C046B4
:100CE000CC0000203904000010B50400054B186842
:100CF000002804D08AB22100034B984710BD002081
:100D0000FCE7C046CC0000200104000010B5044CF4
:100D10002000044B98472000034B984710BDC04665
:100D2000F40000209D050000990C000070B500261D
:100D30000C4D0D4C641BA410A64209D1002601F0F5
:100D4000EDF80A4D0A4C641BA410A64205D170BDF3
:100D5000B300EB5898470136EEE7B300EB589847DD
:100D60000136F2E7281F0000281F0000281F00009E
:100D70002C1F000003008218934200D170471970A5
:100D80000133F9E70FB40B4B13B51C68002C05D0E9
:100D9000A369002B02D1200000F088FA05AB049A69
:100DA000A1682000019300F05DFC16BC08BC04B0F3
:100DB0001847C046140000204A424A41802310B51B
:100DC0005200DB0000F002F810BD0000F0B51D007D
:100DD0004F4B85B01E6804000F000092002E05D016
:100DE000B369002B02D1300000F060FA494B9C42FD
:100DF00050D17468009B022B05D0012B00D984E0F0
:100E0000002D00DA81E02100300000F0E1F9616B93
:100E1000002908D023004433994202D0300000F06A
:100E200051FB002363630023A3616360A3891B0656
:100E300003D52169300000F045FBA389364A1340F1
:100E4000A381009B022B5AD003AB02AA21003000E1
:100E500000F0C2FAA3891843A081002D24D1029D7D
:100E6000280000F025FB0195071E42D1029B01934B
:100E7000AB4239D1012040420223A2891343A3810E
:100E80000023A360230047332360236101236361B0
:100E900005B0F0BD214B9C4201D1B468AAE7204BBC
:100EA0009C42A7D1F468A5E7002FD9D0B369002BE5
:100EB00002D1300000F0FAF9009B012B03D1A38985
:100EC000009A1A43A2810820A389276027616561DF
:100ED000184018D0012018400023984211D06D42CC
:100EE000A360A5611800D3E7019800F0E1FA071E9E
:100EF000C0D08023A289019D1343A381D6E700209F
:100F0000BAE7A560C4E7A060C2E701204042BFE79E
:100F100014000020A81E00005CF3FFFFC81E0000A4
:100F2000881E0000F8B505000E001400002804D04B
:100F30008369002B01D100F0B9F9224B9C422DD1DD
:100F40006C68A369A360A3891B0731D52369002BB3
:100F50002ED023682269F7B2981A6369F6B29842D4
:100F600005DB2100280000F033F9002826D1A36812
:100F70000130013BA36023685A1C22601F70636923
:100F8000984204D0A389DB071AD50A2E18D1210074
:100F9000280000F01DF9002812D00FE00A4B9C42F7
:100FA00001D1AC68CDE7094B9C42CAD1EC68C8E7D7
:100FB0002100280000F00CF80028CAD00126764253
:100FC0003000F8BDA81E0000C81E0000881E0000EA
:100FD000364B70B51D6806000C00002D05D0AB69BE
:100FE000002B02D1280000F061F9314B9C420FD157
:100FF0006C680C23E25E93B219072DD4D90611D484
:1010000009230120336037331343A381404270BD6D
:10101000284B9C4201D1AC68EBE7274B9C42E8D1BE
:10102000EC68E6E75B0713D5616B002908D0230065
:101030004433994202D0300000F044FA0023636345
:101040002422A3899343A38100236360236923603F
:101050000823A2891343A3812369002B0BD1A0216C
:101060008022A389890092000B40934203D0210083
:10107000300000F0D9F90123A289134011D00023D8
:10108000A36063695B42A361002023698342BED1F0
:101090000C23E25E1306BAD540231343A381013823
:1010A000B5E7920700D46369A360EDE71400002060
:1010B000A81E0000C81E0000881E0000F7B58A891F
:1010C00005000C00130760D44B68002B04DC0B6C8C
:1010D000002B01DC0020FEBDE76A002FFAD00023C0
:1010E0002E682B6080235B011A4034D0606DA38989
:1010F0005B0706D56368C01A636B002B01D0236CB5
:10110000C01A0200216A00232800E76AB847A189B3
:10111000431C06D12B681D2B31D82C4ADA40D3074B
:101120002DD50023636023692360CB0405D5431CC0
:1011300002D12B68002B00D16065616B2E60002905
:10114000C8D023004433994202D0280000F0BAF9F5
:1011500000206063BFE70123216A2800B847431CD1
:10116000C5D12B68002BC2D01D2B01D0162B01D16D
:101170002E60AFE74023A2891343A381ABE740234E
:101180000B430120A3814042A5E70F69002FA1D0A6
:101190000B680F60DB1B01930023920700D14B69A2
:1011A000A360019B002B00DC94E7019B3A00216ABD
:1011B0002800A66AB047002803DC4023A289134315
:1011C000DFE7019B3F181B1A0193EAE7010040206B
:1011D0000B6970B505000C00002B01D1002070BD1B
:1011E000002804D08369002B01D100F05FF80B4B7D
:1011F0009C4209D16C680C22A35E002BEED021002A
:101200002800FFF75BFFEAE7054B9C4201D1AC6881
:10121000F1E7044B9C42EED1EC68ECE7A81E00001D
:10122000C81E0000881E000010B5024900F0B2F888
:1012300010BDC046D1110000002310B504000360AA
:101240004360836081814366C2810361436183613E
:10125000190008225C30FFF78DFD054B24626362A4
:10126000044BA362044BE362044B236310BDC046EE
:10127000D11B0000F91B0000311C00005D1C0000A8
:1012800070B568254A1E55430E002900743100F0E0
:1012900063F9041E08D000212A00016046600C306A
:1012A000A0606832FFF766FD200070BD836913B54A
:1012B0000400002B28D18364C3640365134B144AD4
:1012C0001B6882620193984201D10123836120004F
:1012D00000F020F86060200000F01CF8A060200002
:1012E00000F018F80022E06004216068FFF7A4FF16
:1012F00001220921A068FFF79FFF02221221E06866
:10130000FFF79AFF0123A36113BDC046841E0000AE
:1013100029120000F8B51E4B07001E68B369002BA8
:1013200002D13000FFF7C2FF4836B4687368013B52
:1013300004D53368002B07D03668F6E70C22A55E8B
:10134000002D0DD06834F2E704213800FFF798FF34
:1013500030600028F0D10C2304003B602000F8BD71
:10136000012320005B42E3810233A381656625608F
:10137000A560656025616561A561082229005C3072
:10138000FFF7F8FC6563A563A564E564E6E7C0467E
:10139000841E0000F7B504000700002601914834C0
:1013A000002C01D13000FEBD6368A5680093009B4E
:1013B000013B009301D52468F2E7AB89012B08D9E2
:1013C0000E22AB5E013304D029003800019B984700
:1013D00006436835EBE7000070B50E001D000E23D4
:1013E000C95E90B01400002907DA00232B60B3898E
:1013F0001B0611D48023DB000FE001AA00F05AFC89
:101400000028F2DBF022029B12021340054A9B18CF
:101410005A4253412B60EDE740230020236010B077
:1014200070BDC04600E0FFFFF7B502268B890500BE
:101430000C00334206D0230047332360236101238D
:101440006361F7BD01AB6A46FFF7C6FF009907006D
:10145000280000F081F8002808D10C22A35E9A052C
:10146000EFD4032293431E43A681E4E70F4BAB6204
:101470008023A28920601343A381009B20616361C4
:10148000019B002B0DD00E23E15E280000F024FC10
:10149000002806D00322A38993431A000123134393
:1014A000A381A0893843A081CBE7C0462912000060
:1014B00010B5034B0100186800F04EF810BDC0468F
:1014C0001400002070B50500002910D00C1F2368FF
:1014D000002B00DAE418280000F02FFC1D4A1368E6
:1014E000002B05D163601460280000F027FC70BD5C
:1014F000A34209D9216860188342F3D118685B6858
:1015000041182160EEE713005A68002A01D0A24278
:10151000F9D919685818A0420BD120680918581831
:1015200019608242E0D110685268411819605A600F
:10153000DAE7A04202D90C232B60D5E721686018B6
:10154000824203D1106852684118216062605C6079
:10155000CAE7C046D0000020032370B5CD1C9D43D0
:10156000083506000C2D1ED20C25A9421DD83000CE
:1015700000F0E3FB254A14682100002919D1244C0E
:101580002368002B03D1300000F010FB20602900FD
:10159000300000F00BFB431C2CD10C2330003360D7
:1015A00000F0CCFB03E0002DDFDA0C2333600020D9
:1015B00070BD0B685B1B1AD40B2B03D90B60CC18C6
:1015C000256003E08C420ED163681360300000F0A8
:1015D000B5FB200007220B30231D9043C31AE7D030
:1015E0005A42E250E4E74B6863600C00EEE70C00FF
:1015F0004968C2E70323C41C9C43A042E0D0211ADF
:10160000300000F0D3FA431CDAD1C6E7D000002046
:10161000D4000020936810B5013B9360002B05DADD
:101620009469A34208DBCBB20A2B05D01368581C7F
:1016300010601970C8B210BDFFF774FCFBE7F8B575
:1016400006000F001400D518AC4201D1002007E0BD
:1016500021783A003000FFF7DDFF0134431CF3D15D
:10166000F8BD0000F0B59FB006000F001400059310
:10167000002804D08369002B01D1FFF717FE7F4BB0
:101680009F425CD17768BB891B0762D53B69002B01
:101690005FD0002306AD6B6120336B761033AB76E1
:1016A0000294029C2378002B5DD1029BE31A0493E1
:1016B0000DD0049B029A39003000FFF7C0FF431C95
:1016C00000D1CCE06A69049B944663446B61237843
:1016D000002B00D1C3E00122002352426A6002A91C
:1016E0005432521801342B60EB60AB601370AB6561
:1016F00021780522624800F015FB631C9C460028F7
:1017000035D12968CB0604D5532302AA20309B1873
:1017100018700B0704D553232B2002AA9B181870AE
:1017200023782A2B2CD000200A21099B2278303ADA
:10173000092A00D86BE000282AD0099328E0514BF1
:101740009F4201D1B7689EE74F4B9F429BD1F768FC
:1017500099E739003000FFF73BFC002899D00120C1
:1017600040421FB0F0BD252B9FD001349AE7444B77
:101770002968C01A012383400B432B606446B7E7F6
:10178000059B181D1B680590002B3ADB09936446E6
:1017900023782E2B0BD16378621C2A2B3FD1059B1B
:1017A00002341A1D1B680592002B35DB0793217844
:1017B0000322364800F0B6FA002807D0334B2A68D7
:1017C000C01A4023834013432B6001342178631CEB
:1017D00006222F480293297600F0A4FA002844D06C
:1017E0002C4B002B2FD12968059B0722C90528D532
:1017F0009B189343083305936B69039A9B186B619D
:101800004FE75B42EB6002230B432B60BFE74B4388
:1018100001349B18012089E701235B42C6E70023BE
:1018200014000A201A006B6021783039092903D985
:10183000002BBCD00792BAE742430134521801236F
:10184000F2E70733D5E705AB00933A00124B2900C6
:10185000300000E000BF0390039B0133CCD1BB8973
:101860005B0600D57BE70B987BE705AB00933A005E
:10187000094B2900300000F07FF8ECE7A81E0000BB
:10188000E81E0000C81E0000881E0000EE1E0000BA
:10189000F21E0000000000003F160000F7B5150022
:1018A00001938A680B6900900C00934200DA1300E0
:1018B00022002B6043321278002A01D001332B60C2
:1018C00023689B0602D52B6802332B60062723680A
:1018D0001F4027D0230043331B785A1E93412268B0
:1018E000920630D42200019943320098089EB047F6
:1018F000431C25D0062320682A68E16803400025A0
:10190000042B03D18D1AEB43DB171D40A36822691A
:10191000934201DD9B1AED180027BD4220D1002023
:1019200010E00137E3682A689B1A9F42D2DA22004E
:101930000123193201990098089EB047431CF0D149
:1019400001204042FEBD3020E118433108702100E3
:101950005A1C45310978A218433202331170C1E78D
:10196000220001231A3201990098089EB047431CB7
:10197000E6D00137D1E70000F0B58BB006920A003F
:1019800043320793059004920A7E0C00109B6E2A46
:1019900000D18FE017D8632A2CD008D8002A00D1B4
:1019A00099E0582A54D026004236327029E0642A41
:1019B00001D0692AF7D121681A68080623D5111DBC
:1019C0001960156825E0732A00D188E008D86F2ACD
:1019D00029D0702AE7D1202209680A43226003E057
:1019E000752A20D0782ADED1220078214532117064
:1019F0006C4A30E00E001A684236111D19601368F7
:101A00003370012379E04906D9D5111D19600023EF
:101A1000D55E002D03DA2D23049A6D421370624BBC
:101A20000A2703932FE020681968050603D5081DCF
:101A300018600D6805E04006F9D50D68081D1860AE
:101A4000ADB2594B082703936F2A18D00A2716E026
:101A500045310A70544A03921A682168101D1860B3
:101A60001568080622D5CB0702D52023194321602B
:101A70001027002D03D1202322689A4322602300DF
:101A8000002243331A706368A360002B5CDB0422DE
:101A9000216891432160002D58D1049E002B64D011
:101AA0002600039B42361B7833705EE04806DAD589
:101AB000ADB2D8E709681A68080605D5111D196086
:101AC000136862691A6006E04906F7D5111D1960AE
:101AD0001368A28A1A800023049E236154E01A68C6
:101AE000111D1960166800216268300000F01AF9B3
:101AF000002801D0801B6060636823610023049A82
:101B0000137041E02369320006990598079DA847A4
:101B1000431C43D0236800259B070FD4099BE06832
:101B200098423DDA18003BE0220001231932069961
:101B30000598079EB047431C30D00135E368099AE9
:101B40009B1A9D42F0DBE9E7002DA9D0049E2800F6
:101B50003900FEF787FE039B013E5B5C2800337073
:101B60003900FEF764FE051EF1D1082F09D1236864
:101B7000DB0706D563682269934202DC3023013E0D
:101B80003370049B9B1B2361079B09AA00932100D0
:101B9000069B0598FFF782FE431CB3D1012040420B
:101BA0000BB0F0BD0A1F0000F91E0000002370B545
:101BB000064C050008002360FEF722FD431C03D1FC
:101BC0002368002B00D02B6070BDC046B8020020F7
:101BD00070B50C000E25495F00F0B2F8002803DB59
:101BE000636D1B18636570BDA389024A1340A3810E
:101BF000F9E7C046FFEFFFFFF8B51F008B8905002E
:101C00000C001600DB0505D50E23C95E0022022359
:101C100000F074F8A389054A28001340A38132001C
:101C20000E23E15E3B0000F01FF8F8BDFFEFFFFF61
:101C300070B50C000E25495F00F060F8A389421CC6
:101C400003D1054A1340A38170BD80225201134382
:101C5000A3816065F8E7C046FFEFFFFF10B50E23D4
:101C6000C95E00F015F810BD70B505000800110040
:101C70000022064C22601A00FEF7FAFF431C03D133
:101C80002368002B00D02B6070BDC046B802002036
:101C9000002370B5064C050008002360FEF7C2FC67
:101CA000431C03D12368002B00D02B6070BDC046BD
:101CB000B8020020002370B5064C05000800110092
:101CC0002360FEF7B2FC431C03D12368002B00D035
:101CD0002B6070BDB8020020002370B5064C0500D3
:101CE00008002360FEF7A6FC431C03D12368002BE9
:101CF00000D02B6070BDC046B802002070B5050052
:101D0000080011000022064C22601A00FEF794FC25
:101D1000431C03D12368002B00D02B6070BDC0464C
:101D2000B8020020C9B28218904201D10020704749
:101D300003788B42FBD00130F6E770477047000014
:101D400070B50500080011000022064C22601A0040
:101D5000FEF77AFF431C03D12368002B00D02B60D1
:101D600070BDC046B80200202E2E2F68616C2F7304
:101D700072632F68616C5F63616E5F6173796E631C
:101D80002E6300002E2E2F68616C2F7372632F68F4
:101D9000616C5F666C6173682E6300002E2E2F6885
:101DA000616C2F7372632F68616C5F696F2E6300C3
:101DB0002E2E2F68616C2F7372632F68616C5F75B4
:101DC000736172745F73796E632E63002E2E2F68B9
:101DD000706C2F6E766D6374726C2F68706C5F6EB2
:101DE000766D6374726C2E63000000000004004284
:101DF00000080042000C00420010004200140042A3
:101E000000180042000000430004004304000000EA
:101E100004003140000003002BF600000000000029
:101E200000000000000000000000000000000000B2
:101E300000000000000000000000000000000000A2
:101E40000000000000000000000000000000000092
:101E50000000000000000000000000002E2E2F688F
:101E6000706C2F736572636F6D2F68706C5F736534
:101E700072636F6D2E630000743030313231324145
:101E8000420D0000180000200000000000000000CB
:101E90000000000000000000000000000000000042
:101EA0000000000000000000000000000000000032
:101EB0000000000000000000000000000000000022
:101EC0000000000000000000000000000000000012
:101ED0000000000000000000000000000000000002
:101EE0000000000000000000232D302B2000686C53
:101EF0004C0065666745464700303132333435362D
:101F00003738394142434445460030313233343565
:101F1000363738396162636465660000F8B5C046DB
:101F2000F8BC08BC9E467047E5000000F8B5C04606
:0C1F3000F8BC08BC9E467047BD000000D5
:101F3C004801002028010020A0000020B000002053
:101F4C00B80000201800002000000000A81E0000AF
:101F5C00C81E0000881E00000000000000000000E9
:101F6C000000000000000000000000000000000065
:101F7C000000000000000000000000000000000055
:101F8C000000000000000000000000000000000045
:101F9C000000000000000000000000000000000035
:081FAC0000000000000000002D
:00000001FF
